:020000040800F2
:10000000580B002089010008C1080008E10600081B
:10001000BD0800089D0300088723000800000000B9
:10002000000000000000000000000000C1110008F6
:10003000A1030008000000002F0D00087116000841
:10004000A3010008A3010008A3010008A301000800
:10005000A3010008A3010008A3010008A3010008F0
:10006000A3010008A3010008A3010008A3010008E0
:10007000A3010008A3010008A3010008A3010008D0
:10008000A3010008A3010008A3010008A3010008C0
:10009000A3010008A3010008A3010008A3010008B0
:1000A000A3010008A3010008A3010008A3010008A0
:1000B000A3010008A3010008A3010008A301000890
:1000C000A3010008A3010008A3010008A301000880
:1000D000A3010008ED1C0008051E0008E91F000828
:1000E000A3010008A3010008A301000800F002F822
:1000F00000F03AF80AA090E8000C82448344AAF188
:100100000107DA4501D100F02FF8AFF2090EBAE885
:100110000F0013F0010F18BFFB1A43F0010318473B
:10012000D4680000F4680000103A24BF78C878C191
:10013000FAD8520724BF30C830C144BF04680C60ED
:10014000704700000023002400250026103A28BF35
:1001500078C1FBD8520728BF30C148BF0B60704739
:100160001FB51FBD10B510BD00F031F81146FFF7E7
:10017000F7FF02F0FFFC00F04FF803B4FFF7F2FFC7
:1001800003BC00F057F800000948804709480047C1
:10019000FEE7FEE7FEE7FEE7FEE7FEE7FEE7FEE737
:1001A000FEE7FEE704480549054A064B7047000094
:1001B00075160008ED00000858050020580B0020B7
:1001C0005807002058070020704770477047754651
:1001D00000F02CF8AE4605006946534620F00700B3
:1001E000854618B020B5FFF7DDFFBDE820404FF091
:1001F00000064FF000074FF000084FF0000B21F011
:100200000701AC46ACE8C009ACE8C009ACE8C009DD
:10021000ACE8C0098D46704710B50446AFF30080C6
:100220002046BDE81040FFF7A8BF00000048704717
:10023000F404002001491820ABBEFEE726000200AE
:100240007047000008B550484023802200210090EC
:10025000084600F09BFC00F017FD91E04B48008839
:10026000401C4A490880012002F0F6FA48480088FC
:100270004849098808444649088008460088FA2801
:1002800006DBFA2008804FF0FF304249088009E081
:100290003F480088322805DC32203D490880012093
:1002A0003C4908803949088800EBD0714910A0EB1F
:1002B000410121B936480188374801F0BCFC334878
:1002C0000088322809D10122C321962000F06AF863
:1002D00002226921962000F065F82C4800889628B3
:1002E00009D104229621692000F05CF803229621AE
:1002F000C32000F057F825480088FA2809D10122C8
:100300006921C32000F04EF80222C321692000F0C9
:1003100049F81E480088B0F5AF7F09D10422C321F7
:10032000962000F03FF803226921962000F03AF869
:1003300016480088B0F5E17F09D101229621692095
:1003400000F030F802229621C32000F02BF80F486D
:10035000008840F22621884209D104226921C32065
:1003600000F020F80322C321692000F01BF80748A1
:100370000088B0F5167F03DB00200449088000E008
:100380006CE700BF08BD0000F43100080400002045
:1003900024000020260000200004004000BFFEE7EB
:1003A000704700002DE9F04105460E469046B542E3
:1003B00000DD0127AE4200DD0027B8F1010F1DD19D
:1003C000012F0DD12C4608E0A1B23F4801F033FCCB
:1003D0003E48008802F0A0FA641EB442F4DA0DE050
:1003E00067B92C4608E0A1B2374801F024FC374831
:1003F000008802F091FA641CB442F4DDB8F1020FF7
:100400001DD1012F0DD12C4608E0A1B22E4801F0DC
:1004100014FC2E48008802F07FFA641EB442F4DA1D
:100420000DE067B92C4608E0A1B2274801F005FCB1
:100430002648008802F070FA641CB442F4DDB8F17A
:10044000030F1DD1012F0DD12C4608E0A1B21E488B
:1004500001F0F5FB1D48008802F05EFA641EB4420C
:10046000F4DA0DE067B92C4608E0A1B2164801F0B5
:10047000E6FB1648008802F04FFA641CB442F4DD33
:10048000B8F1040F1DD1012F0DD12C4608E0A1B207
:100490000D4801F0D6FB0D48008802F03DFA641EBD
:1004A000B442F4DA0DE067B92C4608E0A1B2064880
:1004B00001F0C7FB0548008802F02EFA641CB44224
:1004C000F4DDBDE8F08100000008004006000020D7
:1004D0002DE9F041024600250026002000230024DB
:1004E000002791F803C00CF00F0591F803C00CF041
:1004F000100CBCF1000F03D091F802C04CEA0505C6
:1005000091F800C0BCF1000F31D0146800202BE03E
:100510004FF0010C0CFA00F3B1F800C00CEA03062E
:100520009E4220D183004FF00F0C0CFA03F7BC431E
:1005300005FA03FC4CEA040491F803C0BCF1280F4F
:1005400006D14FF0010C0CFA00FCC2F814C00AE00E
:1005500091F803C0BCF1480F05D14FF0010C0CFA23
:1005600000FCC2F810C0401C0828D1D31460B1F8B8
:1005700000C0BCF1FF0F34DD546800202EE000F114
:10058000080C4FF0010808FA0CF3B1F800C00CEAAF
:1005900003069E4221D183004FF00F0C0CFA03F7A3
:1005A000BC4305FA03FC4CEA040491F803C0BCF117
:1005B000280F05D100F1080C08FA0CF8C2F81480D5
:1005C00091F803C0BCF1480F07D100F1080C4FF0BF
:1005D000010808FA0CF8C2F81080401C0828CED395
:1005E0005460BDE8F081016170470AB1016100E02B
:1005F0004161704708B534484023802200210090B3
:10060000084600F0C3FA00F03FFBDC212F4801F060
:1006100014FB96212D4801F012FB96212B4801F086
:1006200010FB4DE0012002F017F929480088401C1A
:100630002749088027480088274909880844254910
:10064000088008460088FA2806DBFA2008804FF068
:10065000FF302149088009E01E480088322805DC67
:1006600032201C49088001201B490880184908884D
:1006700000EBD0714910A0EB410121B91548018868
:10068000164801F0D8FA12480088C82804D101227F
:1006900037217320FFF786FE0D480088B0F5FA7FFA
:1006A00004D1012273213720FFF77CFE084800881F
:1006B00040F22621884203DB00200549088000E043
:1006C000B0E700BF08BD0000F46500080008004066
:1006D00004000020180000201A0000200004004040
:1006E00000BFFEE738B500F02FF91D4840231A4639
:1006F00000210090202000F049FA00F0C5FA002403
:100700002BE0601C84B2AA21164801F094FAE6217D
:10071000144801F096FA8221124801F090FA46211D
:10072000104801F08AFA642002F096F878210D480A
:1007300001F081FAB4210B4801F083FAB421094891
:1007400001F07DFA7821074801F077FA642002F081
:1007500083F80A2C01DB002400E0D2E700BF38BD9B
:10076000F45F00080008004008B50121582000F09F
:100770009BFB4FF40050ADF8000010208DF80300F3
:1007800003208DF8020069460448FFF7A1FE4FF4EC
:1007900000510248FFF727FF08BD0000001001408C
:1007A00008B541484023802200210090084600F00F
:1007B000EDF900F069FA74E03C480088401C3B49C0
:1007C0000880012002F048F8394800883949098832
:1007D00008443749088008460088FA2806DBFA20D2
:1007E00008804FF0FF303349088009E03048008826
:1007F000322805DC32202E49088001202D4908804E
:100800002A49088800EBD0714910A0EB410121B9B9
:1008100027480188284801F00EFA24480088322829
:1008200009D10422C3219620FFF7BCFD0322C32176
:100830009620FFF7B7FD1D480088C82809D101227E
:1008400069219620FFF7AEFD022269219620FFF76D
:10085000A9FD16480088B0F5AF7F09D10422962182
:10086000C320FFF79FFD03229621C320FFF79AFDC7
:100870000E480088B0F5FA7F09D10122962169203F
:10088000FFF790FD022296216920FFF78BFD0748B4
:10089000008840F22621884203DB002003490880BB
:1008A00000E089E700BF08BDF4350008040000201F
:1008B00030000020320000200004004000BFFEE7AE
:1008C0007047000070B5002100230F22C47804B3E4
:1008D000154C246804F4E064C4F5E064210AC1F115
:1008E0000403CA40447804FA03F184781440214395
:1008F00009010E4C0678A155047804F01F05012467
:10090000AC4005786D11AD0005F1E025C5F800415A
:1009100009E0047804F01F050124AC40044D06787A
:10092000761145F8264070BD0CED00E000E400E0D3
:1009300080E100E002490143024A11607047000073
:100940000000FA050CED00E000200CE0002106E0BC
:100950000022064B03EBC0135A544A1CD1B2802923
:10096000F6DB421CD0B20828F0DB70477400002090
:100970002DE9F04304460D4616461F46284638E04A
:10098000224631E0002A2DDB7F2A2BDC002829DBE0
:100990003F2827DC4FEAE07C00EB5C7C4FEAEC0C64
:1009A000DFF8588008EBCC1C1CF802C003464FEA65
:1009B000E07800EB58784FEAE808A0EBC8094FF060
:1009C000010808FA09F82CEA080C01464FEAE07819
:1009D00000EB58784FEAE808DFF8209009EBC818D8
:1009E00008F802C0511C0AB2A1199142CADC411C8C
:1009F00008B2E9198142C3DCBDE8F083740000202D
:100A000038B5002406E0002500E06D1CB5F57A7FBE
:100A1000FBD3641CB4F57A7FF5D30121102000F0DC
:100A200043FA14208DF8030003208DF802004FF4E0
:100A30008040ADF8000069460848FFF749FD4FF4D3
:100A40000040ADF8000069460448FFF741FD012071
:100A500000F02EF9012000F037F938BD00100140F8
:100A600070B50546002411E080212141294009B1DB
:100A7000012100E00021084600F026F9012000F0E5
:100A800017F9002000F014F9601CC4B2082CEBDB4D
:100A9000012000F00DF9002000F00AF970BD10B53A
:100AA000012000F011F9012000F002F9002000F00F
:100AB0000BF9002000F0FCF810BD10B5002000F08C
:100AC00003F9012000F0F4F8012000F0FDF810BD5A
:100AD00010B5FFF795FFAE2000F002F9D52000F029
:100AE000FFF8802000F0FCF8A82000F0F9F83F2083
:100AF00000F0F6F8D32000F0F3F8002000F0F0F852
:100B0000402000F0EDF8A12000F0EAF8C82000F045
:100B1000E7F8DA2000F0E4F8122000F0E1F8812094
:100B200000F0DEF8CF2000F0DBF8D92000F0D8F894
:100B3000F12000F0D5F8DB2000F0D2F8302000F0F2
:100B4000CFF8A42000F0CCF8A62000F0C9F88D2042
:100B500000F0C6F8142000F0C3F8AF2000F0C0F891
:100B6000FFF7F2FE00F090F810BD70B505460C4698
:100B700045F0B00000F0B4F8102141EA141000F084
:100B8000AFF804F00F0000F0ABF870BD2DE9FF4F97
:100B900080460E469146DDF834B0002500244A46D2
:100BA00031464046039BFFF7E3FE00BF5EE00025B1
:100BB00058E008EB0500002852DB08EB05007F2811
:100BC0004EDC3046F11706EB5171C9100FB2F11728
:100BD00006EB5171C910A6EBC10A002E05DA781E8A
:100BE00007B20AF108000FFA80FA3819002817DB5B
:100BF0003819072814DC3819224901EBC01008EB1A
:100C00000501405C04FB09511BF8011001FA0AF1CF
:100C1000084339191B4A02EBC11108EB050288543D
:100C20003819401C00281BDB3819401C072817DC2A
:100C30003819401C134901EBC01008EB0501405C5A
:100C400004FB09511BF80110CAF1080211410843C5
:100C50003919491C0B4A02EBC11108EB05028854F3
:100C6000681CC5B24D45A4DB601CC4B20399481E84
:100C7000C11700EB5171012202EBE101A14296DCA8
:100C8000BDE8FF8F7400002010B500240BE00021A8
:100C90002046FFF76AFF054901EBC410802100F0F0
:100CA0002FF8601CC4B2082CF1DB10BD74000020CA
:100CB00010B5044622464FF480410248FFF795FCE8
:100CC00010BD00000010014010B5044622464FF44C
:100CD00000410248FFF789FC10BD000000100140F0
:100CE00010B50446FFF7DBFE7820FFF7B9FE0020C1
:100CF000FFF7B6FE2046FFF7B3FEFFF7DEFE10BD9E
:100D000070B505460E46FFF7CAFE7820FFF7A8FE2D
:100D10004020FFF7A5FE002404E0285DFFF7A0FEB9
:100D2000601CC4B2B442F8DBFFF7C7FE70BD704769
:100D300008B5504840238022002100900846FFF764
:100D400025FFFFF7A1FF91E04B480088401C4A496E
:100D50000880012001F080FD484800884849098842
:100D600008444649088008460088FA2806DBFA202D
:100D700008804FF0FF304249088009E03F48008872
:100D8000322805DC32203D49088001203C4908809A
:100D90003949088800EBD0714910A0EB410121B915
:100DA00036480188374800F046FF3348008832282B
:100DB00009D1012273219620FFF7F4FA0222B9210A
:100DC0009620FFF7EFFA2C480088962809D10422D4
:100DD0009621B920FFF7E6FA032296217320FFF748
:100DE000E1FA25480088FA2809D10122B9217320A7
:100DF000FFF7D8FA02227321B920FFF7D3FA1E4871
:100E00000088B0F5AF7F09D1042273219620FFF747
:100E1000C9FA0322B9219620FFF7C4FA16480088C0
:100E2000B0F5E17F09D101229621B920FFF7BAFA86
:100E3000022296217320FFF7B5FA0F48008840F28E
:100E40002621884209D10422B9217320FFF7AAFA8A
:100E500003227321B920FFF7A5FA07480088B0F5EF
:100E6000167F03DB00200449088000E06CE700BF28
:100E700008BD0000F4310008040000202800002014
:100E80002A0000200004004029B1064AD26902432A
:100E9000044BDA6104E0034AD2698243014BDA6110
:100EA000704700000010024029B1064A92690243CF
:100EB000044B9A6104E0034A92698243014B9A61B0
:100EC000704700000010024030B5002100220024CD
:100ED00000232D4D6D6805F00C0121B1042905D0CA
:100EE000082923D105E0294D056022E0274D056042
:100EF0001FE0254D6D6805F47012234D6D6805F4F3
:100F00008034022505EB92421CB9214D5543056002
:100F10000BE01D4D6D6805F400351DB11C4D5543AA
:100F2000056002E0194D5543056002E0174D05606C
:100F300000BF00BF144D6D6805F0F0010909154DA3
:100F40006B5C0568DD4045600F4D6D6805F4E06140
:100F5000090A104D6B5C4568DD4085600A4D6D687F
:100F600005F46051C90A0B4D6B5C4568DD40C560F6
:100F7000054D6D6805F44041890B074D6B5CC568F4
:100F8000B5FBF3F5056130BD0010024000127A0098
:100F900000093D00600000207000002008B54148B5
:100FA00040238022002100900846FFF7EFFDFFF765
:100FB0006BFE74E03C480088401C3B4908800120DF
:100FC00001F04AFC39480088394909880844374902
:100FD000088008460088FA2806DBFA2008804FF0CF
:100FE000FF303349088009E030480088322805DCAA
:100FF00032202E49088001202D4908802A4908887E
:1010000000EBD0714910A0EB410121B927480188BC
:10101000284800F010FE24480088322809D1012217
:1010200069219620FFF7BEF9022269219620FFF779
:10103000B9F91D480088C82809D10422C321962087
:10104000FFF7B0F90322C3219620FFF7ABF916484A
:101050000088B0F5AF7F09D1012296216920FFF702
:10106000A1F9022296216920FFF79CF90E48008819
:10107000B0F5FA7F09D104229621C320FFF792F937
:1010800003229621C320FFF78DF90748008840F21C
:101090002621884203DB00200349088000E089E71D
:1010A00000BF08BDF4390008040000202C00002017
:1010B0002E0000200004004008B53C484023802258
:1010C000002100900846FFF761FDFFF7DDFD6AE0B3
:1010D00037480088401C36490880012001F0BCFBDD
:1010E0003448008834490988084432490880084651
:1010F0000088FA2806DBFA2008804FF0FF302E49DE
:10110000088009E02B480088322805DC3220294974
:1011100008800120284908802549088800EBD07103
:101120004910A0EB410121B922480188234800F071
:1011300082FD1F480088962813D101227821B4200F
:10114000FFF730F90222B4217820FFF72BF90322B0
:10115000B4217820FFF726F904227821B420FFF784
:1011600021F913480088B0F5AF7F13D10122B421D3
:101170007820FFF717F902227821B420FFF712F93F
:1011800003227821B420FFF70DF90422B42178203E
:10119000FFF708F906480088B0F5B97F03DB0020A7
:1011A0000349088000E093E700BF08BDF44D000844
:1011B000040000201400002016000020000400405D
:1011C000704710B500F002F810BD00000CB500200B
:1011D000019000903348006840F480303149086045
:1011E00000BF3048006800F4003000900198401CB7
:1011F0000190009818B90198B0F5A06FF1D1294875
:10120000006800F4003010B10120009001E00020DF
:1012100000900098012843D12348006840F0100056
:10122000214908600846006820F00300086008466D
:10123000006840F0020008601A4840681949486098
:101240000846406848600846406840F4806048604E
:101250000846406820F47C1048600846406840F426
:10126000E81048600846006840F08070086000BFE1
:101270000C48006800F000700028F9D00948406868
:1012800020F00300074948600846406840F002002B
:10129000486000BF0348406800F00C000828F9D1FE
:1012A0000CBD0000001002400020024008B52C4890
:1012B00040238022002100900846FFF767FCFFF7DB
:1012C000E3FCAF21274800F0B6FCE121254800F0FF
:1012D000B4FC7D21234800F0B2FC4B21214800F0F2
:1012E000B0FC39E020480088401C1F4908800120DC
:1012F00001F0B2FA1D4800881D49098808441B49BD
:10130000088008460088FA2806DBFA2008804FF09B
:10131000FF301749088009E014480088322805DCAE
:101320003220124908800120114908800E4908889E
:1013300000EBD0714910A0EB410121B90B480188A5
:101340000C4800F078FC08480088B0F5167F03D1FF
:1013500000200549088000E0C4E700BF08BD000088
:10136000F44D000800080040040000202000002088
:10137000220000200004004038B5FFF7E5FA4621BE
:10138000394800F058FC4621374800F056FCE1216E
:10139000354800F054FCE121334800F052FC60E095
:1013A00032480088401C3149088008460088B0F562
:1013B000487F09D12E4840231A4600210090202062
:1013C000FFF7E4FBFFF760FC28480088B0F5C86F22
:1013D0000CD1284840231A46002100902020FFF716
:1013E000D5FBFFF751FC00202049088022480088E7
:1013F000401C21490880012001F02EFA1F48008876
:101400001F49098808441D49088008460088B0F52E
:10141000964F07DB4FF4964008804FF0FF30184995
:1014200008800BE015480088B0F5965F06DC4FF4A5
:101430009650124908800120114908800F48008801
:10144000502190FBF1F084B221460E4800F0F3FBEE
:1014500009480088B0F5167F03D1002006490880AE
:1014600000E09DE700BF38BD0008004008000020F4
:10147000F45B0008F45D0008040000201C0000205C
:101480001E0000200004004038B543E0012001F0B8
:10149000E3F93D4800883D490978401A3A490880F7
:1014A000084600880A2190FBF1F084B221463848B2
:1014B00000F0C5FB344800880A2190FBF1F084B2AB
:1014C0002146334800F0BDFB324800883249097894
:1014D000084430490880084600880A2190FBF1F052
:1014E00084B221462A4800F0A6FB2A4800880A2137
:1014F00090FBF1F084B22146254800F09EFB254880
:10150000008840F2DC51884204DB1F480088884292
:1015100000DC00E0BAE700BF204840231A46002163
:1015200000902020FFF732FBFFF7AEFB6421184844
:1015300000F081FBF021164800F081FB6421144883
:1015400000F07BFB7821124800F07BFBC82001F003
:1015500083F996210E4800F06EFB96210C4800F0AE
:101560006EFB96210A4800F068FB9621084800F0BF
:1015700068FB0B4840238022002100900846FFF7BB
:1015800005FBFFF781FB38BD0A0000200E0000209C
:10159000000800400C0000200F000020F455000857
:1015A000F42D000808B52C4840238022002100902B
:1015B0000846FFF7EBFAFFF767FB9621274800F094
:1015C0003AFB9621254800F038FB9621234800F08D
:1015D00036FB9621214800F034FB39E02048008892
:1015E000401C1F490880012001F036F91D48008881
:1015F0001D49098808441B49088008460088FA28C4
:1016000006DBFA2008804FF0FF301749088009E018
:1016100014480088322805DC322012490880012055
:10162000114908800E49088800EBD0714910A0EBE1
:10163000410121B90B4801880C4800F0FCFA084828
:101640000088B0F5167F03D100200549088000E02E
:10165000C4E700BF08BD0000F42D000800080040EA
:1016600004000020100000201200002000040040B0
:101670007047000010B51348006840F001001149A0
:10168000086008464068104908400E49486008460E
:1016900000680E4908400B4908600846006820F4BD
:1016A000802008600846406820F4FE0048604FF43F
:1016B0001F008860FFF785FD4FF000600449086057
:1016C00010BD0000001002400000FFF8FFFFF6FE12
:1016D00008ED00E030B589B005460C460121022036
:1016E000FFF7D2FB01210520FFF7DEFB4020ADF81C
:1016F000200018208DF8230003208DF8220008A96F
:101700001348FEF7E5FEADF81850ADF81440002080
:10171000ADF81A00ADF8160005A90E4800F094FACD
:101720006020ADF804000120ADF806000020ADF8FF
:101730000C0001A9074800F023F90821054800F032
:101740006BF90121034800F00FF909B030BD00002A
:10175000000801400004004030B589B005460C4641
:1017600001210420FFF790FB01210920FFF79CFBDA
:101770004020ADF8200018208DF8230003208DF8BC
:10178000220008A91348FEF7A3FEADF81850ADF8E3
:1017900014400020ADF81A00ADF8160005A90E4857
:1017A00000F052FA6020ADF804000120ADF8060008
:1017B0000020ADF80C0001A9074800F0E1F808216D
:1017C000054800F029F90121034800F0CDF809B0DF
:1017D00030BD0000000C01400008004030B589B069
:1017E00005460C4601210420FFF74EFB012109208C
:1017F000FFF75AFB4FF40070ADF8200018208DF869
:10180000230003208DF8220008A91348FEF760FE8C
:10181000ADF81850ADF814400020ADF81A00ADF83E
:10182000160005A90D4800F00FFA6020ADF804007D
:101830000120ADF806000020ADF80C0001A9074812
:1018400000F0F4F80821054800F042F901210348AE
:1018500000F08AF809B030BD000C014000080040DB
:1018600030B589B005460C4601210420FFF70CFB7A
:1018700001210920FFF718FB4FF48070ADF820001C
:1018800018208DF8230003208DF8220008A91348A2
:10189000FEF71EFEADF81850ADF814400020ADF86C
:1018A0001A00ADF8160005A90D4800F0CDF960202A
:1018B000ADF804000120ADF806000020ADF80C00E2
:1018C00001A9074800F012F90821054800F05EF967
:1018D0000121034800F048F809B030BD000C014078
:1018E0000008004030B589B005460C4601210420AF
:1018F000FFF7CAFA01210920FFF7D6FA8020ADF8D8
:10190000200018208DF8230003208DF8220008A95C
:101910001348FEF7DDFDADF81850ADF81440002077
:10192000ADF81A00ADF8160005A90E4800F08CF9C4
:101930006020ADF804000120ADF806000020ADF8ED
:101940000C0001A9074800F02BF90821054800F018
:1019500065F90121034800F007F809B030BD000027
:10196000000C01400008004021B1028842F0010251
:10197000028004E002884FF6FE731A40028070472E
:1019800070B5002400220023058C4FF6FE7635400A
:101990000584028C8388048B4FF68F752C40B51E0E
:1019A0002C400D882C43751E2A400D892A434D88F2
:1019B0002A43144DA8420BD0134DA84208D0134D12
:1019C000A84205D0124DA84202D0124DA84213D110
:1019D0004FF6F7752A404D892A434FF6FB752A408A
:1019E0008D882A434FF6FF652B404FF6FF552B405D
:1019F0008D892B43CD892B4383800483CD888586B5
:101A0000028470BD002C01400034014000400140C0
:101A100000440140004801400A460021018B4FF676
:101A2000F7731940114301837047000070B500241B
:101A300000220023058C4FF6EF7635400584028C9A
:101A40008388048B48F6FF752C404FF6FF452C40E9
:101A50000D884FF6FF7606EA05252C434FF6DF7515
:101A60002A400D8906EA05152A434D8806EA051520
:101A70002A43154DA84202D0144DA8421DD14FF65D
:101A80007F752A404D894FF6FF7606EA05152A43F1
:101A90004FF6BF752A408D8806EA05152A434FF692
:101AA000FF352B404FF2FF752B408D8906EA8505E7
:101AB0002B43CD8906EA85052B4383800483CD889B
:101AC0000587028470BD0000002C014000340140F5
:101AD0000A460021018B4FF2FF7319404FF6FF7346
:101AE00003EA0223194301837047000070B5002404
:101AF00000220023058C4FF6FF6635400584028CDA
:101B00008388848B4FF68F752C404FF6FC752C40E4
:101B10000D882C434FF6FF552A400D894FF6FF766E
:101B200006EA05252A434D8806EA05252A43154D70
:101B3000A84202D0144DA8421DD14FF2FF752A4091
:101B40004D894FF6FF7606EA05252A434FF6FF3505
:101B50002A408D8806EA05252A434EF6FF752B405C
:101B60004DF6FF752B408D8906EA05152B43CD896F
:101B700006EA05152B4383808483CD8885870284FC
:101B800070BD0000002C0140003401400A460021D5
:101B9000818B4FF6F7731940114381837047000022
:101BA00070B5002200230024058C4EF6FF763540E8
:101BB0000584038C8488828B48F6FF752A404FF693
:101BC000FF452A400D884FF6FF7606EA05252A4391
:101BD0004DF6FF752B400D8906EA05352B434D88E0
:101BE00006EA05352B430B4DA84202D00A4DA84208
:101BF00008D14BF6FF752C408D894FF6FF7606EA2B
:101C000085152C4384808283CD88A0F840500384BE
:101C100070BD0000002C0140003401400A46002144
:101C2000818B4FF2FF7319404FF6FF7303EA0223D3
:101C30001943818370478186704701877047818788
:101C40007047A0F840107047002202881D4B984250
:101C50000ED01D4B98420BD0B0F1804F08D01B4BDB
:101C6000984205D01A4B984202D01A4B984204D1A0
:101C70004FF68F731A404B881A43174B984207D080
:101C8000164B984204D04FF6FF431A40CB881A43B4
:101C900002808B8883850B8803850A4B98420BD082
:101CA000094B984208D00E4B984205D00D4B9842F4
:101CB00002D00D4B984201D10B7A03860123838217
:101CC00070470000002C0140003401400004004037
:101CD00000080040000C00400010004000140040CC
:101CE00000400140004401400048014010B540F26E
:101CF0002551144800F083FAB8B1124800F03AFBBD
:101D00001149124A1268885410480068401C0F4953
:101D1000086008460068802813DB00200C49086032
:101D20000C490860094908600BE040F2244105486D
:101D300000F065FA28B1034800F01CFB01200449BB
:101D4000086010BD003801407404002054000020D9
:101D50005C0000205800002010B586B00446012128
:101D600044F20500FFF7A0F818208DF817004FF493
:101D70000070ADF8140003208DF8160005A91F4867
:101D8000FEF7A6FB04208DF817000002ADF8140042
:101D900005A91A48FEF79CFB01940020ADF810003D
:101DA0000C20ADF80E000020ADF80C00ADF80A00D4
:101DB000ADF8080001A9124800F070FA25208DF84E
:101DC000000001208DF8030002208DF801008DF83D
:101DD00002006846FEF776FD012240F225510848D0
:101DE00000F037FA012240F22441054800F031FAB0
:101DF0000121034800F0EAF906B010BD00080140D7
:101E00000038014010B540F22551484800F0F7F97C
:101E100000287DD04648006808B9012000E0002075
:101E200043490860414800F0A5FA42490880084645
:101E30000088312802D101203F4908603D480088D0
:101E4000322802D102203C4908603A4800883328F1
:101E500002D103203849086036480088342802D16E
:101E600004203549086033480088352802D1052010
:101E7000314908602F480088362802D106202E49B3
:101E800008602C480088372802D107202A490860BA
:101E900028480088382802D10820274908602548AA
:101EA0000088392802D10920234908602148008888
:101EB000612802D10A20204908601E480088622853
:101EC00002D10B201C4908601A480088632802D1FF
:101ED0000C201949086017480088642802D10D2099
:101EE0001549086013480088652802D10E20124960
:101EF000086010480088662804D100BF00200C4903
:101F0000086000BF0B480088672806D100BF00E0CA
:101F10000AE001200649086000BF064800886828DA
:101F200002D101200449086010BD000000440040B7
:101F3000B4012242440000200000002010B586B009
:101F4000044601210420FEF7AFFF01214804FEF7FB
:101F50009BFF18208DF817000420ADF81400032013
:101F60008DF8160005A91E48FEF7B2FA04208DF878
:101F700017000820ADF8140003208DF8160005A9FD
:101F80001748FEF7A5FA01940020ADF808000C20D0
:101F9000ADF80E000020ADF80C00ADF80A00ADF869
:101FA000100001A90F4800F079F926208DF80000F3
:101FB00001208DF8030000208DF801008DF802004B
:101FC0006846FEF77FFC012240F22551054800F0EB
:101FD00040F90121034800F0F9F806B010BD0000F7
:101FE000000801400044004010B540F22551474828
:101FF00000F005F900287DD04548006808B90120A7
:1020000000E0002042490860404800F0B3F941492F
:10201000087008460078492806D101203E4908602A
:1020200041213E4800F0B2F93A480078472806D1ED
:102030000220394908604221384800F0A7F93548A4
:1020400000784B2806D103203349086043213348E8
:1020500000F09CF92F480078482806D104202E492A
:10206000086044212D4800F091F92A4800784A2858
:1020700006D10520284908604521284800F086F946
:1020800024480078412806D10C20234908604621C5
:10209000224800F07BF91F480078422806D106202C
:1020A0001D49086047211D4800F070F91948007863
:1020B000462806D10720184908604821174800F033
:1020C00065F9144800784C2806D1082012490860A8
:1020D0004921124800F05AF90E4800784D2806D1DF
:1020E0000B200D4908604A210C4800F04FF90948BF
:1020F000007800E008E05B2806D10F200649086060
:102100005B21064800F042F910BD00000048004085
:10211000B40122424600002000000020004400409C
:1021200010B586B0044601210820FEF7BDFE01214E
:102130008804FEF7A9FE18208DF817004FF4806080
:10214000ADF8140003208DF8160005A91D48FEF710
:10215000BFF904208DF817004002ADF814000320E9
:102160008DF8160005A91748FEF7B2F90194002072
:10217000ADF808000C20ADF80E000020ADF80C0002
:10218000ADF80A00ADF8100001A90F4800F086F87C
:1021900027208DF8000001208DF8030003208DF822
:1021A00001008DF802006846FEF78CFB012240F228
:1021B0002551054800F04DF80121034800F006F8CC
:1021C00006B010BD000C01400048004021B18289DA
:1021D00042F40052828104E082894DF6FF731A4076
:1021E0008281704702460020B1F5007F00D100BF18
:1021F00013880B400BB1012000E00020704770B540
:102200000246002400230025002040F66A16B14251
:1022100000D100BFC1F3421501F01F03012606FAE9
:1022200003F3012D02D19689334006E0022D02D13D
:10223000168A334001E0968A33400C12012606FAD2
:1022400004F41688344013B10CB1012000E00020E2
:1022500070BDF0B50346002400260025002040F69E
:102260006A17B94200D100BF1846C1F3421401F009
:102270001F06012707FA06F5012C01D10C3004E0F6
:10228000022C01D1103000E014301AB107682F433E
:10229000076002E00768AF430760F0BD2DE9F04733
:1022A00086B005460E460024A24600BFA146002780
:1022B000B08900B100BF2F462C8A4CF6FF70044055
:1022C000F08804432C82AC894EF6F3100440B088A9
:1022D00031890843718908430443AC81AC8A4FF6C5
:1022E000FF400440B0890443AC8201A8FEF7ECFD36
:1022F0001F48874202D1DDF810A001E0DDF80CA0F4
:10230000A88900F4004040B10AEBCA0000EB0A10B3
:1023100031684900B0FBF1F807E00AEBCA0000EBB6
:102320000A1031688900B0FBF1F86420B8FBF0F0C6
:1023300004012009642101FB1089A88900F40040F0
:1023400040B1322000EBC900B0FBF1F000F0070013
:10235000044308E0322000EB09106421B0FBF1F0E7
:1023600000F00F0004432C8106B0BDE8F0870000A8
:102370000038014001468888C0F308007047C1F367
:1023800008028280704700BFFEE7000070B5044677
:102390000D4629462046FFF7F2FF00BF8021204668
:1023A000FFF720FF0028F9D00448006808B9012091
:1023B00000E000200149086070BD0000B401224225
:1023C00008B5FEF7C1FA96213948FFF734FC96218B
:1023D0003748FFF732FC96213548FFF730FC96214D
:1023E0003348FFF72EFC5FE032480088401C31493B
:1023F000088008460088B0F5C87F09D12E484023E0
:102400001A46002100902020FEF7C0FBFEF73CFC9E
:1024100028480088B0F5487F0CD1284840231A4648
:10242000002100902020FEF7B1FBFEF72DFC0020DC
:102430002049088022480088401C2149088001204A
:1024400000F00AFA1F4800881F49098808441D49FE
:10245000088008460088FA2806DBFA2008804FF03A
:10246000FF301949088009E016480088322805DC49
:102470003220144908800120134908801049088837
:1024800000EBD0714910A0EB410121B90D48018842
:102490000E48FFF7D0FB0A480088B0F5167F03D13D
:1024A00000200749088000E09EE700BF08BD00004B
:1024B0000008004008000020F4570008F459000804
:1024C00004000020400000204200002000040040E2
:1024D00008B5DC4840238022002100900846FEF722
:1024E00055FBFEF7D1FBA9E1D7480088401CD6492F
:1024F0000880012000F0B0F9D4480088D449098848
:102500000844D249088008460088FA2806DBFA20E9
:1025100008804FF0FF30CE49088009E0CB480088A2
:10252000322805DC3220C94908800120C8490880CA
:10253000C549088800EBD0714910A0EB410121B9D1
:10254000C2480188C348FFF776FBBF48008832289D
:1025500013D101225A219620FDF724FF02225A218D
:102560009620FDF71FFF03225A219620FDF71AFF40
:1025700004225A219620FDF715FFB3480088C82889
:1025800013D1012296215A20FDF70CFF0222962139
:102590005A20FDF707FF032296215A20FDF702FF7C
:1025A000042296215A20FDF7FDFEA7480088B0F5C9
:1025B000AF7F13D10122D2219620FDF7F3FE022234
:1025C000D2219620FDF7EEFE0322D2219620FDF7C0
:1025D000E9FE0422D2219620FDF7E4FE9A48008805
:1025E000B0F5FA7F13D101229621D220FDF7DAFE51
:1025F00002229621D220FDF7D5FE03229621D22079
:10260000FDF7D0FE04229621D220FDF7CBFE8E48A6
:10261000008840F28A21884213D101226921962044
:10262000FDF7C0FE0222C3219620FDF7BBFE032268
:10263000C3219620FDF7B6FE042269219620FDF7FE
:10264000B1FE81480088B0F5487F13D10122962160
:102650006920FDF7A7FE02229621C320FDF7A2FE06
:1026600003229621C320FDF79DFE042296216920B6
:10267000FDF798FE7448008840F2B631884213D1C5
:102680000122C3219620FDF78DFE022269219620AA
:10269000FDF788FE032269219620FDF783FE0422C0
:1026A000C3219620FDF77EFE6748008840F24C412A
:1026B000884213D101229621C320FDF773FE022226
:1026C00096216920FDF76EFE032296216920FDF711
:1026D00069FE04229621C320FDF764FE5A48008853
:1026E00040F2E241884213D10122C3219620FDF736
:1026F00059FE022269219620FDF754FE032269212A
:102700009620FDF74FFE0422C3219620FDF74AFED6
:102710004D480088B0F5AF6F13D101229621C32038
:10272000FDF740FE022296216920FDF73BFE0322C1
:1027300096216920FDF736FE04229621C320FDF77D
:1027400031FE4148008840F20E61884213D10122D7
:1027500069219620FDF726FE0222C3219620FDF76F
:1027600021FE0322C3219620FDF71CFE04226921CD
:102770009620FDF717FE3448008840F2A461884295
:1027800013D1012296216920FDF70CFE0222962129
:10279000C320FDF707FE03229621C320FDF702FEAA
:1027A000042296216920FDF7FDFD2748008840F2AC
:1027B0003A71884209D101225A219620FDF7F2FD93
:1027C00002225A219620FDF7EDFD1F480088B0F542
:1027D000FA6F09D1012296215A20FDF7E3FD02226A
:1027E00096215A20FDF7DEFD1748008840F6660165
:1027F000884209D10322D2219620FDF7D3FD04227D
:10280000D2219620FDF7CEFD0F48008840F6FC014E
:10281000884209D103229621D220FDF7C3FD04226C
:102820009621D220FDF7BEFD0748008840F62E1104
:10283000884203DB00200449088000E054E600BF22
:1028400008BD0000F431000804000020380000201A
:102850003A0000200004004030B52E4B1B68434373
:102860006FF07F44B3FBF4F22A4B1B684343B3FB86
:10287000F4F504FB153100234FF0E024A3616FF061
:102880007F43636123461B6923F0011323610AB36D
:1028900023461B6943F0010323610FE000BF4FF0A3
:1028A000E0231B6903F48033002BF8D04FF0E023C2
:1028B0001B6923F480334FF0E0242361131EA2F13F
:1028C0000102EBD14FF0E0231B6923F001034FF02D
:1028D000E0242361C1B14FF0E02359611B6943F04B
:1028E00001034FF0E024236100BF4FF0E0231B6998
:1028F00003F48033002BF8D04FF0E0231B6923F062
:1029000001134FF0E024236100234FF0E0246361C2
:10291000A36130BD4C00002030B52F4B1B684343F2
:102920006FF07F44B3FBF4F22B4B1B684343B3FBC4
:10293000F4F504FB153100234FF0E024A361264B8E
:102940001B684343636123461B6923F00113236122
:102950000AB323461B6943F0010323610FE000BF64
:102960004FF0E0231B6903F48033002BF8D04FF0C5
:10297000E0231B6923F480334FF0E0242361131E0E
:10298000A2F10102EBD14FF0E0231B6923F0010318
:102990004FF0E0242361C1B14FF0E02359611B697E
:1029A00043F001034FF0E024236100BF4FF0E02328
:1029B0001B6903F48033002BF8D04FF0E0231B6930
:1029C00023F001134FF0E024236100234FF0E024B3
:1029D0006361A36130BD00005000002008B52E489F
:1029E00040238022002100900846FEF7CFF8FEF732
:1029F0004BF978212948FFF71EF978212748FFF77E
:102A00001CF9B4212548FFF71AF9B4212348FFF730
:102A100018F93DE022480088401C21490880012027
:102A2000FFF71AFF96211F48FFF705F91C48008899
:102A3000C8280FD1BE211948FFF7FDF846211748D5
:102A4000FFF7FBF86E211548FFF7F9F8E621134868
:102A5000FFF7F7F812480088B0F5C87F0FD178214A
:102A60000E48FFF7E8F878210C48FFF7E6F8B421A4
:102A70000A48FFF7E4F8B4210848FFF7E2F80848ED
:102A80000088B0F5167F03D100200549088000E0DA
:102A9000C0E700BF08BD0000F46100080008004066
:102AA000040000200004004008B52C484023802288
:102AB000002100900846FEF769F8FEF7E5F832219C
:102AC0002748FFF7B8F8BE212548FFF7B6F8FA21E6
:102AD0002348FFF7B4F86E212148FFF7B2F839E038
:102AE00020480088401C1F4908800120FFF7B4FEE1
:102AF0001D4800881D49098808441B49088008466C
:102B00000088FA2806DBFA2008804FF0FF301749CA
:102B1000088009E014480088322805DC3220124978
:102B200008800120114908800E49088800EBD07107
:102B30004910A0EB410121B90B4801880C48FFF76F
:102B40007AF808480088B0F5167F03D100200549BF
:102B5000088000E0C4E700BF08BD0000F451000891
:102B600000080040040000203C0000203E0000203F
:102B70000004004008B54FF4A060FDF7DBFE042020
:102B800000F016F9FDF7F0FD4FF4E130FFF7E4F83F
:102B90004FF4E130FFF7D2F94FF41650FFF7C0FAC7
:102BA000FDF796FFFDF7D0FE40F2CF2140F2CF7047
:102BB000FEF7D2FD40F2CF2140F2CF70FEF70EFEBD
:102BC00040F2CF2140F2CF70FEF74AFE40F2CF2113
:102BD00040F2CF70FEF786FE40F2CF2140F2CF7078
:102BE000FEF778FD3D4840231A4600210090202042
:102BF000FDF7CCFFFEF748F8FEF7BEFBFEF744FCFE
:102C00006AE037480068012802D1FEF7CBFC60E09B
:102C100033480068022802D1FDF714FB59E0304820
:102C20000068032802D1FEF783F852E02C480068C0
:102C3000042802D1FDF7B4FD4BE0294800680528BF
:102C400002D1FEF7ABF944E025480068062802D11E
:102C5000FDF7D0FC3DE022480068072802D1FEF7CE
:102C600025FB36E01E480068082802D1FEF784FBE9
:102C70002FE01B480068092802D1FEF71DFA28E062
:102C8000174800680A2802D1FFF722FC21E0144807
:102C900000680B2802D1FFF707FF1AE01048006810
:102CA0000C2802D1FFF79AFE13E00D4800680D28AA
:102CB00002D100F017F80CE0094800680E2802D194
:102CC000FFF77EFB05E0064800680F2801D1FDF7FD
:102CD00009FD0A20FFF7C0FD93E70000F45D00083E
:102CE0000000002008B52C484023802200210090DD
:102CF0000846FDF74BFFFDF7C7FF4B212748FEF7BE
:102D00009AFF4B212548FEF798FF96212348FEF7AE
:102D100096FF96212148FEF794FF39E0204800886D
:102D2000401C1F4908800120FFF796FD1D480088C0
:102D30001D49098808441B49088008460088FA286C
:102D400006DBFA2008804FF0FF301749088009E0C1
:102D500014480088322805DC3220124908800120FE
:102D6000114908800E49088800EBD0714910A0EB8A
:102D7000410121B90B4801880C48FEF75CFF084867
:102D80000088B0F5167F03D100200549088000E0D7
:102D9000C4E700BF08BD0000F44D00080008004073
:102DA0000400002034000020360000200004004011
:102DB00042F228310C4A116009210C4A11600021AD
:102DC0004FF0E02211615161916104280AD111464E
:102DD000096941F0040111610549034A1160482164
:102DE000024A1160704700004C0000205000002093
:102DF0004019010000000000000000000000000079
:102E000000000000000000000000000000000000C2
:102E100000000000000000000000000000000000B2
:102E200000000000000000000000000000000000A2
:102E30000000000000000000000000000000000092
:102E40000000000000000000000000000000000082
:102E50000000000000000000000000000000000072
:102E60000000000000000000000000000000000062
:102E70000000000000000000000000000000000052
:102E80000000000000000000000000000000000042
:102E900000008080800000000000000000000000B2
:102EA0000000000000000000000000000000000022
:102EB0000000000000000000000000000000000012
:102EC0000000000000000000000000000000000002
:102ED0000000000080808000000000000000000072
:102EE00000000000000000000000000000000000E2
:102EF00000000000000000000000000000000000D2
:102F000000000000000000000000000000F0F8FEDB
:102F1000FFFFFFFFFFFFFFFEF8F0000000000000D2
:102F200000000000000000000000000000000000A1
:102F30000000000000000000000000000000000091
:102F4000000000000000000000000000000000F091
:102F5000F8FEFFFFFFFFFFFFFFFEF8F0000000009C
:102F60000000000000000000000000000000000061
:102F70000000000000000000000000000000000051
:102F800000000000000000000000000000FFFFFF44
:102F9000FFFFFFFFFFFFFFFFFFFF0000000000003B
:102FA0000000000000000000000000000000000021
:102FB0000000000000000000000000000000000011
:102FC000000000000000000000000000000000FF02
:102FD000FFFFFFFFFFFFFFFFFFFFFFFF00000000FD
:102FE00000000000000000000000000000000000E1
:102FF00000000000000000000000000000000000D1
:1030000000000000000000000000000000FFFFFFC3
:10301000FFFFFFFFFFFFFFFFFFFF000000000000BA
:1030200000000000000000000000000000000000A0
:103030000000000000000000000000000000000090
:10304000000000000000000000000000000000FF81
:10305000FFFFFFFFFFFFFFFFFFFFFFFF000000007C
:103060000000000000000000000000000000000060
:103070000000000000000000000000000000000050
:10308000000000000000000000000000001F3FFFE3
:10309000FFFFFFFFFFFFFFFF3F1F000000000000DA
:1030A0000000000000000000000000000000000020
:1030B0000000000000000000000000000000000010
:1030C0000000000000000000000000000000001FE1
:1030D0003FFFFFFFFFFFFFFFFFFF3F1F000000005C
:1030E00000000000000000000000000000000000E0
:1030F00000000000000000000000000000000000D0
:1031000000000000000000000000000000000000BF
:1031100001010303030101000000000000000000A2
:10312000000000000000000000000000000000009F
:10313000000000000000000000000000000000008F
:10314000000000000000000000000000000000007F
:103150000000010103030301010000000000000062
:10316000000000000000000000000000000000005F
:10317000000000000000000000000000000000004F
:10318000000000000000000000000000000000003F
:10319000000000000000000000000000000000002F
:1031A000000000000000000000000000000000001F
:1031B000000000000000000000000000000000000F
:1031C00000000000000000000000000000000000FF
:1031D00000000000000000000000000000000000EF
:1031E00000000000000000000000000000000000DF
:1031F00000000000000000000000000000000000CF
:1032000000000000000000000000000000000000BE
:1032100000000000000000000000000000000000AE
:10322000000000000000000000000000000000009E
:10323000000000000000000000000000000000008E
:10324000000000000000000000000000000000007E
:10325000000000000000000000000000000000006E
:10326000000000000000000000000000000000005E
:10327000000000000000000000000000000000004E
:10328000000000000000000000000000000000003E
:10329000000000000000000000000000000000002E
:1032A000000000000000000000000000000000001E
:1032B000000000000000000000000000000000000E
:1032C00000000000000000000000000000000000FE
:1032D00000000000000000000000000000000000EE
:1032E00000000000000000000000000000000000DE
:1032F00000000000000000000000000000000000CE
:10330000000000000000FFFFFEFEFCFCF8F8F0F0FB
:10331000E0E0C0C08080000000000000000000006D
:10332000000000000000000000000000000000009D
:10333000000000000000000000000000000000008D
:10334000000000000000000000000000000000007D
:10335000000000008080C0C0E0E0F0F0F8F8FCFC65
:10336000FEFEFF0000000000000000000000000062
:10337000000000000000000000000000000000004D
:103380000000000000000000010101030307070F17
:103390000F1F1F1F3F3F7F7FFEFEFEFCFCF8F8F073
:1033A000F0E0E0C0000000000000000000000000AD
:1033B000000000000000000000000000000000000D
:1033C000000000000000C0C0E0E0F0F0F8F8FCFCF5
:1033D000FEFE7F7F3F3F3F1F1F0F0F0707030303C3
:1033E00001010000000000000000000000000000DB
:1033F00000000000000000000000000000000000CD
:1034000000000000000000000000808080C0C0E0DC
:10341000E0F0F0F0F8F8FCFCFCFEFF7F7F3F3F1F80
:103420001F0F0F0700000000000000000000000058
:10343000000000000000000000000000000000008C
:103440000000000000000F0F1F1F3F3F7F7FFFFFA6
:10345000FCFCFCF8F8F0F0E0E0E0C0C08080800008
:10346000000000000000000000000000000000005C
:10347000000000000000000000000000000000004C
:10348000000000000000FEFEFF7F7F7F3F3F1F1F08
:103490000F0F0707030301010100000000000000F7
:1034A000000000000000000000000000000000001C
:1034B000000000000000000000000000000000000C
:1034C00000000000000000000000000000000000FC
:1034D000010103030307070F0F1F1F3F3F7F7FFFFC
:1034E000FFFEFE00000000000000000000000000E1
:1034F00000000000000000000000000000000000CC
:1035000000000000000001000000000000000000BA
:1035100000000000000000000000000000000000AB
:10352000000000000000000000000000000000009B
:10353000000000000000000000000000000000008B
:10354000000000000000000000000000000000007B
:10355000000000000000000000000000000000006B
:10356000000001000000000000000000000000005A
:10357000000000000000000000000000000000004B
:10358000000000000000000000000000000000003B
:10359000000000000000000000000000000000002B
:1035A000000000000000000000000000000000001B
:1035B000000000000000000000000000000000000B
:1035C00000000000000000000000000000000000FB
:1035D00000000000000000000000000000000000EB
:1035E00000000000000000000000000000000000DB
:1035F00000000000000000000000000000000000CB
:1036000000000000000000000000000000000000BA
:1036100000000000000000000000000000000000AA
:10362000000000000000000000000000000000009A
:10363000000000000000000000000000000000008A
:10364000000000000000000000000000000000007A
:10365000000000000000000000000000000000006A
:10366000000000000000000000000000000000005A
:10367000000000000000000000000000000000004A
:10368000000000008080C0C0C0800000000000007A
:10369000000000000000000000000000000000002A
:1036A000000000000000000000000000000000001A
:1036B000000000000000000000000000000000000A
:1036C000000000008080C0C0C0800000000000003A
:1036D00000000000000000000000000000000000EA
:1036E00000000000000000000000000000000000DA
:1036F00000000000000000000000000000000000CA
:1037000000E0FFFFFFFFFFFFFFFFFE0000000000E3
:1037100000000000000000000000000000000000A9
:103720000000000000000000000000000000000099
:103730000000000000000000000000000000000089
:1037400000E0FFFFFFFFFFFFFFFFFE0000000000A3
:103750000000000000000000000000000000000069
:103760000000000000000000000000000000000059
:103770000000000000000000000000000000000049
:10378000FFFFFFFFFFFFFFFFFFFFFF000000000044
:103790000000000000000000000000000000000029
:1037A0000000000000000000000000000000000019
:1037B0000000000000000000000000000000000009
:1037C000FFFFFFFFFFFFFFFFFFFFFF000000000004
:1037D00000000000000000000000000000000000E9
:1037E00000000000000000000000000000000000D9
:1037F00000000000000000000000000000000000C9
:10380000FFFFFFFFFFFFFFFFFFFFFF0000000000C3
:1038100000000000000000000000000000000000A8
:103820000000000000000000000000000000000098
:103830000000000000000000000000000000000088
:10384000FFFFFFFFFFFFFFFFFFFFFF000000000083
:103850000000000000000000000000000000000068
:103860000000000000000000000000000000000058
:103870000000000000000000000000000000000048
:103880000007FFFFFFFFFFFFFFFF7F0000000000BA
:103890000000000000000000000000000000000028
:1038A0000000000000000000000000000000000018
:1038B0000000000000000000000000000000000008
:1038C0000007FFFFFFFFFFFFFFFF7F00000000007A
:1038D00000000000000000000000000000000000E8
:1038E00000000000000000000000000000000000D8
:1038F00000000000000000000000000000000000C8
:1039000000000000010103030301000000000000AB
:1039100000000000000000000000000000000000A7
:103920000000000000000000000000000000000097
:103930000000000000000000000000000000000087
:10394000000000000101030303010000000000006B
:103950000000000000000000000000000000000067
:103960000000000000000000000000000000000057
:103970000000000000000000000000000000000047
:103980000000000000000000000000000000000037
:103990000000000000000000000000000000000027
:1039A0000000000000000000000000000000000017
:1039B0000000000000000000000000000000000007
:1039C00000000000000000000000000000000000F7
:1039D00000000000000000000000000000000000E7
:1039E00000000000000000000000000000000000D7
:1039F00000000000000000000000000000000000C7
:103A000000000000000000000000000000000000B6
:103A100000000000000000000000000000000000A6
:103A20000000000000000000000000000000000096
:103A30000000000000000000000000000000000086
:103A40000000000000000000000000000000000076
:103A50000000000000000000000000000000000066
:103A60000000000000000000000000000000000056
:103A70000000000000000000000000000000000046
:103A80000000000000000000000000000000000036
:103A9000000000000000000000000000000080C0E6
:103AA000C0C0808000000000000000000000000096
:103AB0000000000000000000000000000000000006
:103AC00000000000000000000000000000000000F6
:103AD000000000000000000000000000000080C0A6
:103AE000C0C0808000000000000000000000000056
:103AF00000000000000000000000000000000000C6
:103B000000000000000000000000000000000000B5
:103B100000000000000000000000000000FEFFFFA9
:103B2000FFFFFFFFFFFFE0000000000000000000BB
:103B30000000000000000000000000000000000085
:103B40000000000000000000000000000000000075
:103B500000000000000000000000000000FEFFFF69
:103B6000FFFFFFFFFFFFE00000000000000000007B
:103B70000000000000000000000000000000000045
:103B80000000000000000000000000000000000035
:103B900000000000000000000000000000FFFFFF28
:103BA000FFFFFFFFFFFFFFFF00000000000000001D
:103BB0000000000000000000000000000000000005
:103BC00000000000000000000000000000000000F5
:103BD00000000000000000000000000000FFFFFFE8
:103BE000FFFFFFFFFFFFFFFF0000000000000000DD
:103BF00000000000000000000000000000000000C5
:103C000000000000000000000000000000000000B4
:103C100000000000000000000000000000FFFFFFA7
:103C2000FFFFFFFFFFFFFFFF00000000000000009C
:103C30000000000000000000000000000000000084
:103C40000000000000000000000000000000000074
:103C500000000000000000000000000000FFFFFF67
:103C6000FFFFFFFFFFFFFFFF00000000000000005C
:103C70000000000000000000000000000000000044
:103C80000000000000000000000000000000000034
:103C9000000000000000000000000000007FFFFFA7
:103CA000FFFFFFFFFFFF0700000000000000000013
:103CB0000000000000000000000000000000000004
:103CC00000000000000000000000000000000000F4
:103CD000000000000000000000000000007FFFFF67
:103CE000FFFFFFFFFFFF07000000000000000000D3
:103CF00000000000000000000000000000000000C4
:103D000000000000000000000000000000000000B3
:103D1000000000000000000000000000000001039F
:103D2000030301010000000000000000000000008B
:103D30000000000000000000000000000000000083
:103D40000000000000000000000000000000000073
:103D5000000000000000000000000000000001035F
:103D6000030301010000000000000000000000004B
:103D70000000000000000000000000000000000043
:103D80000000000000000000000000000000000033
:103D90000000000000000000000000000000000023
:103DA0000000000000000000000000000000000013
:103DB0000000000000000000000000000000000003
:103DC00000000000000000000000000000000000F3
:103DD00000000000000000000000000000000000E3
:103DE00000000000000000000000000000000000D3
:103DF00000000000000000000000000000000000C3
:103E000000000000000000000000000000000000B2
:103E100000000000000000000000000000000000A2
:103E20000000000000000000000000000000000092
:103E30000000000000000000000000000000000082
:103E40000000000000000000000000000000000072
:103E50000000000000000000000000000000000062
:103E60000000000000000000000000000000000052
:103E70000000000000000000000000000000000042
:103E80000000000000000000000000000000000032
:103E90000000000000000000000000000000000022
:103EA0000000000000808080000000000000000092
:103EB0000000000000000000000000000000000002
:103EC00080800000000000000000000000000000F2
:103ED00000000000000000000000000000000000E2
:103EE00000000000000000000000000000000000D2
:103EF00000000000000000000000000000000000C2
:103F00000000000000000000000000C0C080800031
:103F100000000000000000000000000000000000A1
:103F200000000000000F7FFFFEF8E0C080000000EE
:103F30000000000000000000000000C0E0F8FEFFEC
:103F40007F1F0E00000000000000000000000000C5
:103F50000000000000000000000000000000000061
:103F60000000000000000000000000000000000051
:103F70000000000000000000000000000000000041
:103F800000000000000000000000000303070F0F06
:103F90003F7F7EFCF0F0E0E0C00000000000000089
:103FA00000000000000000000303070F0F1F3E3C4D
:103FB0007C7870F0F0F078787C3C3F1F0F070301AD
:103FC0000000000000000000000000000080C0C0F1
:103FD000E0F078381C1F0F0F060000000000000002
:103FE00000000000000000000000000000000000D1
:103FF00000000000000000000000000000000000C1
:104000000000000000000080808080808080C0C0B0
:10401000C0C0E0E0E1E3E7EFEFFFFEFCFCF8F8E012
:10402000C0000000000000000000000000000000D0
:104030000000000000000000000000000000000080
:104040000000000040C0E0F0F8FCFEDECFCFC7C3A8
:10405000C1C0C0808080808080808000000000001F
:104060000000000000000000000000000000000050
:104070000000000000000000000000000000000040
:1040800000000000060F07070707070703030301E7
:104090000101018180C0E0F0F87C7F1F1F0F07073E
:1040A0000000000000000000000000000000000010
:1040B0000000000000000000000000000000000000
:1040C00000000000000103070F1F1F7D79F9F3F3C3
:1040D000E3C38383030303070707070707070703F0
:1040E00000000000000000000000000000000000D0
:1040F00000000000000000000000000000000000C0
:1041000000000000000000000080E0E0F078783C53
:104110003E1E1F0F07030301000000000000000007
:10412000000000000000000000000000000000008F
:10413000000000000000000000000000000000007F
:10414000000000000000000000000000000001016D
:10415000030307070F3F3E3C78700000000000009B
:10416000000000000000000000000000000000004F
:10417000000000000000000000000000000000003F
:10418000000000000000000000010101000000002C
:10419000000000000000000000000000000000001F
:1041A000000000000000000000000000000000000F
:1041B00000000000000000000000000000000000FF
:1041C00000000000000000000000000000000000EF
:1044800000000000000000003E3E3C38383838385C
:10449000383838383838383838383838383838389C
:1044A00038383838383C3C3C000000000000000040
:1044B000003C3C3C383838383838383838383838A8
:1044C0003838383838383838383838383838383C68
:1044D0003E3E000000000000000000000000000060
:1044E00000000000000000000000000000000000CC
:1044F00000000000000000000000000000000000BC
:1045000000000000000000000000000000000000AB
:10451000000000000000000000000000000000009B
:10452000000000000000000000000000000000008B
:10453000000000000000000000000000000000007B
:10454000000000000000000000000000000000006B
:10455000000000000000000000000000000000005B
:10456000000000000000000000000000000000004B
:10457000000000000000000000000000000000003B
:10458000000000000000000000000000000000002B
:10459000000000000000000000000000000000001B
:1045A000000000000000000000000000000000000B
:1045B00000000000000000000000000000000000FB
:1045C00000000000000000000000000000000000EB
:1045D00000000000000000000000000000000000DB
:1045E00000000000000000000000000000000000CB
:1045F00000000000000000000000000000000000BB
:1046000000000000000000000000000000000000AA
:10461000000000000000000000000000000000009A
:10462000000000000000000000000000000000008A
:10463000000000000000000000000000000000007A
:10464000000000000000000000000000000000006A
:10465000000000000000000000000000000000005A
:10466000000000000000000000000000000000004A
:10467000000000000000000000000000000000003A
:10468000000000000000000000000000000000002A
:10469000000000000000000000000000000000001A
:1046A00000000000000000000000000000E0F8FC36
:1046B000FEFEFFFFFFFFFFFFFEFEF8F00000000020
:1046C00000000000000000000000000000000000EA
:1046D00000000000000000000000000000000000DA
:1046E00000000000000000000000000000000000CA
:1046F00000000000000000000000000000000000BA
:1047000000000000000000000000000000000000A9
:104710000000000000000000000000000000000099
:104720000000000000000000000000000001071F62
:104730001F3F3F7F7F7F3F3F1F0F070300000000A9
:104740000000000000000000000000000000000069
:104750000000000000000000000000000000000059
:104760000000000000000000000000000000000049
:104770000000000000000000000000000000000039
:104780000000000000000000000000008080C0E089
:10479000E06070707070707070E0E0000000000009
:1047A0000000000000000000000000000000000009
:1047B00000000000000000000000000000000000F9
:1047C0000000000000000000008080C0E0E0F07009
:1047D000707070707060E0E0800000000000000009
:1047E00000000000000000000000000000000000C9
:1047F00000000000000000000000000000000000B9
:10480000000000000000000000F8FCFF3F03010072
:10481000F0F8181C0C8C8C8C0C1C3870E0C000005C
:104820000000000000000000000000000000000088
:104830000000000000000000000000000000000078
:1048400000000000C0F8FCFE0F030381E1F078389F
:104850001C1C9C8C8C0C1C1C3870E0C000000000E0
:104860000000000000000000000000000000000048
:104870000000000000000000000000000000000038
:104880000000000000000000000F3FFFE0C080803B
:10489000878F1E1818191F0F0080E0F87F3F000057
:1048A0000000000000000000000000000000000008
:1048B00000000000000000000000000000000000F8
:1048C000000000003FFF7FE0C08000031F3F3878FA
:1048D000707079793F1F00000080F9FF0E00000022
:1048E00000000000000000000000000000000000C8
:1048F00000000000000000000000000000000000B8
:1049000000000000000000000000000001010103A1
:10491000030707070707070703030100000000005C
:104920000000000000000000000000000000000087
:104930000000000000000000000000000000000077
:10494000000000000000000303070E0E0C0C1C18F2
:104950001818181C0C0C0E0E0703010000000000B4
:104960000000000000000000000000000000000047
:104970000000000000000000000000000000000037
:104980000000000000000000000000000000000027
:104990000000000000000000000000000000000017
:104B800000000000008080808080000000000000A5
:104B90000000000080808000000000000000000095
:104BA0000000000000000000000000000000000005
:104BB00000000000000000000000000000000000F5
:104BC00000000000000000000000000000000000E5
:104BD0000000000000000080808080800000000055
:104BE0000000000000008080800000000000000045
:104BF00000000000000000000000000000000000B5
:104C0000183C3E3F1F0F070707070F1F1F1E3C3CA6
:104C10003C3C3E3F1F0F0703000000000000000067
:104C20000000FCFCFC8C8C8C8C8C8C8C8C8C8C8C8C
:104C30008C8C8C8C8C8C8C8C8C8C8C8C8C8C8C8CB4
:104C40008C8C0C0C0CFCFC00000000000000000030
:104C50000000183C3E3F1F0F070707070F1F1F1ECE
:104C60003C3C3C3C3E3F1F0F07030000000000009F
:104C70000000000000000000000000000000000034
:104C80000000000000000000000000000000000024
:104C90000000000000000000000000000000000014
:104CA00000000101010101010101010101010101F6
:104CB0000101010101010101010101010101017F66
:104CC0007F7F7070707F7F00000000000000000098
:104CD00000000000000000000000000000000000D4
:104CE00000000000000000000000000000000000C4
:104CF00000000000000000000000000000000000B4
:104D000000000000000000000000000000000000A3
:104D10000000000000000000000000000000000093
:104D20000000000000000000000000000000000083
:104D30000000000000000000000000000000000073
:104D40000000000000000000000000000000000063
:104D50000000000000000000000000000000000053
:104D60000000000000000000000000000000000043
:104D70000000000000000000000000000000000033
:104D80000000000000000000000000000000000023
:104D90000000000000000000000000000000000013
:104DA0000000000000000000000000000000000003
:104DB00000000000000000000000000000000000F3
:104DC00000000000000000000000000000000000E3
:104DD00000000000000000000000000000000000D3
:104DE00000000000000000000000000000000000C3
:104DF00000000000000000000000000000000000B3
:104E000000000000000000000000000000000000A2
:104E10000000000000000000000000000000000092
:104E20000000000000000000000000000000000082
:104E30000000000000000000000000000000000072
:104E40000000000000000000000000000000000062
:104E50000000000000000000000000000000000052
:104E60000000000000000000000000000000000042
:104E70000000000000000000000000000000000032
:104E80000000000000000000000000000000000022
:104E90000000000000000000000000000000000012
:104EA000000000000080C0C0E0E0E0E0E0E0E0C022
:104EB00080000000000080C0E0E0E0E0E0E0C0C072
:104EC0008000000000000000000000000000000062
:104ED00000000000000000000000000000000000D2
:104EE00000000000000000000000000000000000C2
:104EF00000000000000000000000000000000000B2
:104F000000000000000000000000000000000000A1
:104F10000000000000000000000000000000000091
:104F20000000007EFFFF830100000000000101037C
:104F30000F7FFEF8FE7F0F030101000000000183D8
:104F4000FFFF7E00000000000000000000000000E5
:104F50000000000000000000000000000000000051
:104F60000000000000000000000000000000000041
:104F70000000000000000000000000000000000031
:104F8000000000000000207070F0E0E0C080000031
:104F90000000000000000000000000000000000011
:104FA00000000000010707030000000000000000EF
:104FB00000000000000000000000000000000307E7
:104FC00007010000000000000000000000000000D9
:104FD000000000000000008080C0E0E0F878383079
:104FE00000000000000000000000000000000000C1
:104FF00000000000000000000000000000000000B1
:10500000000000000000000000000001030307078B
:105010000F0E1C1C3870F0E0C0C0800000000000C3
:105020000000000000000000000000000000000080
:105030000000000000000000000000000000000070
:10504000000000000000000000008080C0C0E0F010
:10505000F8F87C7C3E1F1F0F0703010000000000D2
:105060000000000000000000000000000000000040
:105070000000000000000000000000000000000030
:1050800000001C1C1C1C1E1E1E0E0E0E0E0E0E0FF3
:105090008F8FC7E7F7777F3F1F0F070300000000E0
:1050A0000000000000000000000000000000000000
:1050B00000000000000000000000000000000000F0
:1050C000000000000000000002070F1F3F3F7FFFAD
:1050D000FEEECECE8E8E0E0E0E1C1C1C1C1C1C1C3E
:1050E0001C1C3C3C382000000000000000000000B8
:1050F00000000000000000000000000000000000B0
:10510000000000000000C0C0E0F0F8383C1E0E07B0
:105110000703030100000000000000000000000081
:10512000000000000000000000000000000000007F
:10513000000000000000000000000000000000006F
:10514000000000000000000000000000000000005F
:105150000001010307070F1E3E3C78F8F0E0E0C0B5
:1051600080000000000000000000000000000000BF
:10517000000000000000000000000000000000002F
:10518000000000000000000101000000000000001D
:10519000000000000000000000000000000000000F
:1051A00000000000000000000000000000000000FF
:1051B00000000000000000000000000000000000EF
:1051C00000000000000000000000000000000000DF
:1051D00000000000000000000000000001010101CB
:1051E00000000000000000000000000000000000BF
:1051F00000000000000000000000000000000000AF
:10520000000000000000000000000000000000009E
:10521000000000000000000000000000000000008E
:10522000000000000000000000000000000000007E
:10523000000000000000000000000000000000006E
:10524000000000000000000000000000000000005E
:10525000000000000000000000000000000000004E
:10526000000000000000000000000000000000003E
:10527000000000000000000000000000000000002E
:10528000000000000000000000000000000000809E
:105290008080808000000080C0C0E0E0C08000C04E
:1052A000C060606060E0C0C08080C0E0E0E0E0C05E
:1052B000800080C0E0606060C0C080C0E0602020EE
:1052C00060E0E080C0C0606060E0C0800080C0C07E
:1052D00040C0C0C0800000000000000000000000CE
:1052E00000000000000000000000000000000000BE
:1052F00000000000000000000000000000000000AE
:10530000000000000000000000000000FCFEC78359
:1053100081C1C1C1C3FFFFE141606060607F7F7FE9
:10532000717070707030313B3F3F3130303031310F
:105330003F3F3F3F3130303030313F3F3030303011
:1053400030317F7F7F7070707070633F7E7F6160EF
:10535000606060616F7FF8C0C0C0C0C0C0C0C08066
:10536000000000000000000000000000000000003D
:10537000000000000000000000000000000000002D
:10538000000000060E0606060607070303030101D8
:105390000101010100000000000000000000000009
:1053A00000000000000000000000000000000000FD
:1053B00000000000000000000000000000000000ED
:1053C00000000000000000000000000000000000DD
:1053D00000000000000000000000000000000101CB
:1053E00000000000000000000000000000000000BD
:1053F00000000000000000000000000000000000AD
:10540000000000000000000000000000000000009C
:10541000000000000080F0F0F8FCFCFEFEFCFCF850
:10542000F0C00000000000000000000000000000CC
:10543000000000000000000000000000000000006C
:10544000000000000000000000808000000000005C
:1054500000000000E0F8F8FCFCFCFCF8F0C00000E4
:10546000000000000000000000000000000000003C
:10547000000000000000000000000000000000002C
:10548000000000000000000000007FFEE08000003F
:105490000000000000071F7FFFFFFFFFFFFFFFFF6F
:1054A000FF1F0000000000000000000000000000DE
:1054B00000000000000000000000000000000000EC
:1054C000000000000000000000071F7CE0800000DA
:1054D000000000020F1F3F7F7F7FFFFFFF1F0000C4
:1054E00000000000000000000000000000000000BC
:1054F00000000000000000000000000000000000AC
:10550000000000000000000000000001070F0E1C5A
:105510003C7870E0E0E0E0703038393D1F0F070361
:10552000000000000000000000000000000000007B
:10553000000000000000000000000000000000006B
:105540000000000000000000000000000003030E47
:105550000C1C181818181C1C0E0603010000000073
:10556000000000000000000000000000000000003B
:10557000000000000000000000000000000000002B
:10558000000000000000000000000000000000001B
:10559000000000000000000000000000000000000B
:1055A00000000000000000000000000000000000FB
:1055B00000000000000000000000000000000000EB
:1055C00000000000000000000000000000000000DB
:1055D00000000000000000000000000000000000CB
:1055E00000000000000000000000000000000000BB
:1055F00000000000000000000000000000000000AB
:105600000080C0406020206040C08000000000009A
:10561000000000000000000000000000000000008A
:1056200000008040602020202060C080000000003A
:10563000000000000000000000000000000000006A
:10564000043B70F0F0F8F8F8F8F0F1E1E6ECF8F06F
:10565000E0C08080808000809080C0C0E0F0D8CC26
:10566000E2E1F0F0F0F0F0F0E0E0601F0000000098
:10567000000000000000000000000000000000002A
:105680000000000000010103030303070707070FE1
:105690000F0F0F0808080F0D080808090F0F0F0F4C
:1056A0000F0F0707070303010100000000000000BF
:1056B000000000000000000000000000000040208A
:1056C00020A0F0F0F0F0F0F0F0F0F0E0E0E0C080CA
:1056D000000000000000000000000000000080C08A
:1056E000E0E0F0F0F0F0F0F0F0F0F0F0A02060403A
:1056F00000000000000000000000000000108CE628
:105700003B0F0703010000000000000101E3F7FF69
:10571000FFFEF080000000000000C0F8FEFFFFF375
:105720008301000000000000000103070F7BE60C6E
:1057300030000000000000000000000000F80F0032
:105740000000000000000000000000000001010156
:1057500001FFFF7F000000000000FFFFC701010103
:105760000000000000000000000000000000011F19
:10577000F00000000000000000000000077FE08053
:10578000000000000000000000000000000080C0D9
:105790007C1F070000000000000000073FF0C00071
:1057A0000000000000000000000000000000C0F049
:1057B0003F000000000000000000000000000103A6
:1057C00007060C081818181818080C0C0603030113
:1057D00000000000000000000000000000000103C5
:1057E00006060C0C081818181818080C06070300F1
:1057F00000000000000000000000000000000000A9
:105800000000000000000000000000000000000098
:105810000000000000000000000000000000000088
:105820000000000000000000000000000000000078
:10583000000000000000000000000000000000C0A8
:10584000E03F080000000000FC9F00000000000096
:10585000000000000000000000000000000000FF49
:105860000000000000003F61C000000000000000D8
:105870000000000000000000000000000000000028
:1058800001FE000000000000FEC300000000000058
:10589000000000000000000000000000000000FF09
:1058A000000000000000EE3B0000000000000000CF
:1058B00000000000000000000000000000000000E8
:1058C0000E13E0400000001CFF80000000000000FC
:1058D000001C604040603E0000000000000000E34B
:1058E0003E00000000E0311E00000000000000004B
:1058F000000000000000000000000000000070F048
:10590000FEF1F0F0F0F0F0F0FEE1C0000000000069
:105910000000000000000000000000000080E0E740
:10592000F8E0F0F0F0F0F1FEF0F0300000000000E0
:105930000000000000000000000000000000202027
:105940003030606060E0C0C08000000000000000F7
:1059500000000000000000000000000000000080C7
:1059600080C0C0E0606060202020000000000000D7
:105970000000000000000000000000000000000027
:105980000000000000000101071F1E0000000000D1
:10599000000000000000000000000000001C1F0FBD
:1059A00003010000000000000000000000000000F3
:1059B00000000000000000000000000000000000E7
:1059C00000000000000000000000000000000000D7
:1059D00000000000000000000000000000000000C7
:1059E00000000000000000000000000000000000B7
:1059F00000000000000000000000000000000000A7
:105A00000000000000000000000000000000000096
:105A10000000000000000000000000000000000086
:105A20000000000000000000000000000000000076
:105A30000000000000000000000000000000000363
:105A4000FF0000000000003F60C0000000000000F8
:105A5000000000000000000000000000000000C086
:105A60003718000000000068FF0000000000000080
:105A70000000000000000000000000000000000125
:105A8000FF000000000000EE130000000000000016
:105A90000000000000000000000000000000000105
:105AA000FE8400000000003CE30000000000000055
:105AB00000000000000000000000000000000000E6
:105AC000E31C00000000E0331E00000000000000A6
:105AD0000038C08080C07C00000000000000000C86
:105AE0001360C0000000087F81000000000000007B
:105AF000000000000000000000000000000070F046
:105B0000FFF0F0F0F0F0F1E3FCE0C0000000000076
:105B10000000000000000000000000000080E0E83D
:105B2000F6E1E0F0F0F0F0FCF3F0300000000000EF
:105B30000000000000000000000000000000004025
:105B400060606060E0C0C0C0800000000000000035
:105B500000000000000000000000000000000080C5
:105B600080C0C0C0E0606060600000000000000015
:105B70000000000000000000000000000000000025
:105B8000000000000000010103071F3C00000000AE
:105B9000000000000000000000000000183E1F0789
:105BA00003010000000000000000000000000000F1
:105BB00000000000000000000000000000000000E5
:105BC00000000000000000000000000000000000D5
:105BD00000000000000000000000000000000000C5
:105BE00000000000000000000000000000000000B5
:105BF00000000000000000000000000000000000A5
:105C000000000000000000000000000000008060B4
:105C1000D0E8341A8ACA8A1A34E8106000000000FA
:105C20000000000000000000000000000000000074
:105C30000000000000000000000000000000000064
:105C400000008040A0D050682820202020282F2845
:105C50006F7F0000FFFF0700F85FE08C000000008E
:105C60000000000000000000000000000000000034
:105C700000000000000000000000000000000070B4
:105C800006F3FE0301F8FCFEFFFFFFFFFFFFFFFE30
:105C9000FEFEFEFFFFFFFEF8F9F3E2E68D1A34E8A0
:105CA0001060000000000000000000000000000084
:105CB00000000000000000808080808080808000E4
:105CC0000608374CB06147CF9F1F3F3F7F7F7F7FE4
:105CD000FFFFFFFFFF7F7F7F7F3F1F9FC760B05F9A
:105CE000301C000000000000000000000000000068
:105CF0000000000044B87DFEFEFEFEFEFEFEFEFD3E
:105D0000FDFAF4887001010205050B0A0A02161457
:105D100014141414141416020A0B0105E231E8F4E9
:105D2000F4FAFAFAFAFAFAF4F4F4E8D020C000002F
:105D30000000000060D0E92A369989C94D656525C3
:105D4000A5A4A5A5A5252565656DBA0038000000A8
:105D500000F098F49A8ACD4D6525A5A5A525654D39
:105D6000CB9B97B7E737F7171717170B06030000FA
:105D70000000000002050B0A0B05020201010100F0
:105D80000000000000000001010100000000000010
:105D900000000002020202010100386CBA6DC585E4
:105DA000040CCDC9487BC0E034343428286840D086
:105DB00040C00000000000000000000000000000E3
:105DC00000000000000000000000000000000000D3
:105DD00000000000000000000000000F082F09591B
:105DE0005958080F5E5252131310580F1F0A0B0315
:105DF00000030000000000000000000000000000A0
:105E0000000000000000000000000000000000F89A
:105E100006F90E02F1F9F9F9F10306FD06FC00009E
:105E20000000000000000000000000000000000072
:105E300000000000000000000000000000000080E2
:105E400040A0D06828341494909A9A9090949437F3
:105E5000342F3C0081FFFF8F0070DF035C83000064
:105E60000000000000000000000000000000000032
:105E7000000000000000000000000000000C03FC17
:105E80000701F8FCFEFFFFFFFFFFFFFFFFFFFFFF23
:105E9000FFFFFFFFFFFFFFFFFEFCF9F1F3E6C48DFC
:105EA0001A74D830C000000000000000000000009C
:105EB0000000000000000080808080808087982F94
:105EC000DC30C38F1F3F7F7FFFFFFFFFFFFFFFFF20
:105ED000FFFFFFFFFFFFFFFFFFFFFFFFFF7F3F1FF2
:105EE00080E03FCF3007000000000000000000000D
:105EF0000000000044B87DFEFEFEFEFEFEFEFEFD3C
:105F0000FDFBF68C750B16142C28095953531313EB
:105F1000B3B3B7A7B3B3B31353535909EC34F6F380
:105F2000F5FAFBFAFAFAFAF4F4F4E8D020C000002B
:105F30000000000060D0E92A369989C94D656525C1
:105F4000A5A4A5A5A5252565656DBA0038000000A6
:105F500000F098F49A8ACD4D6525A5A5A525654D37
:105F6000CB9B97B7E737F7171717170B06030000F8
