:020000040800F2
:10000000B00B002089010008AD080008D1060008E7
:10001000A90800088D030008AB23000800000000B9
:10002000000000000000000000000000AD1100080A
:1000300091030008000000001B0D00081D160008B9
:10004000A3010008A3010008A3010008A301000800
:10005000A3010008A3010008A3010008A3010008F0
:10006000A3010008A3010008A3010008A3010008E0
:10007000A3010008A3010008A3010008A3010008D0
:10008000A3010008A3010008A3010008A3010008C0
:10009000A3010008A3010008A3010008A3010008B0
:1000A000A3010008A3010008A3010008A3010008A0
:1000B000A3010008A3010008A3010008A301000890
:1000C000A3010008A3010008A3010008A301000880
:1000D000A3010008991C0008091E00080D20000853
:1000E000A3010008A3010008A301000800F002F822
:1000F00000F03AF80AA090E8000C82448344AAF188
:100100000107DA4501D100F02FF8AFF2090EBAE885
:100110000F0013F0010F18BFFB1A43F0010318473B
:100120007471000094710000103A24BF78C878C13F
:10013000FAD8520724BF30C830C144BF04680C60ED
:10014000704700000023002400250026103A28BF35
:1001500078C1FBD8520728BF30C148BF0B60704739
:100160001FB51FBD10B510BD00F036F81146FFF7E2
:10017000F7FF02F08BFC00F054F803B4FFF7F2FF36
:1001800003BC02F02FF900000948804709480047E6
:10019000FEE7FEE7FEE7FEE7FEE7FEE7FEE7FEE737
:1001A000FEE7FEE704480549054A064B7047000094
:1001B00021160008ED000008B0050020B00B00205B
:1001C000B0070020B007002070477047704700005C
:1001D00000487047500500207546FFF7F9FFAE460E
:1001E00005006946534620F00700854618B020B543
:1001F000FFF7D8FFBDE820404FF000064FF00007A2
:100200004FF000084FF0000B21F00701AC46ACE8BE
:10021000C009ACE8C009ACE8C009ACE8C0098D462B
:10022000704710B50446AFF300802046BDE810408B
:10023000FFF7A3BF08B5504840238022002100905B
:10024000084600F099FC00F015FD91E04B4800884D
:10025000401C4A490880012002F08AFA4848008878
:100260004849098808444649088008460088FA2811
:1002700006DBFA2008804FF0FF304249088009E091
:100280003F480088322805DC32203D4908800120A3
:100290003C4908803949088800EBD0714910A0EB2F
:1002A000410121B936480188374801F09AFC3348AA
:1002B0000088322809D10122C321962000F06AF873
:1002C00002226921962000F065F82C4800889628C3
:1002D00009D104229621692000F05CF803229621BE
:1002E000C32000F057F825480088FA2809D10122D8
:1002F0006921C32000F04EF80222C321692000F0DA
:1003000049F81E480088B0F5AF7F09D10422C32107
:10031000962000F03FF803226921962000F03AF879
:1003200016480088B0F5E17F09D1012296216920A5
:1003300000F030F802229621C32000F02BF80F487D
:10034000008840F22621884209D104226921C32075
:1003500000F020F80322C321692000F01BF80748B1
:100360000088B0F5167F03DB00200449088000E018
:100370006CE700BF08BD0000923C000808000020A8
:100380002A0000202C0000200004004000BFFEE7EF
:10039000704700002DE9F04105460E469046B542F3
:1003A00000DD0127AE4200DD0027B8F1010F1DD1AD
:1003B000012F0DD12C4608E0A1B23F4801F011FCFD
:1003C0003E48008802F034FA641EB442F4DA0DE0CC
:1003D00067B92C4608E0A1B2374801F002FC374863
:1003E000008802F025FA641CB442F4DDB8F1020F73
:1003F0001DD1012F0DD12C4608E0A1B22E4801F0ED
:10040000F2FB2E48008802F013FA641EB442F4DABC
:100410000DE067B92C4608E0A1B2274801F0E3FBE4
:100420002648008802F004FA641CB442F4DDB8F1F6
:10043000030F1DD1012F0DD12C4608E0A1B21E489B
:1004400001F0D3FB1D48008802F0F2F9641EB442AB
:10045000F4DA0DE067B92C4608E0A1B2164801F0C5
:10046000C4FB1648008802F0E3F9641CB442F4DDD2
:10047000B8F1040F1DD1012F0DD12C4608E0A1B217
:100480000D4801F0B4FB0D48008802F0D1F9641E5C
:10049000B442F4DA0DE067B92C4608E0A1B2064890
:1004A00001F0A5FB0548008802F0C2F9641CB442C3
:1004B000F4DDBDE8F0810000000800400A000020E3
:1004C0002DE9F041024600250026002000230024EB
:1004D000002791F803C00CF00F0591F803C00CF051
:1004E000100CBCF1000F03D091F802C04CEA0505D6
:1004F00091F800C0BCF1000F31D0146800202BE04F
:100500004FF0010C0CFA00F3B1F800C00CEA03063E
:100510009E4220D183004FF00F0C0CFA03F7BC432E
:1005200005FA03FC4CEA040491F803C0BCF1280F5F
:1005300006D14FF0010C0CFA00FCC2F814C00AE01E
:1005400091F803C0BCF1480F05D14FF0010C0CFA33
:1005500000FCC2F810C0401C0828D1D31460B1F8C8
:1005600000C0BCF1FF0F34DD546800202EE000F124
:10057000080C4FF0010808FA0CF3B1F800C00CEABF
:1005800003069E4221D183004FF00F0C0CFA03F7B3
:10059000BC4305FA03FC4CEA040491F803C0BCF127
:1005A000280F05D100F1080C08FA0CF8C2F81480E5
:1005B00091F803C0BCF1480F07D100F1080C4FF0CF
:1005C000010808FA0CF8C2F81080401C0828CED3A5
:1005D0005460BDE8F081016170470AB1016100E03B
:1005E0004161704708B534484023802200210090C3
:1005F000084600F0C1FA00F03DFBDC212F4801F075
:10060000F2FA96212D4801F0F0FA96212B4801F0DC
:10061000EEFA4DE0012002F0ABF829480088401CBA
:100620002749088027480088274909880844254920
:10063000088008460088FA2806DBFA2008804FF078
:10064000FF302149088009E01E480088322805DC77
:1006500032201C49088001201B490880184908885D
:1006600000EBD0714910A0EB410121B91548018878
:10067000164801F0B6FA12480088C82804D10122B1
:1006800037217320FFF786FE0D480088B0F5FA7F0A
:1006900004D1012273213720FFF77CFE084800882F
:1006A00040F22621884203DB00200549088000E053
:1006B000B0E700BF08BD00009260000800080040DD
:1006C000080000201E000020200000200004004040
:1006D00000BFFEE738B51D4840238022002100906E
:1006E000084600F049FA00F0C5FA00242BE0601C2F
:1006F00084B2AA21164801F074FAE621144801F0E8
:1007000076FA8221124801F070FA4621104801F071
:100710006AFA642002F02CF878210D4801F061FAA1
:10072000B4210B4801F063FAB421094801F05DFAE5
:100730007821074801F057FA642002F019F80A2CD2
:1007400001DB002400E0D2E700BF38BD926C000856
:100750000008004008B50121582000F09BFB4FF431
:100760000050ADF8000010208DF8030003208DF834
:10077000020069460448FFF7A3FE4FF40051024807
:10078000FFF729FF08BD00000010014008B54148EF
:100790004023802200210090084600F0EDF900F08F
:1007A00069FA74E03C480088401C3B4908800120FD
:1007B00001F0DEFF39480088394909880844374983
:1007C000088008460088FA2806DBFA2008804FF0E7
:1007D000FF303349088009E030480088322805DCC2
:1007E00032202E49088001202D4908802A49088896
:1007F00000EBD0714910A0EB410121B927480188D5
:10080000284801F0EEF924480088322809D1042252
:10081000C3219620FFF7BEFD0322C3219620FFF7D8
:10082000B9FD1D480088C82809D1012269219620F8
:10083000FFF7B0FD022269219620FFF7ABFD1648B5
:100840000088B0F5AF7F09D104229621C320FFF7BD
:10085000A1FD03229621C320FFF79CFD0E480088CE
:10086000B0F5FA7F09D1012296216920FFF792FDA8
:10087000022296216920FFF78DFD0748008840F28B
:100880002621884203DB00200349088000E089E735
:1008900000BF08BD9240000808000020360000207C
:1008A000380000200004004000BFFEE77047000051
:1008B00070B5002100230F22C47804B3154C2468BE
:1008C00004F4E064C4F5E064210AC1F10403CA4001
:1008D000447804FA03F184781440214309010E4C52
:1008E0000678A155047804F01F050124AC40057872
:1008F0006D11AD0005F1E025C5F8004109E004786F
:1009000004F01F050124AC40044D0678761145F82B
:10091000264070BD0CED00E000E400E080E100E066
:1009200002490143024A1160704700000000FA05C5
:100930000CED00E000200CE0002106E00022064B58
:1009400003EBC0135A544A1CD1B28029F6DB421C77
:10095000D0B20828F0DB7047880000202DE9F04372
:1009600004460D4616461F46284638E0224631E02A
:10097000002A2DDB7F2A2BDC002829DB3F2827DCFF
:100980004FEAE07C00EB5C7C4FEAEC0CDFF858802F
:1009900008EBCC1C1CF802C003464FEAE07800EBE1
:1009A00058784FEAE808A0EBC8094FF0010808FAA8
:1009B00009F82CEA080C01464FEAE07800EB587879
:1009C0004FEAE808DFF8209009EBC81808F802C0E1
:1009D000511C0AB2A1199142CADC411C08B2E919A2
:1009E0008142C3DCBDE8F0838800002038B50024D4
:1009F00006E0002500E06D1CB5F57A7FFBD3641C92
:100A0000B4F57A7FF5D30121102000F043FA1420C9
:100A10008DF8030003208DF802004FF48040ADF8FC
:100A2000000069460848FFF74BFD4FF40040ADF861
:100A3000000069460448FFF743FD012000F02EF94D
:100A4000012000F037F938BD0010014070B50546AF
:100A5000002411E080212141294009B1012100E059
:100A60000021084600F026F9012000F017F90020C7
:100A700000F014F9601CC4B2082CEBDB012000F07C
:100A80000DF9002000F00AF970BD10B5012000F04A
:100A900011F9012000F002F9002000F00BF900200C
:100AA00000F0FCF810BD10B5002000F003F90120A3
:100AB00000F0F4F8012000F0FDF810BD10B5FFF7CC
:100AC00095FFAE2000F002F9D52000F0FFF880205D
:100AD00000F0FCF8A82000F0F9F83F2000F0F6F84C
:100AE000D32000F0F3F8002000F0F0F8402000F0F0
:100AF000EDF8A12000F0EAF8C82000F0E7F8DA20CD
:100B000000F0E4F8122000F0E1F8812000F0DEF8B7
:100B1000CF2000F0DBF8D92000F0D8F8F12000F069
:100B2000D5F8DB2000F0D2F8302000F0CFF8A42078
:100B300000F0CCF8A62000F0C9F88D2000F0C6F82F
:100B4000142000F0C3F8AF2000F0C0F8FFF7F2FE69
:100B500000F090F810BD70B505460C4645F0B000A9
:100B600000F0B4F8102141EA141000F0AFF804F0DE
:100B70000F0000F0ABF870BD2DE9FF4F80460E4628
:100B80009146DDF834B0002500244A4631464046FF
:100B9000039BFFF7E3FE00BF5EE0002558E008EB93
:100BA0000500002852DB08EB05007F284EDC3046AC
:100BB000F11706EB5171C9100FB2F11706EB517125
:100BC000C910A6EBC10A002E05DA781E07B20AF199
:100BD00008000FFA80FA3819002817DB381907289F
:100BE00014DC3819224901EBC01008EB0501405C08
:100BF00004FB09511BF8011001FA0AF108433919E5
:100C00001B4A02EBC11108EB050288543819401C3D
:100C100000281BDB3819401C072817DC3819401C3A
:100C2000134901EBC01008EB0501405C04FB0951BE
:100C30001BF80110CAF10802114108433919491C77
:100C40000B4A02EBC11108EB05028854681CC5B2BF
:100C50004D45A4DB601CC4B20399481EC11700EBCC
:100C60005171012202EBE101A14296DCBDE8FF8F48
:100C70008800002010B500240BE000212046FFF77B
:100C80006AFF054901EBC410802100F02FF8601CB9
:100C9000C4B2082CF1DB10BD8800002010B504465A
:100CA00022464FF480410248FFF797FC10BD000038
:100CB0000010014010B5044622464FF4004102489E
:100CC000FFF78BFC10BD00000010014010B504467A
:100CD000FFF7DBFE7820FFF7B9FE0020FFF7B6FE36
:100CE0002046FFF7B3FEFFF7DEFE10BD70B50546E8
:100CF0000E46FFF7CAFE7820FFF7A8FE4020FFF758
:100D0000A5FE002404E0285DFFF7A0FE601CC4B22D
:100D1000B442F8DBFFF7C7FE70BD704708B5504816
:100D200040238022002100900846FFF725FFFFF7AF
:100D3000A1FF91E04B480088401C4A4908800120EF
:100D400001F016FD4848008848490988084446498A
:100D5000088008460088FA2806DBFA2008804FF051
:100D6000FF304249088009E03F480088322805DC0E
:100D700032203D49088001203C49088039490888D3
:100D800000EBD0714910A0EB410121B93648018830
:100D9000374800F026FF33480088322809D1012265
:100DA00073219620FFF7F6FA0222B9219620FFF769
:100DB000F1FA2C480088962809D104229621B920FE
:100DC000FFF7E8FA032296217320FFF7E3FA25489C
:100DD0000088FA2809D10122B9217320FFF7DAFA35
:100DE00002227321B920FFF7D5FA1E480088B0F51A
:100DF000AF7F09D1042273219620FFF7CBFA03229B
:100E0000B9219620FFF7C6FA16480088B0F5E17FB1
:100E100009D101229621B920FFF7BCFA02229621BE
:100E20007320FFF7B7FA0F48008840F22621884266
:100E300009D10422B9217320FFF7ACFA03227321F0
:100E4000B920FFF7A7FA07480088B0F5167F03DB43
:100E500000200449088000E06CE700BF08BD0000E6
:100E6000923C0008080000202E00002030000020E6
:100E70000004004029B1064AD2690243044BDA61FA
:100E800004E0034AD2698243014BDA6170470000F3
:100E90000010024029B1064A92690243044B9A614C
:100EA00004E0034A92698243014B9A617047000053
:100EB0000010024030B500210022002400232D4DF7
:100EC0006D6805F00C0121B1042905D0082923D152
:100ED00005E0294D056022E0274D05601FE0254D06
:100EE0006D6805F47012234D6D6805F48034022599
:100EF00005EB92421CB9214D554305600BE01D4D99
:100F00006D6805F400351DB11C4D5543056002E0C8
:100F1000194D5543056002E0174D056000BF00BF45
:100F2000144D6D6805F0F0010909154D6B5C0568FD
:100F3000DD4045600F4D6D6805F4E061090A104D14
:100F40006B5C4568DD4085600A4D6D6805F4605155
:100F5000C90A0B4D6B5C4568DD40C560054D6D6889
:100F600005F44041890B074D6B5CC568B5FBF3F593
:100F7000056130BD0010024000127A0000093D00FA
:100F8000740000208400002008B5414840238022DE
:100F9000002100900846FFF7EFFDFFF76BFE74E0BD
:100FA0003C480088401C3B490880012001F0E0FBE0
:100FB0003948008839490988084437490880084673
:100FC0000088FA2806DBFA2008804FF0FF3033490A
:100FD000088009E030480088322805DC32202E499C
:100FE000088001202D4908802A49088800EBD0712B
:100FF0004910A0EB410121B927480188284800F099
:10100000F0FD24480088322809D101226921962068
:10101000FFF7C0F9022269219620FFF7BBF91D48AE
:101020000088C82809D10422C3219620FFF7B2F90D
:101030000322C3219620FFF7ADF916480088B0F5CA
:10104000AF7F09D1012296216920FFF7A3F902227F
:1010500096216920FFF79EF90E480088B0F5FA7FC7
:1010600009D104229621C320FFF794F90322962187
:10107000C320FFF78FF90748008840F226218842F5
:1010800003DB00200349088000E089E700BF08BDBA
:1010900092440008080000203200002034000020A4
:1010A0000004004008B53C48402380220021009005
:1010B0000846FFF761FDFFF7DDFD6AE0374800886D
:1010C000401C36490880012001F052FB344800885A
:1010D0003449098808443249088008460088FA28BB
:1010E00006DBFA2008804FF0FF302E49088009E027
:1010F0002B480088322805DC32202949088001204D
:10110000284908802549088800EBD0714910A0EBD8
:10111000410121B922480188234800F062FD1F489F
:101120000088962813D101227821B420FFF732F9E4
:101130000222B4217820FFF72DF90322B421782070
:10114000FFF728F904227821B420FFF723F9134888
:101150000088B0F5AF7F13D10122B4217820FFF7CA
:1011600019F902227821B420FFF714F9032278211B
:10117000B420FFF70FF90422B4217820FFF70AF911
:1011800006480088B0F5B97F03DB002003490880DA
:1011900000E093E700BF08BD925800080800002057
:1011A0001A0000201C00002000040040704710B509
:1011B00000F002F810BD00000CB500200190009076
:1011C0003348006840F480303149086000BF30483F
:1011D000006800F4003000900198401C01900098D5
:1011E00018B90198B0F5A06FF1D12948006800F452
:1011F000003010B10120009001E000200090009824
:10120000012843D12348006840F0100021490860BC
:101210000846006820F0030008600846006840F0B7
:10122000020008601A48406819494860084640684A
:1012300048600846406840F480604860084640685E
:1012400020F47C1048600846406840F4E81048608C
:101250000846006840F08070086000BF0C480068D5
:1012600000F000700028F9D00948406820F0030021
:10127000074948600846406840F00200486000BFE7
:101280000348406800F00C000828F9D10CBD0000AC
:10129000001002400020024008B52C484023802264
:1012A000002100900846FFF767FCFFF7E3FCAF2141
:1012B000274800F096FCE121254800F094FC7D21B0
:1012C000234800F092FC4B21214800F090FC39E0CB
:1012D00020480088401C1F490880012001F048FA7E
:1012E0001D4800881D49098808441B490880084694
:1012F0000088FA2806DBFA2008804FF0FF301749F3
:10130000088009E014480088322805DC32201249A0
:1013100008800120114908800E49088800EBD0712F
:101320004910A0EB410121B90B4801880C4800F09D
:1013300058FC08480088B0F5167F03D10020054905
:10134000088000E0C4E700BF08BD00009258000814
:10135000000800400800002026000020280000208F
:101360000004004038B5FFF7E5FA4621394800F09F
:1013700038FC4621374800F036FCE121354800F0C2
:1013800034FCE121334800F032FC60E03248008850
:10139000401C3149088008460088B0F5487F09D1D3
:1013A0002E4840231A46002100902020FFF7E4FB3E
:1013B000FFF760FC28480088B0F5C86F0CD12848BA
:1013C00040231A46002100902020FFF7D5FBFFF7AD
:1013D00051FC00202049088022480088401C2149F7
:1013E0000880012001F0C4F91F4800881F490988BE
:1013F00008441D49088008460088B0F5964F07DB71
:101400004FF4964008804FF0FF30184908800BE0F9
:1014100015480088B0F5965F06DC4FF496501249E7
:1014200008800120114908800F480088502190FB56
:10143000F1F084B221460E4800F0D3FB0948008841
:10144000B0F5167F03D100200649088000E09DE733
:1014500000BF38BD000800400C0000209268000862
:10146000926A0008080000202200002024000020CA
:101470000004004010B543E0012001F079F92F4845
:1014800000882F490978401A2C49088008460088AE
:101490000A2190FBF1F084B221462A4800F0A5FB16
:1014A000264800880A2190FBF1F084B221462548A5
:1014B00000F09DFB2448008824490978084422490B
:1014C0000880084600880A2190FBF1F084B221468A
:1014D0001C4800F086FB1C4800880A2190FBF1F0B4
:1014E00084B22146174800F07EFB1748008840F27E
:1014F000DC51884204DB11480088884200DC00E0AF
:10150000BAE700BF3C210F4800F06BFBB4210D4847
:1015100000F06BFBB4210B4800F069FBC82001F020
:1015200027F99621074800F05CFB9621054800F05A
:101530005CFB9621034800F05AFB10BD1000002010
:1015400014000020000800401200002015000020B8
:1015500008B52C4840238022002100900846FFF760
:101560000BFBFFF787FB9621274800F03AFB9621FB
:10157000254800F038FB9621234800F036FB9621E1
:10158000214800F034FB39E020480088401C1F4906
:101590000880012001F0ECF81D4800881D490988E9
:1015A00008441B49088008460088FA2806DBFA2010
:1015B00008804FF0FF301749088009E01448008880
:1015C000322805DC322012490880012011490880A8
:1015D0000E49088800EBD0714910A0EB410121B9F8
:1015E0000B4801880C4800F0FCFA08480088B0F568
:1015F000167F03D100200549088000E0C4E700BF42
:1016000008BD0000923800080008004008000020D3
:101610001600002018000020000400407047000061
:1016200010B51348006840F00100114908600846F1
:101630004068104908400E494860084600680E4955
:1016400008400B4908600846006820F480200860C4
:101650000846406820F4FE0048604FF41F00886090
:10166000FFF7A5FD4FF000600449086010BD0000C1
:10167000001002400000FFF8FFFFF6FE08ED00E05A
:1016800030B589B005460C4601210220FFF7F2FB78
:1016900001210520FFF7FEFB4020ADF820001820B7
:1016A0008DF8230003208DF8220008A91348FEF7C7
:1016B00007FFADF81850ADF814400020ADF81A003F
:1016C000ADF8160005A90E4800F094FA6020ADF8B8
:1016D00004000120ADF806000020ADF80C0001A9BF
:1016E000074800F023F90821054800F06BF90121B3
:1016F000034800F00FF909B030BD000000080140B8
:101700000004004030B589B005460C460121042094
:10171000FFF7B0FB01210920FFF7BCFB4020ADF82B
:10172000200018208DF8230003208DF8220008A93E
:101730001348FEF7C5FEADF81850ADF81440002070
:10174000ADF81A00ADF8160005A90E4800F052FADF
:101750006020ADF804000120ADF806000020ADF8CF
:101760000C0001A9074800F0E1F80821054800F045
:1017700029F90121034800F0CDF809B030BD00007F
:10178000000C01400008004030B589B005460C4609
:1017900001210420FFF76EFB01210920FFF77AFBEE
:1017A0004FF40070ADF8200018208DF823000320BE
:1017B0008DF8220008A91348FEF782FEADF81850F4
:1017C000ADF814400020ADF81A00ADF8160005A9D8
:1017D0000D4800F00FFA6020ADF804000120ADF8CC
:1017E00006000020ADF80C0001A9074800F0F4F84D
:1017F0000821054800F042F90121034800F08AF869
:1018000009B030BD000C01400008004030B589B07F
:1018100005460C4601210420FFF72CFB012109207D
:10182000FFF738FB4FF48070ADF8200018208DF8DA
:10183000230003208DF8220008A91348FEF740FE7C
:10184000ADF81850ADF814400020ADF81A00ADF80E
:10185000160005A90D4800F0CDF96020ADF8040090
:101860000120ADF806000020ADF80C0001A90748E2
:1018700000F012F90821054800F05EF90121034843
:1018800000F048F809B030BD000C014000080040ED
:1018900030B589B005460C4601210420FFF7EAFA6D
:1018A00001210920FFF7F6FA8020ADF8200018206A
:1018B0008DF8230003208DF8220008A91348FEF7B5
:1018C000FFFDADF81850ADF814400020ADF81A0037
:1018D000ADF8160005A90E4800F08CF96020ADF8AF
:1018E00004000120ADF806000020ADF80C0001A9AD
:1018F000074800F02BF90821054800F065F901219F
:10190000034800F007F809B030BD0000000C0140AA
:101910000008004021B1028842F00102028004E088
:1019200002884FF6FE731A400280704770B500249B
:1019300000220023058C4FF6FE7635400584028C8C
:101940008388048B4FF68F752C40B51E2C400D8874
:101950002C43751E2A400D892A434D882A43144D75
:10196000A8420BD0134DA84208D0134DA84205D071
:10197000124DA84202D0124DA84213D14FF6F7756E
:101980002A404D892A434FF6FB752A408D882A4309
:101990004FF6FF652B404FF6FF552B408D892B43AB
:1019A000CD892B4383800483CD888586028470BDD6
:1019B000002C01400034014000400140004401403F
:1019C000004801400A460021018B4FF6F773194089
:1019D000114301837047000070B5002400220023EA
:1019E000058C4FF6EF7635400584028C8388048B96
:1019F00048F6FF752C404FF6FF452C400D884FF6FA
:101A0000FF7606EA05252C434FF6DF752A400D893F
:101A100006EA05152A434D8806EA05152A43154DA1
:101A2000A84202D0144DA8421DD14FF67F752A401E
:101A30004D894FF6FF7606EA05152A434FF6BF7526
:101A40002A408D8806EA05152A434FF6FF352B40BC
:101A50004FF2FF752B408D8906EA85052B43CD8912
:101A600006EA85052B4383800483CD88058702849D
:101A700070BD0000002C0140003401400A460021E6
:101A8000018B4FF2FF7319404FF6FF7303EA0223F5
:101A9000194301837047000070B500240022002321
:101AA000058C4FF6FF6635400584028C8388848B55
:101AB0004FF68F752C404FF6FC752C400D882C434B
:101AC0004FF6FF552A400D894FF6FF7606EA0525A9
:101AD0002A434D8806EA05252A43154DA84202D01F
:101AE000144DA8421DD14FF2FF752A404D894FF683
:101AF000FF7606EA05252A434FF6FF352A408D88F2
:101B000006EA05252A434EF6FF752B404DF6FF7574
:101B10002B408D8906EA05152B43CD8906EA05156C
:101B20002B4383808483CD888587028470BD000029
:101B3000002C0140003401400A460021818B4FF601
:101B4000F7731940114381837047000070B500227C
:101B500000230024058C4EF6FF7635400584038C67
:101B60008488828B48F6FF752A404FF6FF452A404D
:101B70000D884FF6FF7606EA05252A434DF6FF75D8
:101B80002B400D8906EA05352B434D8806EA0535BD
:101B90002B430B4DA84202D00A4DA84208D14BF668
:101BA000FF752C408D894FF6FF7606EA85152C438C
:101BB00084808283CD88A0F84050038470BD0000EB
:101BC000002C0140003401400A460021818B4FF275
:101BD000FF7319404FF6FF7303EA02231943818311
:101BE0007047818670470187704781877047A0F8EA
:101BF00040107047002202881D4B98420ED01D4BAA
:101C000098420BD0B0F1804F08D01B4B984205D0C2
:101C10001A4B984202D01A4B984204D14FF68F7358
:101C20001A404B881A43174B984207D0164B9842DC
:101C300004D04FF6FF431A40CB881A4302808B88AA
:101C400083850B8803850A4B98420BD0094B984239
:101C500008D00E4B984205D00D4B984202D00D4B48
:101C6000984201D10B7A03860123838270470000DA
:101C7000002C0140003401400004004000080040F6
:101C8000000C0040001000400014004000400140E3
:101C9000004401400048014010B540F225512B4856
:101CA00000F0BFFA002850D0284800F075FBC4B2FD
:101CB000472C02D10120264908704B2C02D102206A
:101CC00023490870482C02D10320214908704A2C6E
:101CD00002D104201E490870492C02D105201C495C
:101CE00008701C48008800F4004070BB1948008848
:101CF00000F4804060B10A2C03D000201549088010
:101D000023E01448008840F40040124908801CE099
:101D10000D2C06D10F48008840F480400D49088002
:101D200013E00C480088C0F30D000B490C5409481F
:101D30000088401C0749088008460088401E098822
:101D4000884202DA00200349088010BD00380140B3
:101D5000000000206C0000208804002010B586B030
:101D6000044601210420FFF795F801218803FFF7BD
:101D700091F818208DF817004FF40070ADF814009A
:101D800003208DF8160005A91D48FEF799FB0420D5
:101D90008DF817000002ADF8140003208DF816002E
:101DA00005A91748FEF78CFB01940020ADF8080048
:101DB0000C20ADF80E000020ADF80C00ADF80A00C4
:101DC000ADF8100001A90F4800F07AFA25208DF82F
:101DD000000001208DF8030003208DF801008DF82C
:101DE00002006846FEF764FD012240F225510548D5
:101DF00000F041FA0121034800F0FAF906B010BDE5
:101E0000000801400038014010B540F225514E480D
:101E100000F007FA00287DD04C48006808B901207E
:101E200000E0002049490860474800F0B5FA4849F9
:101E300008800846008847490988884202D0002067
:101E40004549087042480088312802D101204349A1
:101E500008603F480088322802D102203F490860CC
:101E60003B480088332802D103203C4908603848A9
:101E70000088342802D1042038490860344800889A
:101E8000352802D1052035490860314800883628B8
:101E900002D10620314908602D480088372802D138
:101EA00007202E4908602A480088382802D10820D7
:101EB0002A49086026480088392802D10920274984
:101EC000086023480088612802D10A20234908605D
:101ED0001F480088622802D10B20204908601C4856
:101EE0000088632802D10C201C490860184800882B
:101EF000642802D10D20194908601548008865281A
:101F000002D10E201549086011480088662806D1C4
:101F100000BF00E017E000200C49086000BF0C483B
:101F20000088672804D100BF01200849086000BF6D
:101F300007480088682802D1012008490860044841
:101F400000880449088010BD00440040B4012242CA
:101F50004C0000204E0000200E0000200400002055
:101F600010B586B0044601210420FEF793FF01213D
:101F70004804FEF77FFF18208DF817000420ADF805
:101F8000140003208DF8160005A91E48FEF798FAE4
:101F900004208DF817000820ADF8140003208DF8F8
:101FA000160005A91748FEF78BFA01940020ADF83A
:101FB00008000C20ADF80E000020ADF80C00ADF8C4
:101FC0000A00ADF8100001A90F4800F079F92620A9
:101FD0008DF8000001208DF8030000208DF801002D
:101FE0008DF802006846FEF763FC012240F225519D
:101FF000054800F040F90121034800F0F9F806B067
:1020000010BD0000000801400044004010B540F23F
:102010002551474800F005F900287DD04548006863
:1020200008B9012000E0002042490860404800F063
:10203000B3F94149087008460078492806D10120C3
:102040003E49086041213E4800F0B2F93A48007824
:10205000472806D10220394908604221384800F05B
:10206000A7F9354800784B2806D10320334908608A
:102070004321334800F09CF92F480078482806D1C6
:1020800004202E49086044212D4800F091F92A4887
:1020900000784A2806D105202849086045212848AB
:1020A00000F086F924480078412806D10C20234905
:1020B00008604621224800F07BF91F48007842283A
:1020C00006D106201D49086047211D4800F070F91F
:1020D00019480078432806D107201849086048218C
:1020E000174800F065F914480078442806D1082004
:1020F000124908604921124800F05AF90E48007848
:10210000452806D10B200D4908604A210C4800F0F3
:102110004FF90948007800E008E05B2806D10F205D
:10212000064908605B21064800F042F910BD000036
:1021300000480040B40122425C000020040000205E
:102140000044004010B586B0044601210820FEF787
:10215000A1FE01218804FEF78DFE18208DF81700DE
:102160004FF48060ADF8140003208DF8160005A927
:102170001D48FEF7A5F904208DF817004002ADF8C0
:10218000140003208DF8160005A91748FEF798F9EA
:1021900001940020ADF808000C20ADF80E000020DE
:1021A000ADF80C00ADF80A00ADF8100001A90F4819
:1021B00000F086F827208DF8000001208DF803003C
:1021C00003208DF801008DF802006846FEF770FBD1
:1021D000012240F22551054800F04DF80121034845
:1021E00000F006F806B010BD000C014000480040A9
:1021F00021B1828942F40052828104E082894DF645
:10220000FF731A408281704702460020B1F5007FBB
:1022100000D100BF13880B400BB1012000E000206B
:10222000704770B50246002400230025002040F6C8
:102230006A16B14200D100BFC1F3421501F01F037D
:10224000012606FA03F3012D02D19689334006E0F8
:10225000022D02D1168A334001E0968A33400C12D7
:10226000012606FA04F41688344013B10CB101209B
:1022700000E0002070BDF0B50346002400260025D4
:10228000002040F66A17B94200D100BF1846C1F3DA
:10229000421401F01F06012707FA06F5012C01D1AF
:1022A0000C3004E0022C01D1103000E014301AB1DF
:1022B00007682F43076002E00768AF430760F0BD7F
:1022C0002DE9F04786B005460E460024A24600BF21
:1022D000A1460027B08900B100BF2F462C8A4CF6DA
:1022E000FF700440F08804432C82AC894EF6F31052
:1022F0000440B08831890843718908430443AC81A4
:10230000AC8A4FF6FF400440B0890443AC8201A878
:10231000FEF7D0FD1F48874202D1DDF810A001E092
:10232000DDF80CA0A88900F4004040B10AEBCA0017
:1023300000EB0A1031684900B0FBF1F807E00AEB46
:10234000CA0000EB0A1031688900B0FBF1F8642084
:10235000B8FBF0F004012009642101FB1089A88971
:1023600000F4004040B1322000EBC900B0FBF1F0B6
:1023700000F00700044308E0322000EB091064215C
:10238000B0FBF1F000F00F0004432C8106B0BDE873
:10239000F08700000038014001468888C0F308003B
:1023A0007047C1F308028280704700BFFEE700005B
:1023B00070B504460D4629462046FFF7F2FF00BFE0
:1023C00080212046FFF720FF0028F9D0044800684C
:1023D00008B9012000E000200149086070BD00003C
:1023E000B401224200BF704708B5DC484023802278
:1023F000002100900846FEF7BFFBFEF73BFCA9E179
:10240000D7480088401CD6490880012000F0B0F968
:10241000D4480088D44909880844D249088008462D
:102420000088FA2806DBFA2008804FF0FF30CE49FA
:10243000088009E0CB480088322805DC3220C949F1
:1024400008800120C8490880C549088800EBD07180
:102450004910A0EB410121B9C2480188C348FFF7E8
:10246000C0FBBF480088322813D101225A21962090
:10247000FDF790FF02225A219620FDF78BFF0322E1
:102480005A219620FDF786FF04225A219620FDF757
:1024900081FFB3480088C82813D1012296215A2011
:1024A000FDF778FF022296215A20FDF773FF0322E1
:1024B00096215A20FDF76EFF042296215A20FDF73F
:1024C00069FFA7480088B0F5AF7F13D10122D22160
:1024D0009620FDF75FFF0222D2219620FDF75AFFDA
:1024E0000322D2219620FDF755FF0422D221962007
:1024F000FDF750FF9A480088B0F5FA7F13D101220A
:102500009621D220FDF746FF02229621D220FDF728
:1025100041FF03229621D220FDF73CFF04229621A1
:10252000D220FDF737FF8E48008840F28A2188428A
:1025300013D1012269219620FDF72CFF0222C3212D
:102540009620FDF727FF0322C3219620FDF722FFE7
:10255000042269219620FDF71DFF81480088B0F50F
:10256000487F13D1012296216920FDF713FF022233
:102570009621C320FDF70EFF03229621C320FDF70D
:1025800009FF042296216920FDF704FF74480088A2
:1025900040F2B631884213D10122C3219620FDF7C3
:1025A000F9FE022269219620FDF7F4FE032269213B
:1025B0009620FDF7EFFE0422C3219620FDF7EAFEE8
:1025C0006748008840F24C41884213D1012296218D
:1025D000C320FDF7DFFE022296216920FDF7DAFE17
:1025E000032296216920FDF7D5FE04229621C320FF
:1025F000FDF7D0FE5A48008840F2E241884213D1EC
:102600000122C3219620FDF7C5FE022269219620F2
:10261000FDF7C0FE032269219620FDF7BBFE0422D0
:10262000C3219620FDF7B6FE4D480088B0F5AF6F88
:1026300013D101229621C320FDF7ACFE0222962180
:102640006920FDF7A7FE032296216920FDF7A2FE6F
:1026500004229621C320FDF79DFE4148008840F2E8
:102660000E61884213D1012269219620FDF792FE66
:102670000222C3219620FDF78DFE0322C32196205E
:10268000FDF788FE042269219620FDF783FE344879
:10269000008840F2A461884213D10122962169206A
:1026A000FDF778FE02229621C320FDF773FE032278
:1026B0009621C320FDF76EFE042296216920FDF7C6
:1026C00069FE2748008840F23A71884209D1012208
:1026D0005A219620FDF75EFE02225A219620FDF730
:1026E00059FE1F480088B0F5FA6F09D101229621E2
:1026F0005A20FDF74FFE022296215A20FDF74AFE8E
:102700001748008840F66601884209D10322D22189
:102710009620FDF73FFE0422D2219620FDF73AFED7
:102720000F48008840F6FC01884209D10322962117
:10273000D220FDF72FFE04229621D220FDF72AFE9B
:102740000748008840F62E11884203DB0020044928
:10275000088000E054E600BF08BD0000923C00087D
:10276000080000203E00002040000020000400403F
:1027700030B52E4B1B6843436FF07F44B3FBF4F23C
:102780002A4B1B684343B3FBF4F504FB15310023CC
:102790004FF0E024A3616FF07F43636123461B6920
:1027A00023F0011323610AB323461B6943F001039D
:1027B00023610FE000BF4FF0E0231B6903F4803377
:1027C000002BF8D04FF0E0231B6923F480334FF047
:1027D000E0242361131EA2F10102EBD14FF0E023AC
:1027E0001B6923F001034FF0E0242361C1B14FF0D6
:1027F000E02359611B6943F001034FF0E02423619A
:1028000000BF4FF0E0231B6903F48033002BF8D0A6
:102810004FF0E0231B6923F001134FF0E024236104
:1028200000234FF0E0246361A36130BD6400002009
:1028300030B52F4B1B6843436FF07F44B3FBF4F27A
:102840002B4B1B684343B3FBF4F504FB153100230A
:102850004FF0E024A361264B1B684343636123468A
:102860001B6923F0011323610AB323461B6943F05C
:10287000010323610FE000BF4FF0E0231B6903F465
:102880008033002BF8D04FF0E0231B6923F4803312
:102890004FF0E0242361131EA2F10102EBD14FF0AF
:1028A000E0231B6923F001034FF0E0242361C1B151
:1028B0004FF0E02359611B6943F001034FF0E0241E
:1028C000236100BF4FF0E0231B6903F48033002B2A
:1028D000F8D04FF0E0231B6923F001134FF0E02400
:1028E000236100234FF0E0246361A36130BD000049
:1028F0006800002008B52E48402380220021009067
:102900000846FEF739F9FEF7B5F978212948FFF7AF
:1029100068F978212748FFF766F9B4212548FFF7C1
:1029200064F9B4212348FFF762F93DE022480088AA
:10293000401C214908800120FFF71AFF96211F48FB
:10294000FFF74FF91C480088C8280FD1BE2119484D
:10295000FFF747F946211748FFF745F96E2115485B
:10296000FFF743F9E6211348FFF741F912480088C1
:10297000B0F5C87F0FD178210E48FFF732F97821E2
:102980000C48FFF730F9B4210A48FFF72EF9B421BB
:102990000848FFF72CF908480088B0F5167F03D1E6
:1029A00000200549088000E0C0E700BF08BD000026
:1029B000926E00080008004008000020000400405B
:1029C00008B52C4840238022002100900846FEF7DD
:1029D000D3F8FEF74FF932212748FFF702F9BE215D
:1029E0002548FFF700F9FA212348FFF7FEF86E218A
:1029F0002148FFF7FCF839E020480088401C1F49B7
:102A000008800120FFF7B4FE1D4800881D49098891
:102A100008441B49088008460088FA2806DBFA208B
:102A200008804FF0FF301749088009E014480088FB
:102A3000322805DC32201249088001201149088023
:102A40000E49088800EBD0714910A0EB410121B973
:102A50000B4801880C48FFF7C4F808480088B0F517
:102A6000167F03D100200549088000E0C4E700BFBD
:102A700008BD0000925C000800080040080000202B
:102A80004200002044000020000400404FF4A060F9
:102A9000FDF746FF042000F093F9FDF75BFE4FF4CD
:102AA000E130FFF75BF94FF4E130FFF759FA4FF4EB
:102AB0001650FFF747FBFEF701F8FDF73BFF40F22A
:102AC000CF2140F2CF70FEF71DFE40F2CF2140F241
:102AD000CF70FEF759FE40F2CF2140F2CF70FEF7E3
:102AE00095FE40F2CF2140F2CF70FEF7D1FE40F2CA
:102AF000CF2140F2CF70FEF7C3FDFEF733FCFEF7A7
:102B0000B9FC6BE036480068012802D1FEF720FDD1
:102B100060E033480068022802D1FDF78BFB59E0E2
:102B20002F480068032802D1FEF7F8F852E02C483D
:102B30000068042802D1FDF729FE4BE02848006810
:102B4000052802D1FEF720FA44E02548006806284F
:102B500002D1FDF747FD3DE021480068072802D17A
:102B6000FEF79AFB36E01E480068082802D1FEF7FF
:102B7000F9FB2FE01A480068092802D1FEF792FA03
:102B800028E0174800680A2802D1FFF72DFC21E051
:102B9000134800680B2802D1FFF712FF1AE0104813
:102BA00000680C2802D1FFF7A5FE13E00C4800686E
:102BB0000D2802D100F016F80CE0094800680E2834
:102BC00002D100F075F805E0054800680F2801D132
:102BD000FDF780FD00BF0A20FFF7CAFD92E7000065
:102BE0000400002008B52C484023802200210090DA
:102BF0000846FDF7C1FFFEF73DF84B212748FEF7D9
:102C0000F0FF4B212548FEF7EEFF96212348FEF703
:102C1000ECFF96212148FEF7EAFF39E020480088C2
:102C2000401C1F4908800120FFF7A2FD1D480088B5
:102C30001D49098808441B49088008460088FA286D
:102C400006DBFA2008804FF0FF301749088009E0C2
:102C500014480088322805DC3220124908800120FF
:102C6000114908800E49088800EBD0714910A0EB8B
:102C7000410121B90B4801880C48FEF7B2FF084812
:102C80000088B0F5167F03D100200549088000E0D8
:102C9000C4E700BF08BD00009258000800080040CB
:102CA000080000203A0000203C0000200004004002
:102CB00008B5FDF73FFE96213948FEF792FF9621B1
:102CC0003748FEF790FF96213548FEF78EFF962194
:102CD0003348FEF78CFF5FE032480088401C3149E2
:102CE000088008460088B0F5C87F09D12E484023E7
:102CF0001A46002100902020FDF73EFFFDF7BAFFA5
:102D000028480088B0F5487F0CD1284840231A464F
:102D1000002100902020FDF72FFFFDF7ABFF0020E2
:102D20002049088022480088401C21490880012051
:102D3000FFF71EFD1F4800881F49098808441D49E8
:102D4000088008460088FA2806DBFA2008804FF041
:102D5000FF301949088009E016480088322805DC50
:102D6000322014490880012013490880104908883E
:102D700000EBD0714910A0EB410121B90D48018849
:102D80000E48FEF72EFF0A480088B0F5167F03D1E3
:102D900000200749088000E09EE700BF08BD000052
:102DA000000800400C0000209264000892660008B1
:102DB00008000020460000204800002000040040D9
:102DC00042F228310C4A116009210C4A116000219D
:102DD0004FF0E02211615161916104280AD111463E
:102DE000096941F0040111610549034A1160482154
:102DF000024A116070470000640000206800002053
:102E00004019010000000000000000000000000068
:102E100000000000000000F8000000000000003387
:102E20003000000000160E00160E0000000000002A
:102E30000000000040C07840C0784000043F040417
:102E40003F040400007088FC08300000001820FFD8
:102E5000211E0000F008F000E018000000211C0313
:102E60001E211E0000F00888700000001E2123248F
:102E700019272110000000160E00000000000000BD
:102E800000000000000000E018040200000000073D
:102E90001820400000020418E00000000040201844
:102EA00007000000404080F0804040000202010F17
:102EB00001020200000000F0000000000101011FFB
:102EC00001010100000000000000000000B07000DF
:102ED00000000000000000000000000000010101EF
:102EE000010101010000000000000000003030007E
:102EF0000000000000000000806018040060180658
:102F00000100000000E010080810E000000F102091
:102F100020100F00001010F8000000000020203FDB
:102F20002020000000700808088870000030282465
:102F30002221300000300888884830000018202006
:102F400020110E000000C02010F80000000704242B
:102F5000243F240000F80888880808000019212070
:102F600020110E0000E0108888180000000F1120CA
:102F700020110E0000380808C83808000000003F83
:102F8000000000000070880808887000001C2221E2
:102F900021221C0000E010080810E000000031228F
:102FA00022110F00000000C0C0000000000000302F
:102FB00030000000000000C0C0000000000080B031
:102FC0007000000000008040201008000001020492
:102FD00008102000404040404040400004040404E9
:102FE00004040400000810204080000000201008A5
:102FF00004020100007048080808F00000000030DA
:1030000036010000C030C828E810E0000718272467
:1030100023140B000000C038E0000000203C230215
:103020000227382008F8888888700000203F202078
:1030300020110E00C03008080808380007182020AA
:103040002010080008F808080810E000203F2020A1
:1030500020100F0008F88888E8081000203F202082
:103060002320180008F88888E8081000203F200076
:1030700003000000C03008080838000007182020AE
:10308000221E020008F808000008F808203F21016D
:1030900001213F20000808F8080800000020203F18
:1030A0002020000000000808F8080800C080808088
:1030B0007F00000008F888C028180800203F200181
:1030C0002638200008F8080000000000203F2020DB
:1030D0002020300008F8F800F8F80800203F003FF2
:1030E000003F200008F830C00008F808203F20000A
:1030F00007183F00E01008080810E0000F1020201B
:1031000020100F0008F808080808F000203F2101EF
:1031100001010000E01008080810E0000F18242446
:1031200038504F0008F8888888887000203F2000B9
:10313000030C30200070880808083800003820216F
:1031400021221C00180808F8080818000000203F79
:103150002000000008F808000008F808001F2020E0
:1031600020201F000878880000C8380800000738B1
:103170000E010000F80800F80008F800033C070002
:10318000073C0300081868808068180820302C036A
:10319000032C30200838C800C83808000000203F41
:1031A0002000000010080808C83808002038262130
:1031B00020201800000000FE020202000000007F34
:1031C00040404000000C30C0000000000000000142
:1031D0000638C00000020202FE000000004040402D
:1031E0007F000000002010080408102000000000EC
:1031F00000000000000000000000000080808080CF
:1032000080808080000204080000000000000000B0
:10321000000000000000808080800000001924224F
:1032200022223F2008F8008080000000003F11208B
:1032300020110E000000008080800000000E112090
:1032400020201100000000808088F800000E11206E
:1032500020103F200000808080800000001F22227C
:1032600022221300008080F0888888180020203FE8
:10327000202000000000808080808000006B9494FB
:103280009493600008F8008080800000203F2100B7
:1032900000203F2000809898000000000020203F80
:1032A00020200000000000809898000000C080806E
:1032B000807F000008F8000080808000203F24020A
:1032C0002D302000000808F8000000000020203FFA
:1032D000202000008080808080808000203F2000AF
:1032E0003F20003F008080008080000000203F21C0
:1032F00000203F200000808080800000001F2020F0
:1033000020201F00808000808000000080FFA1201E
:1033100020110E000000008080808000000E11202F
:1033200020A0FF80808080008080800020203F21BE
:103330002000010000008080808080000033242471
:1033400024241900008080E0808000000000001F1D
:10335000202000008080000000808000001F2020CE
:1033600020103F20808080000080808000010E308F
:103370000806010080800080008080800F300C03F0
:103380000C300F0000808000808080000020312EF3
:103390000E312000808080000080808080818E70CF
:1033A0001806010000808080808080000021302C81
:1033B0002221300000000000807C0202000000009A
:1033C000003F404000000000FF000000000000003F
:1033D000FF0000000002027C800000000040403F2F
:1033E00000000000008040408000008000000000DD
:1033F000000101000000000000000000002F00009C
:1034000000000700070000147F147F1400242A7FA7
:103410002A12002313086462003649552250000026
:103420000007000000001C224100000041221C0097
:103430000014083E08140008083E0808000000A018
:103440006000000808080808000060600000002014
:1034500010080402003E5149453E0000427F4000F2
:10346000004261514946002141454B310018141278
:103470007F10002745454539003C4A494930000145
:103480007109050300364949493600064949291E94
:1034900000003636000000005636000000081422F6
:1034A00041000014141414140000412214080002F6
:1034B00001510906003E4955592E007C1211127C1B
:1034C000007F49494936003E41414122007F414148
:1034D000221C007F49494941007F09090901003E3A
:1034E0004149497A007F0808087F0000417F410078
:1034F000002040413F01007F08142241007F4040EE
:103500004040007F020C027F007F0408107F003ED5
:103510004141413E007F09090906003E4151215EBB
:10352000007F091929460046494949310001017FB8
:103530000101003F4040403F001F2040201F003F4E
:103540004038403F00631408146300070870080700
:1035500000615149454300007F41410000020408D9
:103560001020000041417F000004020102040040DD
:1035700040404040000001020400002054545478B0
:10358000007F4844443800384444442000384444D0
:10359000487F00385454541800087E09010200186E
:1035A000A4A4A47C007F080404780000447D4000AB
:1035B000004080847D00007F102844000000417F8F
:1035C0004000007C04180478007C0804047800386B
:1035D0004444443800FC242424180018242418FCF3
:1035E000007C0804040800485454542000043F445C
:1035F0004020003C4040207C001C2040201C003C1F
:103600004030403C004428102844001CA0A0A07C6E
:10361000004464544C440000087F41000000007FD7
:1036200000000000417F0800000804081008A3AC57
:10363000000000000000000000000000000000008A
:1036400000000058380000000000000000000000EA
:1036500000A1A30000000000000000000000000026
:1036600000000000000018242418000000000000E2
:1036700000000000C4E300008060F8074020180F3D
:1036800008C80808281800010000FF00100C0340BB
:10369000807F0001061800BAC3001010F01F10F060
:1036A00000808282E2928A8680004022150816619C
:1036B000000040807F0000000000CAC000202020E1
:1036C000FE2020FF202020FF2020202000000000DE
:1036D0007F404047444444474040400000BDE7002D
:1036E000000000FE929292FE929292FE0000000074
:1036F00008080484621E010001FE02040408080098
:10370000BFAA0080828282FE8282828282FE8282C0
:10371000828000008040300F0000000000FF0000A9
:10372000000000D0C4000000800000E00204180087
:10373000000040800000100C0300003F404040406B
:10374000407800010E00D6B500008060F80704E460
:10375000A4A4BFA4A4E4040000010000FF40407F33
:103760004A4A4A4A4A7F4040003A000000000000AE
:1037700000000000000000000000000000003636DD
:10378000000000000000000000000000CCE5000088
:103790008060F807101010D0FFD01010100000014A
:1037A0000000FF1008040B08FF080B04081000C1FC
:1037B000A600001010101010FF1010101010F000D4
:1037C00000000080402018060100204080403F009B
:1037D0000000000000FF0101013109090909897198
:1037E00001010101FFFF80808080808096818080C0
:1037F00080808080FFFF01818181FD8991A1C1FDD1
:1038000081818101FFFF808080809F888482819FE9
:1038100080808080FFFFFFFFFFFFFFFFFFFFFFFFB4
:10382000FFFFFFFFFFFFFFFFFFFFFFFFFFFFFFFFA8
:10383000FFFFFFFFFFFFFFFFFFFFFFFFFFFFFFFF98
:10384000FFFFFFFFFFFFFFFFFFFFFFFFFFFFFFFF88
:10385000FFFFFFFFFFFFFFFFFFFFFFFFFFFFFFFF78
:103860000101010101010101010101010101010148
:10387000010101010101010101FFFFFFFFFFFFFF46
:10388000FFFFFFFFFFFFFFFFFFFFFFFFFFFFFFFF48
:10389000FFFF00000000000000000000000000002A
:1038A0000000000000000000000000000000000018
:1038B0000000000000000000000000000000000008
:1038C00000000000000000000000000000000000F8
:1038D00000000000000000000000000000000000E8
:1038E00000000000000000000000000000000000D8
:1038F00000000000000000000000000000000000C8
:1039000000000000000000000000000000000000B7
:1039100000000000000000000000000000000000A7
:103920000000000000000000000000000000000097
:103930008080800000000000000000000000000007
:103940000000000000000000000000000000000077
:103950000000000000000000000000000000000067
:103960000000000000000000000000000000000057
:1039700000008080800000000000000000000000C7
:103980000000000000000000000000000000000037
:103990000000000000000000000000000000000027
:1039A0000000000000000000000000F0F8FEFFFF33
:1039B000FFFFFFFFFFFEF8F0000000000000000026
:1039C00000000000000000000000000000000000F7
:1039D00000000000000000000000000000000000E7
:1039E00000000000000000000000000000F0F8FEF1
:1039F000FFFFFFFFFFFFFFFEF8F0000000000000E8
:103A000000000000000000000000000000000000B6
:103A100000000000000000000000000000000000A6
:103A20000000000000000000000000FFFFFFFFFF9B
:103A3000FFFFFFFFFFFFFFFF00000000000000008E
:103A40000000000000000000000000000000000076
:103A50000000000000000000000000000000000066
:103A600000000000000000000000000000FFFFFF59
:103A7000FFFFFFFFFFFFFFFFFFFF00000000000050
:103A80000000000000000000000000000000000036
:103A90000000000000000000000000000000000026
:103AA0000000000000000000000000FFFFFFFFFF1B
:103AB000FFFFFFFFFFFFFFFF00000000000000000E
:103AC00000000000000000000000000000000000F6
:103AD00000000000000000000000000000000000E6
:103AE00000000000000000000000000000FFFFFFD9
:103AF000FFFFFFFFFFFFFFFFFFFF000000000000D0
:103B000000000000000000000000000000000000B5
:103B100000000000000000000000000000000000A5
:103B200000000000000000000000001F3FFFFFFF3A
:103B3000FFFFFFFFFFFF3F1F00000000000000002D
:103B40000000000000000000000000000000000075
:103B50000000000000000000000000000000000065
:103B6000000000000000000000000000001F3FFFF8
:103B7000FFFFFFFFFFFFFFFF3F1F000000000000EF
:103B80000000000000000000000000000000000035
:103B90000000000000000000000000000000000025
:103BA0000000000000000000000000000000010113
:103BB00003030301010000000000000000000000FA
:103BC00000000000000000000000000000000000F5
:103BD00000000000000000000000000000000000E5
:103BE00000000000000000000000000000000000D5
:103BF00001010303030101000000000000000000B8
:103C000000000000000000000000000000000000B4
:103C100000000000000000000000000000000000A4
:103C20000000000000000000000000000000000094
:103C30000000000000000000000000000000000084
:103C40000000000000000000000000000000000074
:103C50000000000000000000000000000000000064
:103C60000000000000000000000000000000000054
:103C70000000000000000000000000000000000044
:103C80000000000000000000000000000000000034
:103C90000000000000000000000000000000000024
:103CA0000000000000000000000000000000000014
:103CB0000000000000000000000000000000000004
:103CC00000000000000000000000000000000000F4
:103CD00000000000000000000000000000000000E4
:103CE00000000000000000000000000000000000D4
:103CF00000000000000000000000000000000000C4
:103D000000000000000000000000000000000000B3
:103D100000000000000000000000000000000000A3
:103D20000000000000000000000000000000000093
:103D30000000000000000000000000000000000083
:103D40000000000000000000000000000000000073
:103D50000000000000000000000000000000000063
:103D60000000000000000000000000000000000053
:103D70000000000000000000000000000000000043
:103D80000000000000000000000000000000000033
:103D90000000000000000000000000000000000023
:103DA00000000000FFFFFEFEFCFCF8F8F0F0E0E091
:103DB000C0C0808000000000000000000000000083
:103DC00000000000000000000000000000000000F3
:103DD00000000000000000000000000000000000E3
:103DE00000000000000000000000000000000000D3
:103DF00000008080C0C0E0E0F0F0F8F8FCFCFEFEBF
:103E0000FF000000000000000000000000000000B3
:103E100000000000000000000000000000000000A2
:103E2000000000000000010101030307070F0F1F3E
:103E30001F1F3F3F7F7FFEFEFEFCFCF8F8F0F0E026
:103E4000E0C00000000000000000000000000000D2
:103E50000000000000000000000000000000000062
:103E600000000000C0C0E0E0F0F0F8F8FCFCFEFE4E
:103E70007F7F3F3F3F1F1F0F0F0707030303010112
:103E80000000000000000000000000000000000032
:103E90000000000000000000000000000000000022
:103EA0000000000000000000808080C0C0E0E0F062
:103EB000F0F0F8F8FCFCFCFEFF7F7F3F3F1F1F0F78
:103EC0000F070000000000000000000000000000DC
:103ED00000000000000000000000000000000000E2
:103EE000000000000F0F1F1F3F3F7F7FFFFFFCFC04
:103EF000FCF8F8F0F0E0E0E0C0C080808000000056
:103F000000000000000000000000000000000000B1
:103F100000000000000000000000000000000000A1
:103F200000000000FEFEFF7F7F7F3F3F1F1F0F0F3F
:103F3000070703030101010000000000000000006A
:103F40000000000000000000000000000000000071
:103F50000000000000000000000000000000000061
:103F6000000000000000000000000000000001014F
:103F700003030307070F0F1F1F3F3F7F7FFFFFFE56
:103F8000FE00000000000000000000000000000033
:103F90000000000000000000000000000000000021
:103FA0000000000001000000000000000000000010
:103FB0000000000000000000000000000000000001
:103FC00000000000000000000000000000000000F1
:103FD00000000000000000000000000000000000E1
:103FE00000000000000000000000000000000000D1
:103FF00000000000000000000000000000000000C1
:1040000001000000000000000000000000000000AF
:1040100000000000000000000000000000000000A0
:104020000000000000000000000000000000000090
:104030000000000000000000000000000000000080
:104040000000000000000000000000000000000070
:104050000000000000000000000000000000000060
:104060000000000000000000000000000000000050
:104070000000000000000000000000000000000040
:104080000000000000000000000000000000000030
:104090000000000000000000000000000000000020
:1040A0000000000000000000000000000000000010
:1040B0000000000000000000000000000000000000
:1040C00000000000000000000000000000000000F0
:1040D00000000000000000000000000000000000E0
:1040E00000000000000000000000000000000000D0
:1040F00000000000000000000000000000000000C0
:1041000000000000000000000000000000000000AF
:10411000000000000000000000000000000000009F
:1041200000008080C0C0C0800000000000000000CF
:10413000000000000000000000000000000000007F
:10414000000000000000000000000000000000006F
:10415000000000000000000000000000000000005F
:1041600000008080C0C0C08000000000000000008F
:10417000000000000000000000000000000000003F
:10418000000000000000000000000000000000002F
:10419000000000000000000000000000000000E03F
:1041A000FFFFFFFFFFFFFFFFFE0000000000000019
:1041B00000000000000000000000000000000000FF
:1041C00000000000000000000000000000000000EF
:1041D000000000000000000000000000000000E0FF
:1041E000FFFFFFFFFFFFFFFFFE00000000000000D9
:1041F00000000000000000000000000000000000BF
:1042000000000000000000000000000000000000AE
:104210000000000000000000000000000000FFFFA0
:10422000FFFFFFFFFFFFFFFFFF0000000000000097
:10423000000000000000000000000000000000007E
:10424000000000000000000000000000000000006E
:104250000000000000000000000000000000FFFF60
:10426000FFFFFFFFFFFFFFFFFF0000000000000057
:10427000000000000000000000000000000000003E
:10428000000000000000000000000000000000002E
:104290000000000000000000000000000000FFFF20
:1042A000FFFFFFFFFFFFFFFFFF0000000000000017
:1042B00000000000000000000000000000000000FE
:1042C00000000000000000000000000000000000EE
:1042D0000000000000000000000000000000FFFFE0
:1042E000FFFFFFFFFFFFFFFFFF00000000000000D7
:1042F00000000000000000000000000000000000BE
:1043000000000000000000000000000000000000AD
:104310000000000000000000000000000000000796
:10432000FFFFFFFFFFFFFFFF7F0000000000000016
:10433000000000000000000000000000000000007D
:10434000000000000000000000000000000000006D
:104350000000000000000000000000000000000756
:10436000FFFFFFFFFFFFFFFF7F00000000000000D6
:10437000000000000000000000000000000000003D
:10438000000000000000000000000000000000002D
:10439000000000000000000000000000000000001D
:1043A0000000010103030301000000000000000001
:1043B00000000000000000000000000000000000FD
:1043C00000000000000000000000000000000000ED
:1043D00000000000000000000000000000000000DD
:1043E00000000101030303010000000000000000C1
:1043F00000000000000000000000000000000000BD
:1044000000000000000000000000000000000000AC
:10441000000000000000000000000000000000009C
:10442000000000000000000000000000000000008C
:10443000000000000000000000000000000000007C
:10444000000000000000000000000000000000006C
:10445000000000000000000000000000000000005C
:10446000000000000000000000000000000000004C
:10447000000000000000000000000000000000003C
:10448000000000000000000000000000000000002C
:10449000000000000000000000000000000000001C
:1044A000000000000000000000000000000000000C
:1044B00000000000000000000000000000000000FC
:1044C00000000000000000000000000000000000EC
:1044D00000000000000000000000000000000000DC
:1044E00000000000000000000000000000000000CC
:1044F00000000000000000000000000000000000BC
:1045000000000000000000000000000000000000AB
:10451000000000000000000000000000000000009B
:10452000000000000000000000000000000000008B
:1045300000000000000000000000000080C0C0C0BB
:10454000808000000000000000000000000000006B
:10455000000000000000000000000000000000005B
:10456000000000000000000000000000000000004B
:1045700000000000000000000000000080C0C0C07B
:10458000808000000000000000000000000000002B
:10459000000000000000000000000000000000001B
:1045A000000000000000000000000000000000000B
:1045B0000000000000000000000000FEFFFFFFFF01
:1045C000FFFFFFFFE000000000000000000000000F
:1045D00000000000000000000000000000000000DB
:1045E00000000000000000000000000000000000CB
:1045F0000000000000000000000000FEFFFFFFFFC1
:10460000FFFFFFFFE00000000000000000000000CE
:10461000000000000000000000000000000000009A
:10462000000000000000000000000000000000008A
:104630000000000000000000000000FFFFFFFFFF7F
:10464000FFFFFFFFFFFF0000000000000000000070
:10465000000000000000000000000000000000005A
:10466000000000000000000000000000000000004A
:104670000000000000000000000000FFFFFFFFFF3F
:10468000FFFFFFFFFFFF0000000000000000000030
:10469000000000000000000000000000000000001A
:1046A000000000000000000000000000000000000A
:1046B0000000000000000000000000FFFFFFFFFFFF
:1046C000FFFFFFFFFFFF00000000000000000000F0
:1046D00000000000000000000000000000000000DA
:1046E00000000000000000000000000000000000CA
:1046F0000000000000000000000000FFFFFFFFFFBF
:10470000FFFFFFFFFFFF00000000000000000000AF
:104710000000000000000000000000000000000099
:104720000000000000000000000000000000000089
:1047300000000000000000000000007FFFFFFFFFFE
:10474000FFFFFFFF07000000000000000000000066
:104750000000000000000000000000000000000059
:104760000000000000000000000000000000000049
:1047700000000000000000000000007FFFFFFFFFBE
:10478000FFFFFFFF07000000000000000000000026
:104790000000000000000000000000000000000019
:1047A0000000000000000000000000000000000009
:1047B00000000000000000000000000001030303EF
:1047C00001010000000000000000000000000000E7
:1047D00000000000000000000000000000000000D9
:1047E00000000000000000000000000000000000C9
:1047F00000000000000000000000000001030303AF
:1048000001010000000000000000000000000000A6
:104810000000000000000000000000000000000098
:104820000000000000000000000000000000000088
:104830000000000000000000000000000000000078
:104840000000000000000000000000000000000068
:104850000000000000000000000000000000000058
:104860000000000000000000000000000000000048
:104870000000000000000000000000000000000038
:104880000000000000000000000000000000000028
:104890000000000000000000000000000000000018
:1048A0000000000000000000000000000000000008
:1048B00000000000000000000000000000000000F8
:1048C00000000000000000000000000000000000E8
:1048D00000000000000000000000000000000000D8
:1048E00000000000000000000000000000000000C8
:1048F00000000000000000000000000000000000B8
:1049000000000000000000000000000000000000A7
:104910000000000000000000000000000000000097
:104920000000000000000000000000000000000087
:104930000000000000000000000000000000000077
:1049400000000080808000000000000000000000E7
:104950000000000000000000000000000000808057
:104960000000000000000000000000000000000047
:104970000000000000000000000000000000000037
:104980000000000000000000000000000000000027
:104990000000000000000000000000000000000017
:1049A000000000000000000000C0C0808000000087
:1049B00000000000000000000000000000000000F7
:1049C0000000000F7FFFFEF8E0C080000000000044
:1049D000000000000000000000C0E0F8FEFF7F1FA4
:1049E0000E000000000000000000000000000000B9
:1049F00000000000000000000000000000000000B7
:104A000000000000000000000000000000000000A6
:104A10000000000000000000000000000000000096
:104A20000000000000000000000303070F0F3F7F9D
:104A30007EFCF0F0E0E0C00000000000000000009C
:104A40000000000000000303070F0F1F3E3C7C78AE
:104A500070F0F0F078787C3C3F1F0F0703010000F6
:104A6000000000000000000000000080C0C0E0F076
:104A700078381C1F0F0F0600000000000000000027
:104A80000000000000000000000000000000000026
:104A90000000000000000000000000000000000016
:104AA000000000000080808080808080C0C0C0C086
:104AB000E0E0E1E3E7EFEFFFFEFCFCF8F8E0C00028
:104AC00000000000000000000000000000000000E6
:104AD00000000000000000000000000000000000D6
:104AE000000040C0E0F0F8FCFEDECFCFC7C3C1C07D
:104AF000C0808080808080808000000000000000F6
:104B000000000000000000000000000000000000A5
:104B10000000000000000000000000000000000095
:104B20000000060F0707070707070303030101013A
:104B3000018180C0E0F0F87C7F1F1F0F0707000095
:104B40000000000000000000000000000000000065
:104B50000000000000000000000000000000000055
:104B60000000000103070F1F1F7D79F9F3F3E3C372
:104B700083830303030707070707070707030000EB
:104B80000000000000000000000000000000000025
:104B90000000000000000000000000000000000015
:104BA0000000000000000080E0E0F078783C3E1E4D
:104BB0001F0F0703030100000000000000000000B9
:104BC00000000000000000000000000000000000E5
:104BD00000000000000000000000000000000000D5
:104BE00000000000000000000000000001010303BD
:104BF00007070F3F3E3C78700000000000000000F7
:104C000000000000000000000000000000000000A4
:104C10000000000000000000000000000000000094
:104C20000000000000000001010100000000000081
:104C30000000000000000000000000000000000074
:104C40000000000000000000000000000000000064
:104C50000000000000000000000000000000000054
:104C60000000000000000000000000000000000044
:104F20000000000000003E3E3C3838383838383841
:104F300038383838383838383838383838383838F1
:104F40003838383C3C3C0000000000000000003CC9
:104F50003C3C3838383838383838383838383838C9
:104F6000383838383838383838383838383C3E3EB1
:104F70000000000000000000000000000000000031
:104F80000000000000000000000000000000000021
:104F90000000000000000000000000000000000011
:104FA0000000000000000000000000000000000001
:104FB00000000000000000000000000000000000F1
:104FC00000000000000000000000000000000000E1
:104FD00000000000000000000000000000000000D1
:104FE00000000000000000000000000000000000C1
:104FF00000000000000000000000000000000000B1
:1050000000000000000000000000000000000000A0
:105010000000000000000000000000000000000090
:105020000000000000000000000000000000000080
:105030000000000000000000000000000000000070
:105040000000000000000000000000000000000060
:105050000000000000000000000000000000000050
:105060000000000000000000000000000000000040
:105070000000000000000000000000000000000030
:105080000000000000000000000000000000000020
:105090000000000000000000000000000000000010
:1050A0000000000000000000000000000000000000
:1050B00000000000000000000000000000000000F0
:1050C00000000000000000000000000000000000E0
:1050D00000000000000000000000000000000000D0
:1050E00000000000000000000000000000000000C0
:1050F00000000000000000000000000000000000B0
:10510000000000000000000000000000000000009F
:10511000000000000000000000000000000000008F
:10512000000000000000000000000000000000007F
:10513000000000000000000000000000000000006F
:105140000000000000000000000000E0F8FCFEFE8F
:10515000FFFFFFFFFFFFFEFEF8F000000000000071
:10516000000000000000000000000000000000003F
:10517000000000000000000000000000000000002F
:10518000000000000000000000000000000000001F
:10519000000000000000000000000000000000000F
:1051A00000000000000000000000000000000000FF
:1051B00000000000000000000000000000000000EF
:1051C000000000000000000000000001071F1F3F5A
:1051D0003F7F7F7F3F3F1F0F07030000000000005D
:1051E00000000000000000000000000000000000BF
:1051F00000000000000000000000000000000000AF
:10520000000000000000000000000000000000009E
:10521000000000000000000000000000000000008E
:10522000000000000000000000008080C0E0E0609E
:1052300070707070707070E0E0000000000000009E
:10524000000000000000000000000000000000005E
:10525000000000000000000000000000000000004E
:10526000000000000000008080C0E0E0F07070707E
:1052700070707060E0E0800000000000000000003E
:10528000000000000000000000000000000000001E
:10529000000000000000000000000000000000000E
:1052A00000000000000000F8FCFF3F030100F0F8E0
:1052B000181C0C8C8C8C0C1C3870E0C0000000009A
:1052C00000000000000000000000000000000000DE
:1052D00000000000000000000000000000000000CE
:1052E0000000C0F8FCFE0F030381E1F078381C1CBD
:1052F0009C8C8C0C1C1C3870E0C00000000000006E
:10530000000000000000000000000000000000009D
:10531000000000000000000000000000000000008D
:10532000000000000000000F3FFFE0C08080878F7A
:105330001E1818191F0F0080E0F87F3F00000000C2
:10534000000000000000000000000000000000005D
:10535000000000000000000000000000000000004D
:1053600000003FFF7FE0C08000031F3F387870706F
:1053700079793F1F00000080F9FF0E000000000057
:10538000000000000000000000000000000000001D
:10539000000000000000000000000000000000000D
:1053A00000000000000000000000010101030307ED
:1053B00007070707070703030100000000000000BC
:1053C00000000000000000000000000000000000DD
:1053D00000000000000000000000000000000000CD
:1053E00000000000000303070E0E0C0C1C18181818
:1053F000181C0C0C0E0E070301000000000000003A
:10540000000000000000000000000000000000009C
:10541000000000000000000000000000000000008C
:10542000000000000000000000000000000000007C
:10543000000000000000000000000000000000006C
:1056200000000080808080800000000000000000FA
:1056300000008080800000000000000000000000EA
:10564000000000000000000000000000000000005A
:10565000000000000000000000000000000000004A
:10566000000000000000000000000000000000003A
:1056700000000000008080808080000000000000AA
:10568000000000008080800000000000000000009A
:105690000000000000000000000000000000183CB6
:1056A0003E3F1F0F070707070F1F1F1E3C3C3C3CD8
:1056B0003E3F1F0F07030000000000000000000035
:1056C000FCFCFC8C8C8C8C8C8C8C8C8C8C8C8C8CCA
:1056D0008C8C8C8C8C8C8C8C8C8C8C8C8C8C8C8C0A
:1056E0000C0C0CFCFC00000000000000000000009E
:1056F000183C3E3F1F0F070707070F1F1F1E3C3CAC
:105700003C3C3E3F1F0F070300000000000000006C
:105710000000000000000000000000000000000089
:105720000000000000000000000000000000000079
:105730000000000000000000000000000000000069
:105740000101010101010101010101010101010149
:10575000010101010101010101010101017F7F7FBF
:105760007070707F7F0000000000000000000000EB
:105770000000000000000000000000000000000029
:105780000000000000000000000000000000000019
:105790000000000000000000000000000000000009
:1057A00000000000000000000000000000000000F9
:1057B00000000000000000000000000000000000E9
:1057C00000000000000000000000000000000000D9
:1057D00000000000000000000000000000000000C9
:1057E00000000000000000000000000000000000B9
:1057F00000000000000000000000000000000000A9
:105800000000000000000000000000000000000098
:105810000000000000000000000000000000000088
:105820000000000000000000000000000000000078
:105830000000000000000000000000000000000068
:105840000000000000000000000000000000000058
:105850000000000000000000000000000000000048
:105860000000000000000000000000000000000038
:105870000000000000000000000000000000000028
:105880000000000000000000000000000000000018
:105890000000000000000000000000000000000008
:1058A00000000000000000000000000000000000F8
:1058B00000000000000000000000000000000000E8
:1058C00000000000000000000000000000000000D8
:1058D00000000000000000000000000000000000C8
:1058E00000000000000000000000000000000000B8
:1058F00000000000000000000000000000000000A8
:105900000000000000000000000000000000000097
:105910000000000000000000000000000000000087
:105920000000000000000000000000000000000077
:105930000000000000000000000000000000000067
:1059400000000080C0C0E0E0E0E0E0E0E0C08000F7
:105950000000000080C0E0E0E0E0E0E0C0C08000C7
:105960000000000000000000000000000000000037
:105970000000000000000000000000000000000027
:105980000000000000000000000000000000000017
:105990000000000000000000000000000000000007
:1059A00000000000000000000000000000000000F7
:1059B00000000000000000000000000000000000E7
:1059C000007EFFFF830100000000000101030F7F44
:1059D000FEF8FE7F0F030101000000000183FFFFBE
:1059E0007E00000000000000000000000000000039
:1059F00000000000000000000000000000000000A7
:105A00000000000000000000000000000000000096
:105A10000000000000000000000000000000000086
:105A200000000000207070F0E0E0C0800000000086
:105A30000000000000000000000000000000000066
:105A40000000010707030000000000000000000044
:105A50000000000000000000000000000307070134
:105A60000000000000000000000000000000000036
:105A700000000000008080C0E0E0F87838300000CE
:105A80000000000000000000000000000000000016
:105A90000000000000000000000000000000000006
:105AA00000000000000000000001030307070F0EC4
:105AB0001C1C3870F0E0C0C0800000000000000036
:105AC00000000000000000000000000000000000D6
:105AD00000000000000000000000000000000000C6
:105AE00000000000000000008080C0C0E0F0F8F876
:105AF0007C7C3E1F1F0F0703010000000000000018
:105B00000000000000000000000000000000000095
:105B10000000000000000000000000000000000085
:105B20001C1C1C1C1E1E1E0E0E0E0E0E0E0F8F8F2A
:105B3000C7E7F7777F3F1F0F070300000000000053
:105B40000000000000000000000000000000000055
:105B50000000000000000000000000000000000045
:105B600000000000000002070F1F3F3F7FFFFEEE16
:105B7000CECE8E8E0E0E0E1C1C1C1C1C1C1C1C1C47
:105B80003C3C382000000000000000000000000045
:105B90000000000000000000000000000000000005
:105BA00000000000C0C0E0F0F8383C1E0E070703FC
:105BB00003010000000000000000000000000000E1
:105BC00000000000000000000000000000000000D5
:105BD00000000000000000000000000000000000C5
:105BE00000000000000000000000000000000001B4
:105BF000010307070F1E3E3C78F8F0E0E0C080008C
:105C00000000000000000000000000000000000094
:105C10000000000000000000000000000000000084
:105C20000000000000010100000000000000000072
:105C30000000000000000000000000000000000064
:105C40000000000000000000000000000000000054
:105C50000000000000000000000000000000000044
:105C60000000000000000000000000000000000034
:105C70000000000000000000000001010101000020
:105C80000000000000000000000000000000000014
:105C90000000000000000000000000000000000004
:105CA00000000000000000000000000000000000F4
:105CB00000000000000000000000000000000000E4
:105CC00000000000000000000000000000000000D4
:105CD00000000000000000000000000000000000C4
:105CE00000000000000000000000000000000000B4
:105CF00000000000000000000000000000000000A4
:105D00000000000000000000000000000000000093
:105D10000000000000000000000000000000000083
:105D200000000000000000000000000000808080F3
:105D3000808000000080C0C0E0E0C08000C0C06083
:105D4000606060E0C0C08080C0E0E0E0E0C0800053
:105D500080C0E0606060C0C080C0E060202060E083
:105D6000E080C0C0606060E0C0800080C0C040C013
:105D7000C0C0800000000000000000000000000023
:105D80000000000000000000000000000000000013
:105D90000000000000000000000000000000000003
:105DA00000000000000000000000FCFEC78381C16D
:105DB000C1C1C3FFFFE141606060607F7F7F7170A0
:105DC00070707030313B3F3F3130303031313F3FC8
:105DD0003F3F3130303030313F3F30303030303184
:105DE0007F7F7F7070707070633F7E7F61606060E6
:105DF00060616F7FF8C0C0C0C0C0C0C0C08000007C
:105E00000000000000000000000000000000000092
:105E10000000000000000000000000000000000082
:105E200000060E060606060707030303010101012B
:105E30000101000000000000000000000000000060
:105E40000000000000000000000000000000000052
:105E50000000000000000000000000000000000042
:105E60000000000000000000000000000000000032
:105E70000000000000000000000000000101000020
:105E80000000000000000000000000000000000012
:105E90000000000000000000000000000000000002
:105EA00000000000000000000000000000000000F2
:105EB00000000080F0F0F8FCFCFEFEFCFCF8F0C0F6
:105EC00000000000000000000000000000000000D2
:105ED00000000000000000000000000000000000C2
:105EE00000000000000000808000000000000000B2
:105EF0000000E0F8F8FCFCFCFCF8F0C0000000003A
:105F00000000000000000000000000000000000091
:105F10000000000000000000000000000000000081
:105F200000000000000000007FFEE0800000000094
:105F3000000000071F7FFFFFFFFFFFFFFFFFFF1FA6
:105F40000000000000000000000000000000000051
:105F50000000000000000000000000000000000041
:105F600000000000000000071F7CE080000000002F
