:020000040800F2
:10000000680B002089010008BD080008E10600080F
:10001000B90800089D030008432300080000000001
:10002000000000000000000000000000BD110008FA
:10003000A1030008000000002B0D00082D16000889
:10004000A3010008A3010008A3010008A301000800
:10005000A3010008A3010008A3010008A3010008F0
:10006000A3010008A3010008A3010008A3010008E0
:10007000A3010008A3010008A3010008A3010008D0
:10008000A3010008A3010008A3010008A3010008C0
:10009000A3010008A3010008A3010008A3010008B0
:1000A000A3010008A3010008A3010008A3010008A0
:1000B000A3010008A3010008A3010008A301000890
:1000C000A3010008A3010008A3010008A301000880
:1000D000A3010008A91C0008C11D0008A51F0008F5
:1000E000A3010008A3010008A301000800F002F822
:1000F00000F03AF80AA090E8000C82448344AAF188
:100100000107DA4501D100F02FF8AFF2090EBAE885
:100110000F0013F0010F18BFFB1A43F0010318473B
:100120007466000094660000103A24BF78C878C155
:10013000FAD8520724BF30C830C144BF04680C60ED
:10014000704700000023002400250026103A28BF35
:1001500078C1FBD8520728BF30C148BF0B60704739
:100160001FB51FBD10B510BD00F031F81146FFF7E7
:10017000F7FF02F055FC00F04FF803B4FFF7F2FF71
:1001800003BC00F057F800000948804709480047C1
:10019000FEE7FEE7FEE7FEE7FEE7FEE7FEE7FEE737
:1001A000FEE7FEE704480549054A064B7047000094
:1001B00031160008ED00000868050020680B0020DB
:1001C0006807002068070020704770477047754631
:1001D00000F02CF8AE4605006946534620F00700B3
:1001E000854618B020B5FFF7DDFFBDE820404FF091
:1001F00000064FF000074FF000084FF0000B21F011
:100200000701AC46ACE8C009ACE8C009ACE8C009DD
:10021000ACE8C0098D46704710B50446AFF30080C6
:100220002046BDE81040FFF7A8BF00000048704717
:100230000405002001491820ABBEFEE7260002009D
:100240007047000008B550484023802200210090EC
:10025000084600F099FC00F015FD91E04B4800883D
:10026000401C4A490880012002F04CFA48480088A6
:100270004849098808444649088008460088FA2801
:1002800006DBFA2008804FF0FF304249088009E081
:100290003F480088322805DC32203D490880012093
:1002A0003C4908803949088800EBD0714910A0EB1F
:1002B000410121B936480188374801F09AFC33489A
:1002C0000088322809D10122C321962000F06AF863
:1002D00002226921962000F065F82C4800889628B3
:1002E00009D104229621692000F05CF803229621AE
:1002F000C32000F057F825480088FA2809D10122C8
:100300006921C32000F04EF80222C321692000F0C9
:1003100049F81E480088B0F5AF7F09D10422C321F7
:10032000962000F03FF803226921962000F03AF869
:1003300016480088B0F5E17F09D101229621692095
:1003400000F030F802229621C32000F02BF80F486D
:10035000008840F22621884209D104226921C32065
:1003600000F020F80322C321692000F01BF80748A1
:100370000088B0F5167F03DB00200449088000E008
:100380006CE700BF08BD00009431000804000020A5
:1003900024000020260000200004004000BFFEE7EB
:1003A000704700002DE9F04105460E469046B542E3
:1003B00000DD0127AE4200DD0027B8F1010F1DD19D
:1003C000012F0DD12C4608E0A1B23F4801F011FCED
:1003D0003E48008802F0F6F9641EB442F4DA0DE0FB
:1003E00067B92C4608E0A1B2374801F002FC374853
:1003F000008802F0E7F9641CB442F4DDB8F1020FA2
:100400001DD1012F0DD12C4608E0A1B22E4801F0DC
:10041000F2FB2E48008802F0D5F9641EB442F4DAEB
:100420000DE067B92C4608E0A1B2274801F0E3FBD4
:100430002648008802F0C6F9641CB442F4DDB8F125
:10044000030F1DD1012F0DD12C4608E0A1B21E488B
:1004500001F0D3FB1D48008802F0B4F9641EB442D9
:10046000F4DA0DE067B92C4608E0A1B2164801F0B5
:10047000C4FB1648008802F0A5F9641CB442F4DD00
:10048000B8F1040F1DD1012F0DD12C4608E0A1B207
:100490000D4801F0B4FB0D48008802F093F9641E8A
:1004A000B442F4DA0DE067B92C4608E0A1B2064880
:1004B00001F0A5FB0548008802F084F9641CB442F1
:1004C000F4DDBDE8F08100000008004006000020D7
:1004D0002DE9F041024600250026002000230024DB
:1004E000002791F803C00CF00F0591F803C00CF041
:1004F000100CBCF1000F03D091F802C04CEA0505C6
:1005000091F800C0BCF1000F31D0146800202BE03E
:100510004FF0010C0CFA00F3B1F800C00CEA03062E
:100520009E4220D183004FF00F0C0CFA03F7BC431E
:1005300005FA03FC4CEA040491F803C0BCF1280F4F
:1005400006D14FF0010C0CFA00FCC2F814C00AE00E
:1005500091F803C0BCF1480F05D14FF0010C0CFA23
:1005600000FCC2F810C0401C0828D1D31460B1F8B8
:1005700000C0BCF1FF0F34DD546800202EE000F114
:10058000080C4FF0010808FA0CF3B1F800C00CEAAF
:1005900003069E4221D183004FF00F0C0CFA03F7A3
:1005A000BC4305FA03FC4CEA040491F803C0BCF117
:1005B000280F05D100F1080C08FA0CF8C2F81480D5
:1005C00091F803C0BCF1480F07D100F1080C4FF0BF
:1005D000010808FA0CF8C2F81080401C0828CED395
:1005E0005460BDE8F081016170470AB1016100E02B
:1005F0004161704708B534484023802200210090B3
:10060000084600F0C1FA00F03DFBDC212F4801F064
:10061000F2FA96212D4801F0F0FA96212B4801F0CC
:10062000EEFA4DE0012002F06DF829480088401CE8
:100630002749088027480088274909880844254910
:10064000088008460088FA2806DBFA2008804FF068
:10065000FF302149088009E01E480088322805DC67
:1006600032201C49088001201B490880184908884D
:1006700000EBD0714910A0EB410121B91548018868
:10068000164801F0B6FA12480088C82804D10122A1
:1006900037217320FFF786FE0D480088B0F5FA7FFA
:1006A00004D1012273213720FFF77CFE084800881F
:1006B00040F22621884203DB00200549088000E043
:1006C000B0E700BF08BD00009455000800080040D6
:1006D00004000020180000201A0000200004004040
:1006E00000BFFEE738B51D4840238022002100905E
:1006F000084600F049FA00F0C5FA00242BE0601C1F
:1007000084B2AA21164801F074FAE621144801F0D7
:1007100076FA8221124801F070FA4621104801F061
:100720006AFA642001F0EEFF78210D4801F061FAC9
:10073000B4210B4801F063FAB421094801F05DFAD5
:100740007821074801F057FA642001F0DBFF0A2CFA
:1007500001DB002400E0D2E700BF38BD946100084F
:100760000008004008B50121582000F09BFB4FF421
:100770000050ADF8000010208DF8030003208DF824
:10078000020069460448FFF7A3FE4FF400510248F7
:10079000FFF729FF08BD00000010014008B54148DF
:1007A0004023802200210090084600F0EDF900F07F
:1007B00069FA74E03C480088401C3B4908800120ED
:1007C00001F0A0FF394800883949098808443749B1
:1007D000088008460088FA2806DBFA2008804FF0D7
:1007E000FF303349088009E030480088322805DCB2
:1007F00032202E49088001202D4908802A49088886
:1008000000EBD0714910A0EB410121B927480188C4
:10081000284801F0EEF924480088322809D1042242
:10082000C3219620FFF7BEFD0322C3219620FFF7C8
:10083000B9FD1D480088C82809D1012269219620E8
:10084000FFF7B0FD022269219620FFF7ABFD1648A5
:100850000088B0F5AF7F09D104229621C320FFF7AD
:10086000A1FD03229621C320FFF79CFD0E480088BE
:10087000B0F5FA7F09D1012296216920FFF792FD98
:10088000022296216920FFF78DFD0748008840F27B
:100890002621884203DB00200349088000E089E725
:1008A00000BF08BD9435000804000020300000207F
:1008B000320000200004004000BFFEE77047000047
:1008C00070B5002100230F22C47804B3154C2468AE
:1008D00004F4E064C4F5E064210AC1F10403CA40F1
:1008E000447804FA03F184781440214309010E4C42
:1008F0000678A155047804F01F050124AC40057862
:100900006D11AD0005F1E025C5F8004109E004785E
:1009100004F01F050124AC40044D0678761145F81B
:10092000264070BD0CED00E000E400E080E100E056
:1009300002490143024A1160704700000000FA05B5
:100940000CED00E000200CE0002106E00022064B48
:1009500003EBC0135A544A1CD1B28029F6DB421C67
:10096000D0B20828F0DB7047840000202DE9F04366
:1009700004460D4616461F46284638E0224631E01A
:10098000002A2DDB7F2A2BDC002829DB3F2827DCEF
:100990004FEAE07C00EB5C7C4FEAEC0CDFF858801F
:1009A00008EBCC1C1CF802C003464FEAE07800EBD1
:1009B00058784FEAE808A0EBC8094FF0010808FA98
:1009C00009F82CEA080C01464FEAE07800EB587869
:1009D0004FEAE808DFF8209009EBC81808F802C0D1
:1009E000511C0AB2A1199142CADC411C08B2E91992
:1009F0008142C3DCBDE8F0838400002038B50024C8
:100A000006E0002500E06D1CB5F57A7FFBD3641C81
:100A1000B4F57A7FF5D30121102000F043FA1420B9
:100A20008DF8030003208DF802004FF48040ADF8EC
:100A3000000069460848FFF74BFD4FF40040ADF851
:100A4000000069460448FFF743FD012000F02EF93D
:100A5000012000F037F938BD0010014070B505469F
:100A6000002411E080212141294009B1012100E049
:100A70000021084600F026F9012000F017F90020B7
:100A800000F014F9601CC4B2082CEBDB012000F06C
:100A90000DF9002000F00AF970BD10B5012000F03A
:100AA00011F9012000F002F9002000F00BF90020FC
:100AB00000F0FCF810BD10B5002000F003F9012093
:100AC00000F0F4F8012000F0FDF810BD10B5FFF7BC
:100AD00095FFAE2000F002F9D52000F0FFF880204D
:100AE00000F0FCF8A82000F0F9F83F2000F0F6F83C
:100AF000D32000F0F3F8002000F0F0F8402000F0E0
:100B0000EDF8A12000F0EAF8C82000F0E7F8DA20BC
:100B100000F0E4F8122000F0E1F8812000F0DEF8A7
:100B2000CF2000F0DBF8D92000F0D8F8F12000F059
:100B3000D5F8DB2000F0D2F8302000F0CFF8A42068
:100B400000F0CCF8A62000F0C9F88D2000F0C6F81F
:100B5000142000F0C3F8AF2000F0C0F8FFF7F2FE59
:100B600000F090F810BD70B505460C4645F0B00099
:100B700000F0B4F8102141EA141000F0AFF804F0CE
:100B80000F0000F0ABF870BD2DE9FF4F80460E4618
:100B90009146DDF834B0002500244A4631464046EF
:100BA000039BFFF7E3FE00BF5EE0002558E008EB83
:100BB0000500002852DB08EB05007F284EDC30469C
:100BC000F11706EB5171C9100FB2F11706EB517115
:100BD000C910A6EBC10A002E05DA781E07B20AF189
:100BE00008000FFA80FA3819002817DB381907288F
:100BF00014DC3819224901EBC01008EB0501405CF8
:100C000004FB09511BF8011001FA0AF108433919D4
:100C10001B4A02EBC11108EB050288543819401C2D
:100C200000281BDB3819401C072817DC3819401C2A
:100C3000134901EBC01008EB0501405C04FB0951AE
:100C40001BF80110CAF10802114108433919491C67
:100C50000B4A02EBC11108EB05028854681CC5B2AF
:100C60004D45A4DB601CC4B20399481EC11700EBBC
:100C70005171012202EBE101A14296DCBDE8FF8F38
:100C80008400002010B500240BE000212046FFF76F
:100C90006AFF054901EBC410802100F02FF8601CA9
:100CA000C4B2082CF1DB10BD8400002010B504464E
:100CB00022464FF480410248FFF797FC10BD000028
:100CC0000010014010B5044622464FF4004102488E
:100CD000FFF78BFC10BD00000010014010B504466A
:100CE000FFF7DBFE7820FFF7B9FE0020FFF7B6FE26
:100CF0002046FFF7B3FEFFF7DEFE10BD70B50546D8
:100D00000E46FFF7CAFE7820FFF7A8FE4020FFF747
:100D1000A5FE002404E0285DFFF7A0FE601CC4B21D
:100D2000B442F8DBFFF7C7FE70BD704708B5504806
:100D300040238022002100900846FFF725FFFFF79F
:100D4000A1FF91E04B480088401C4A4908800120DF
:100D500001F0D8FC484800884849098808444649B9
:100D6000088008460088FA2806DBFA2008804FF041
:100D7000FF304249088009E03F480088322805DCFE
:100D800032203D49088001203C49088039490888C3
:100D900000EBD0714910A0EB410121B93648018820
:100DA000374800F026FF33480088322809D1012255
:100DB00073219620FFF7F6FA0222B9219620FFF759
:100DC000F1FA2C480088962809D104229621B920EE
:100DD000FFF7E8FA032296217320FFF7E3FA25488C
:100DE0000088FA2809D10122B9217320FFF7DAFA25
:100DF00002227321B920FFF7D5FA1E480088B0F50A
:100E0000AF7F09D1042273219620FFF7CBFA03228A
:100E1000B9219620FFF7C6FA16480088B0F5E17FA1
:100E200009D101229621B920FFF7BCFA02229621AE
:100E30007320FFF7B7FA0F48008840F22621884256
:100E400009D10422B9217320FFF7ACFA03227321E0
:100E5000B920FFF7A7FA07480088B0F5167F03DB33
:100E600000200449088000E06CE700BF08BD0000D6
:100E70009431000804000020280000202A000020EF
:100E80000004004029B1064AD2690243044BDA61EA
:100E900004E0034AD2698243014BDA6170470000E3
:100EA0000010024029B1064A92690243044B9A613C
:100EB00004E0034A92698243014B9A617047000043
:100EC0000010024030B500210022002400232D4DE7
:100ED0006D6805F00C0121B1042905D0082923D142
:100EE00005E0294D056022E0274D05601FE0254DF6
:100EF0006D6805F47012234D6D6805F48034022589
:100F000005EB92421CB9214D554305600BE01D4D88
:100F10006D6805F400351DB11C4D5543056002E0B8
:100F2000194D5543056002E0174D056000BF00BF35
:100F3000144D6D6805F0F0010909154D6B5C0568ED
:100F4000DD4045600F4D6D6805F4E061090A104D04
:100F50006B5C4568DD4085600A4D6D6805F4605145
:100F6000C90A0B4D6B5C4568DD40C560054D6D6879
:100F700005F44041890B074D6B5CC568B5FBF3F583
:100F8000056130BD0010024000127A0000093D00EA
:100F9000700000208000002008B5414840238022D6
:100FA000002100900846FFF7EFFDFFF76BFE74E0AD
:100FB0003C480088401C3B490880012001F0A2FB0E
:100FC0003948008839490988084437490880084663
:100FD0000088FA2806DBFA2008804FF0FF303349FA
:100FE000088009E030480088322805DC32202E498C
:100FF000088001202D4908802A49088800EBD0711B
:101000004910A0EB410121B927480188284800F088
:10101000F0FD24480088322809D101226921962058
:10102000FFF7C0F9022269219620FFF7BBF91D489E
:101030000088C82809D10422C3219620FFF7B2F9FD
:101040000322C3219620FFF7ADF916480088B0F5BA
:10105000AF7F09D1012296216920FFF7A3F902226F
:1010600096216920FFF79EF90E480088B0F5FA7FB7
:1010700009D104229621C320FFF794F90322962177
:10108000C320FFF78FF90748008840F226218842E5
:1010900003DB00200349088000E089E700BF08BDAA
:1010A00094390008040000202C0000202E000020AD
:1010B0000004004008B53C484023802200210090F5
:1010C0000846FFF761FDFFF7DDFD6AE0374800885D
:1010D000401C36490880012001F014FB3448008888
:1010E0003449098808443249088008460088FA28AB
:1010F00006DBFA2008804FF0FF302E49088009E017
:101100002B480088322805DC32202949088001203C
:10111000284908802549088800EBD0714910A0EBC8
:10112000410121B922480188234800F062FD1F488F
:101130000088962813D101227821B420FFF732F9D4
:101140000222B4217820FFF72DF90322B421782060
:10115000FFF728F904227821B420FFF723F9134878
:101160000088B0F5AF7F13D10122B4217820FFF7BA
:1011700019F902227821B420FFF714F9032278210B
:10118000B420FFF70FF90422B4217820FFF70AF901
:1011900006480088B0F5B97F03DB002003490880CA
:1011A00000E093E700BF08BD944D00080400002054
:1011B000140000201600002000040040704710B505
:1011C00000F002F810BD00000CB500200190009066
:1011D0003348006840F480303149086000BF30482F
:1011E000006800F4003000900198401C01900098C5
:1011F00018B90198B0F5A06FF1D12948006800F442
:10120000003010B10120009001E000200090009813
:10121000012843D12348006840F0100021490860AC
:101220000846006820F0030008600846006840F0A7
:10123000020008601A48406819494860084640683A
:1012400048600846406840F480604860084640684E
:1012500020F47C1048600846406840F4E81048607C
:101260000846006840F08070086000BF0C480068C5
:1012700000F000700028F9D00948406820F0030011
:10128000074948600846406840F00200486000BFD7
:101290000348406800F00C000828F9D10CBD00009C
:1012A000001002400020024008B52C484023802254
:1012B000002100900846FFF767FCFFF7E3FCAF2131
:1012C000274800F096FCE121254800F094FC7D21A0
:1012D000234800F092FC4B21214800F090FC39E0BB
:1012E00020480088401C1F490880012001F00AFAAC
:1012F0001D4800881D49098808441B490880084684
:101300000088FA2806DBFA2008804FF0FF301749E2
:10131000088009E014480088322805DC3220124990
:1013200008800120114908800E49088800EBD0711F
:101330004910A0EB410121B90B4801880C4800F08D
:1013400058FC08480088B0F5167F03D100200549F5
:10135000088000E0C4E700BF08BD0000944D00080D
:10136000000800400400002020000020220000208F
:101370000004004038B5FFF7E5FA4621394800F08F
:1013800038FC4621374800F036FCE121354800F0B2
:1013900034FCE121334800F032FC60E03248008840
:1013A000401C3149088008460088B0F5487F09D1C3
:1013B0002E4840231A46002100902020FFF7E4FB2E
:1013C000FFF760FC28480088B0F5C86F0CD12848AA
:1013D00040231A46002100902020FFF7D5FBFFF79D
:1013E00051FC00202049088022480088401C2149E7
:1013F0000880012001F086F91F4800881F490988EC
:1014000008441D49088008460088B0F5964F07DB60
:101410004FF4964008804FF0FF30184908800BE0E9
:1014200015480088B0F5965F06DC4FF496501249D7
:1014300008800120114908800F480088502190FB46
:10144000F1F084B221460E4800F0D3FB0948008831
:10145000B0F5167F03D100200649088000E09DE723
:1014600000BF38BD0008004008000020945D00085F
:10147000945F0008040000201C0000201E000020D3
:101480000004004010B543E0012001F03BF92F4873
:1014900000882F490978401A2C490880084600889E
:1014A0000A2190FBF1F084B221462A4800F0A5FB06
:1014B000264800880A2190FBF1F084B22146254895
:1014C00000F09DFB244800882449097808442249FB
:1014D0000880084600880A2190FBF1F084B221467A
:1014E0001C4800F086FB1C4800880A2190FBF1F0A4
:1014F00084B22146174800F07EFB1748008840F26E
:10150000DC51884204DB11480088884200DC00E09E
:10151000BAE700BF3C210F4800F06BFBB4210D4837
:1015200000F06BFBB4210B4800F069FBC82001F010
:10153000E9F89621074800F05CFB9621054800F089
:101540005CFB9621034800F05AFB10BD0A00002006
:101550000E000020000800400C0000200F000020BA
:1015600008B52C4840238022002100900846FFF750
:101570000BFBFFF787FB9621274800F03AFB9621EB
:10158000254800F038FB9621234800F036FB9621D1
:10159000214800F034FB39E020480088401C1F49F6
:1015A0000880012001F0AEF81D4800881D49098817
:1015B00008441B49088008460088FA2806DBFA2000
:1015C00008804FF0FF301749088009E01448008870
:1015D000322805DC32201249088001201149088098
:1015E0000E49088800EBD0714910A0EB410121B9E8
:1015F0000B4801880C4800F0FCFA08480088B0F558
:10160000167F03D100200549088000E0C4E700BF31
:1016100008BD0000942D00080008004004000020D0
:10162000100000201200002000040040704700005D
:1016300010B51348006840F00100114908600846E1
:101640004068104908400E494860084600680E4945
:1016500008400B4908600846006820F480200860B4
:101660000846406820F4FE0048604FF41F00886080
:10167000FFF7A5FD4FF000600449086010BD0000B1
:10168000001002400000FFF8FFFFF6FE08ED00E04A
:1016900030B589B005460C4601210220FFF7F2FB68
:1016A00001210520FFF7FEFB4020ADF820001820A7
:1016B0008DF8230003208DF8220008A91348FEF7B7
:1016C00007FFADF81850ADF814400020ADF81A002F
:1016D000ADF8160005A90E4800F094FA6020ADF8A8
:1016E00004000120ADF806000020ADF80C0001A9AF
:1016F000074800F023F90821054800F06BF90121A3
:10170000034800F00FF909B030BD000000080140A7
:101710000004004030B589B005460C460121042084
:10172000FFF7B0FB01210920FFF7BCFB4020ADF81B
:10173000200018208DF8230003208DF8220008A92E
:101740001348FEF7C5FEADF81850ADF81440002060
:10175000ADF81A00ADF8160005A90E4800F052FACF
:101760006020ADF804000120ADF806000020ADF8BF
:101770000C0001A9074800F0E1F80821054800F035
:1017800029F90121034800F0CDF809B030BD00006F
:10179000000C01400008004030B589B005460C46F9
:1017A00001210420FFF76EFB01210920FFF77AFBDE
:1017B0004FF40070ADF8200018208DF823000320AE
:1017C0008DF8220008A91348FEF782FEADF81850E4
:1017D000ADF814400020ADF81A00ADF8160005A9C8
:1017E0000D4800F00FFA6020ADF804000120ADF8BC
:1017F00006000020ADF80C0001A9074800F0F4F83D
:101800000821054800F042F90121034800F08AF858
:1018100009B030BD000C01400008004030B589B06F
:1018200005460C4601210420FFF72CFB012109206D
:10183000FFF738FB4FF48070ADF8200018208DF8CA
:10184000230003208DF8220008A91348FEF740FE6C
:10185000ADF81850ADF814400020ADF81A00ADF8FE
:10186000160005A90D4800F0CDF96020ADF8040080
:101870000120ADF806000020ADF80C0001A90748D2
:1018800000F012F90821054800F05EF90121034833
:1018900000F048F809B030BD000C014000080040DD
:1018A00030B589B005460C4601210420FFF7EAFA5D
:1018B00001210920FFF7F6FA8020ADF8200018205A
:1018C0008DF8230003208DF8220008A91348FEF7A5
:1018D000FFFDADF81850ADF814400020ADF81A0027
:1018E000ADF8160005A90E4800F08CF96020ADF89F
:1018F00004000120ADF806000020ADF80C0001A99D
:10190000074800F02BF90821054800F065F901218E
:10191000034800F007F809B030BD0000000C01409A
:101920000008004021B1028842F00102028004E078
:1019300002884FF6FE731A400280704770B500248B
:1019400000220023058C4FF6FE7635400584028C7C
:101950008388048B4FF68F752C40B51E2C400D8864
:101960002C43751E2A400D892A434D882A43144D65
:10197000A8420BD0134DA84208D0134DA84205D061
:10198000124DA84202D0124DA84213D14FF6F7755E
:101990002A404D892A434FF6FB752A408D882A43F9
:1019A0004FF6FF652B404FF6FF552B408D892B439B
:1019B000CD892B4383800483CD888586028470BDC6
:1019C000002C01400034014000400140004401402F
:1019D000004801400A460021018B4FF6F773194079
:1019E000114301837047000070B5002400220023DA
:1019F000058C4FF6EF7635400584028C8388048B86
:101A000048F6FF752C404FF6FF452C400D884FF6E9
:101A1000FF7606EA05252C434FF6DF752A400D892F
:101A200006EA05152A434D8806EA05152A43154D91
:101A3000A84202D0144DA8421DD14FF67F752A400E
:101A40004D894FF6FF7606EA05152A434FF6BF7516
:101A50002A408D8806EA05152A434FF6FF352B40AC
:101A60004FF2FF752B408D8906EA85052B43CD8902
:101A700006EA85052B4383800483CD88058702848D
:101A800070BD0000002C0140003401400A460021D6
:101A9000018B4FF2FF7319404FF6FF7303EA0223E5
:101AA000194301837047000070B500240022002311
:101AB000058C4FF6FF6635400584028C8388848B45
:101AC0004FF68F752C404FF6FC752C400D882C433B
:101AD0004FF6FF552A400D894FF6FF7606EA052599
:101AE0002A434D8806EA05252A43154DA84202D00F
:101AF000144DA8421DD14FF2FF752A404D894FF673
:101B0000FF7606EA05252A434FF6FF352A408D88E1
:101B100006EA05252A434EF6FF752B404DF6FF7564
:101B20002B408D8906EA05152B43CD8906EA05155C
:101B30002B4383808483CD888587028470BD000019
:101B4000002C0140003401400A460021818B4FF6F1
:101B5000F7731940114381837047000070B500226C
:101B600000230024058C4EF6FF7635400584038C57
:101B70008488828B48F6FF752A404FF6FF452A403D
:101B80000D884FF6FF7606EA05252A434DF6FF75C8
:101B90002B400D8906EA05352B434D8806EA0535AD
:101BA0002B430B4DA84202D00A4DA84208D14BF658
:101BB000FF752C408D894FF6FF7606EA85152C437C
:101BC00084808283CD88A0F84050038470BD0000DB
:101BD000002C0140003401400A460021818B4FF265
:101BE000FF7319404FF6FF7303EA02231943818301
:101BF0007047818670470187704781877047A0F8DA
:101C000040107047002202881D4B98420ED01D4B99
:101C100098420BD0B0F1804F08D01B4B984205D0B2
:101C20001A4B984202D01A4B984204D14FF68F7348
:101C30001A404B881A43174B984207D0164B9842CC
:101C400004D04FF6FF431A40CB881A4302808B889A
:101C500083850B8803850A4B98420BD0094B984229
:101C600008D00E4B984205D00D4B984202D00D4B38
:101C7000984201D10B7A03860123838270470000CA
:101C8000002C0140003401400004004000080040E6
:101C9000000C0040001000400014004000400140D3
:101CA000004401400048014010B540F2255114485D
:101CB00000F083FAB8B1124800F03AFB1149124A19
:101CC0001268885410480068401C0F490860084694
:101CD0000068802813DB00200C4908600C4908606C
:101CE000094908600BE040F22441054800F065FA1C
:101CF00028B1034800F01CFB01200449086010BD16
:101D00000038014084040020640000206C000020A2
:101D10006800002010B586B00446012144F2050099
:101D2000FFF7C0F818208DF817004FF40070ADF8D9
:101D3000140003208DF8160005A91F48FEF7C8FB04
:101D400004208DF817000002ADF8140005A91A4808
:101D5000FEF7BEFB01940020ADF810000C20ADF89A
:101D60000E000020ADF80C00ADF80A00ADF8080038
:101D700001A9124800F070FA25208DF8000001201A
:101D80008DF8030002208DF801008DF802006846EE
:101D9000FEF796FD012240F22551084800F037FA7F
:101DA000012240F22441054800F031FA01210348A4
:101DB00000F0EAF906B010BD00080140003801400B
:101DC00010B540F22551484800F0F7F900287DD0C1
:101DD0004648006808B9012000E000204349086037
:101DE000414800F0A5FA4249088008460088312899
:101DF00002D101203F4908603D480088322802D1C5
:101E000002203C4908603A480088332802D1032068
:101E10003849086036480088342802D10420354902
:101E2000086033480088352802D105203149086010
:101E30002F480088362802D106202E4908602C48F9
:101E40000088372802D107202A49086028480088DE
:101E5000382802D1082027490860254800883928F9
:101E600002D109202349086021480088612802D155
:101E70000A20204908601E480088622802D10B20F1
:101E80001C4908601A480088632802D10C201949AF
:101E9000086017480088642802D10D2015490860A1
:101EA00013480088652802D10E20124908601048A6
:101EB0000088662804D100BF00200C49086000BFDC
:101EC0000B480088672806D100BF00E00AE0012027
:101ED0000649086000BF06480088682802D1012032
:101EE0000449086010BD000000440040B4012242D3
:101EF000440000200000002010B586B004460121F7
:101F00000420FEF7CFFF01214804FEF7BBFF182095
:101F10008DF817000420ADF8140003208DF816008A
:101F200005A91E48FEF7D4FA04208DF817000820F2
:101F3000ADF8140003208DF8160005A91748FEF728
:101F4000C7FA01940020ADF808000C20ADF80E008F
:101F50000020ADF80C00ADF80A00ADF8100001A9A2
:101F60000F4800F079F926208DF8000001208DF847
:101F7000030000208DF801008DF802006846FEF78E
:101F80009FFC012240F22551054800F040F9012153
:101F9000034800F0F9F806B010BD00000008014049
:101FA0000044004010B540F22551474800F005F9C3
:101FB00000287DD04548006808B9012000E00020D5
:101FC00042490860404800F0B3F9414908700846AA
:101FD0000078492806D101203E49086041213E4849
:101FE00000F0B2F93A480078472806D10220394972
:101FF00008604221384800F0A7F9354800784B289E
:1020000006D10320334908604321334800F09CF98E
:102010002F480078482806D104202E490860442122
:102020002D4800F091F92A4800784A2806D1052069
:10203000284908604521284800F086F9244800789E
:10204000412806D10C20234908604621224800F08F
:102050007BF91F480078422806D106201D490860F8
:1020600047211D4800F070F919480078462806D12C
:102070000720184908604821174800F065F91448FE
:1020800000784C2806D108201249086049211248DE
:1020900000F05AF90E4800784D2806D10B200D4962
:1020A00008604A210C4800F04FF90948007800E028
:1020B00008E05B2806D10F20064908605B2106482E
:1020C00000F042F910BD000000480040B401224277
:1020D00054000020000000200044004010B586B0ED
:1020E000044601210820FEF7DDFE01218804FEF7E9
:1020F000C9FE18208DF817004FF48060ADF8140069
:1021000003208DF8160005A91D48FEF7E1F904200B
:102110008DF817004002ADF8140003208DF816006A
:1021200005A91748FEF7D4F901940020ADF808007E
:102130000C20ADF80E000020ADF80C00ADF80A0040
:10214000ADF8100001A90F4800F086F827208DF89F
:10215000000001208DF8030003208DF801008DF8A8
:1021600002006846FEF7ACFB012240F2255105480B
:1021700000F04DF80121034800F006F806B010BD4C
:10218000000C01400048004021B1828942F4005215
:10219000828104E082894DF6FF731A408281704784
:1021A00002460020B1F5007F00D100BF13880B402C
:1021B0000BB1012000E00020704770B502460024FA
:1021C00000230025002040F66A16B14200D100BF6E
:1021D000C1F3421501F01F03012606FA03F3012D96
:1021E00002D19689334006E0022D02D1168A33408F
:1021F00001E0968A33400C12012606FA04F4168890
:10220000344013B10CB1012000E0002070BDF0B5E6
:102210000346002400260025002040F66A17B94234
:1022200000D100BF1846C1F3421401F01F06012778
:1022300007FA06F5012C01D10C3004E0022C01D183
:10224000103000E014301AB107682F43076002E035
:102250000768AF430760F0BD2DE9F04786B005463B
:102260000E460024A24600BFA1460027B08900B157
:1022700000BF2F462C8A4CF6FF700440F0880443C0
:102280002C82AC894EF6F3100440B08831890843A3
:10229000718908430443AC81AC8A4FF6FF40044087
:1022A000B0890443AC8201A8FEF70CFE1F488742A8
:1022B00002D1DDF810A001E0DDF80CA0A88900F43F
:1022C000004040B10AEBCA0000EB0A103168490037
:1022D000B0FBF1F807E00AEBCA0000EB0A10316826
:1022E0008900B0FBF1F86420B8FBF0F0040120098C
:1022F000642101FB1089A88900F4004040B132201C
:1023000000EBC900B0FBF1F000F00700044308E067
:10231000322000EB09106421B0FBF1F000F00F0057
:1023200004432C8106B0BDE8F0870000003801406E
:1023300001468888C0F308007047C1F30802828014
:10234000704700BFFEE7000070B504460D46294601
:102350002046FFF7F2FF00BF80212046FFF720FF55
:102360000028F9D00448006808B9012000E00020E6
:102370000149086070BD0000B401224208B5DC4884
:1023800040238022002100900846FEF7FDFBFEF767
:1023900079FCA9E1D7480088401CD6490880012073
:1023A00000F0B0F9D4480088D44909880844D249DB
:1023B000088008460088FA2806DBFA2008804FF0DB
:1023C000FF30CE49088009E0CB480088322805DC80
:1023D0003220C94908800120C8490880C5490888B9
:1023E00000EBD0714910A0EB410121B9C24801882E
:1023F000C348FFF7FEFBBF480088322813D10122F3
:102400005A219620FDF7CEFF02225A219620FDF791
:10241000C9FF03225A219620FDF7C4FF04225A2146
:102420009620FDF7BFFFB3480088C82813D10122CA
:1024300096215A20FDF7B6FF022296215A20FDF779
:10244000B1FF032296215A20FDF7ACFF042296210A
:102450005A20FDF7A7FFA7480088B0F5AF7F13D13A
:102460000122D2219620FDF79DFF0222D221962043
:10247000FDF798FF0322D2219620FDF793FF042257
:10248000D2219620FDF78EFF9A480088B0F5FA7F9A
:1024900013D101229621D220FDF784FF022296213A
:1024A000D220FDF77FFF03229621D220FDF77AFF8D
:1024B00004229621D220FDF775FF8E48008840F255
:1024C0008A21884213D1012269219620FDF76AFFF3
:1024D0000222C3219620FDF765FF0322C321962027
:1024E000FDF760FF042269219620FDF75BFF81481C
:1024F0000088B0F5487F13D1012296216920FDF7AD
:1025000051FF02229621C320FDF74CFF03229621A2
:10251000C320FDF747FF042296216920FDF742FF03
:102520007448008840F2B631884213D10122C32199
:102530009620FDF737FF022269219620FDF732FF32
:10254000032269219620FDF72DFF0422C321962046
:10255000FDF728FF6748008840F24C41884213D1BC
:1025600001229621C320FDF71DFF0222962169203A
:10257000FDF718FF032296216920FDF713FF0422BF
:102580009621C320FDF70EFF5A48008840F2E24131
:10259000884213D10122C3219620FDF703FF0222B6
:1025A00069219620FDF7FEFE032269219620FDF7A2
:1025B000F9FE0422C3219620FDF7F4FE4D48008861
:1025C000B0F5AF6F13D101229621C320FDF7EAFECB
:1025D000022296216920FDF7E5FE0322962169205B
:1025E000FDF7E0FE04229621C320FDF7DBFE414803
:1025F000008840F20E61884213D1012269219620A1
:10260000FDF7D0FE0222C3219620FDF7CBFE032268
:10261000C3219620FDF7C6FE042269219620FDF70E
:10262000C1FE3448008840F2A461884213D10122DF
:1026300096216920FDF7B6FE02229621C320FDF700
:10264000B1FE03229621C320FDF7ACFE04229621A1
:102650006920FDF7A7FE2748008840F23A718842BA
:1026600009D101225A219620FDF79CFE02225A210F
:102670009620FDF797FE1F480088B0F5FA6F09D144
:10268000012296215A20FDF78DFE022296215A2022
:10269000FDF788FE1748008840F66601884209D198
:1026A0000322D2219620FDF77DFE0422D22196201E
:1026B000FDF778FE0F48008840F6FC01884209D1FA
:1026C00003229621D220FDF76DFE04229621D2200E
:1026D000FDF768FE0748008840F62E11884203DBAC
:1026E00000200449088000E054E600BF08BD000057
:1026F0009431000804000020380000203A00002037
:102700000004004030B52E4B1B6843436FF07F44FC
:10271000B3FBF4F22A4B1B684343B3FBF4F504FB11
:10272000153100234FF0E024A3616FF07F43636114
:1027300023461B6923F0011323610AB323461B6957
:1027400043F0010323610FE000BF4FF0E0231B695A
:1027500003F48033002BF8D04FF0E0231B6923F4FF
:1027600080334FF0E0242361131EA2F10102EBD16C
:102770004FF0E0231B6923F001034FF0E0242361B5
:10278000C1B14FF0E02359611B6943F001034FF0E1
:10279000E024236100BF4FF0E0231B6903F4803382
:1027A000002BF8D04FF0E0231B6923F001134FF00A
:1027B000E024236100234FF0E0246361A36130BD76
:1027C0005C00002030B52F4B1B6843436FF07F4403
:1027D000B3FBF4F22B4B1B684343B3FBF4F504FB50
:1027E000153100234FF0E024A361264B1B684343BF
:1027F000636123461B6923F0011323610AB3234657
:102800001B6943F0010323610FE000BF4FF0E02399
:102810001B6903F48033002BF8D04FF0E0231B69D1
:1028200023F480334FF0E0242361131EA2F1010250
:10283000EBD14FF0E0231B6923F001034FF0E024BC
:102840002361C1B14FF0E02359611B6943F00103DB
:102850004FF0E024236100BF4FF0E0231B6903F435
:102860008033002BF8D04FF0E0231B6923F00113D5
:102870004FF0E024236100234FF0E0246361A36163
:1028800030BD00006000002008B52E4840238022A3
:10289000002100900846FEF777F9FEF7F3F978215A
:1028A0002948FFF7A6F978212748FFF7A4F9B421B2
:1028B0002548FFF7A2F9B4212348FFF7A0F93DE02E
:1028C00022480088401C214908800120FFF71AFF98
:1028D00096211F48FFF78DF91C480088C8280FD1A2
:1028E000BE211948FFF785F946211748FFF783F9FC
:1028F0006E211548FFF781F9E6211348FFF77FF9AC
:1029000012480088B0F5C87F0FD178210E48FFF734
:1029100070F978210C48FFF76EF9B4210A48FFF7E7
:102920006CF9B4210848FFF76AF908480088B0F547
:10293000167F03D100200549088000E0C0E700BFF2
:1029400008BD000094630008000800400400002057
:102950000004004008B52C4840238022002100904C
:102960000846FEF711F9FEF78DF932212748FFF7E7
:1029700040F9BE212548FFF73EF9FA212348FFF729
:102980003CF96E212148FFF73AF939E020480088E8
:10299000401C1F4908800120FFF7B4FE1D48008835
:1029A0001D49098808441B49088008460088FA2800
:1029B00006DBFA2008804FF0FF301749088009E055
:1029C00014480088322805DC322012490880012092
:1029D000114908800E49088800EBD0714910A0EB1E
:1029E000410121B90B4801880C48FFF702F908485A
:1029F0000088B0F5167F03D100200549088000E06B
:102A0000C4E700BF08BD0000945100080008004062
:102A1000040000203C0000203E0000200004004094
:102A20004FF4A060FDF784FF042000F091F9FDF75A
:102A300099FE4FF4E130FFF76DF94FF4E130FFF705
:102A40005BFA4FF41650FFF749FBFEF73FF8FDF72E
:102A500079FF40F2CF2140F2CF70FEF75BFE40F2EB
:102A6000CF2140F2CF70FEF797FE40F2CF2140F227
:102A7000CF70FEF7D3FE40F2CF2140F2CF70FEF7C9
:102A80000FFF40F2CF2140F2CF70FEF701FEFEF7BC
:102A900071FCFEF7F7FC6AE035480068012802D1B6
:102AA000FEF75EFD60E032480068022802D1FDF7C3
:102AB000C9FB59E02E480068032802D1FEF736F919
:102AC00052E02B480068042802D1FDF767FE4BE076
:102AD00027480068052802D1FEF75EFA44E0244842
:102AE0000068062802D1FDF785FD3DE0204800681A
:102AF000072802D1FEF7D8FB36E01D4800680828F9
:102B000002D1FEF737FC2FE019480068092802D1EE
:102B1000FEF7D0FA28E0164800680A2802D1FFF72D
:102B20002DFC21E0124800680B2802D1FFF712FFAC
:102B30001AE00F4800680C2802D1FFF7A5FE13E049
:102B40000B4800680D2802D100F014F80CE008488A
:102B500000680E2802D100F073F805E00448006810
:102B60000F2801D1FDF7BEFD0A20FFF7CBFD93E74B
:102B70000000002008B52C4840238022002100904E
:102B80000846FEF701F8FEF77DF84B212748FFF7CE
:102B900030F84B212548FFF72EF896212348FFF700
:102BA0002CF896212148FFF72AF839E020480088C0
:102BB000401C1F4908800120FFF7A4FD1D48008824
:102BC0001D49098808441B49088008460088FA28DE
:102BD00006DBFA2008804FF0FF301749088009E033
:102BE00014480088322805DC322012490880012070
:102BF000114908800E49088800EBD0714910A0EBFC
:102C0000410121B90B4801880C48FEF7F2FF084842
:102C10000088B0F5167F03D100200549088000E048
:102C2000C4E700BF08BD0000944D00080008004044
:102C30000400002034000020360000200004004082
:102C400008B5FDF77FFE96213948FEF7D2FF9621A1
:102C50003748FEF7D0FF96213548FEF7CEFF962184
:102C60003348FEF7CCFF5FE032480088401C314912
:102C7000088008460088B0F5C87F09D12E48402357
:102C80001A46002100902020FDF77EFFFDF7FAFF95
:102C900028480088B0F5487F0CD1284840231A46C0
:102CA000002100902020FDF76FFFFDF7EBFF0020D3
:102CB0002049088022480088401C214908800120C2
:102CC000FFF720FD1F4800881F49098808441D4957
:102CD000088008460088FA2806DBFA2008804FF0B2
:102CE000FF301949088009E016480088322805DCC1
:102CF00032201449088001201349088010490888AF
:102D000000EBD0714910A0EB410121B90D480188B9
:102D10000E48FEF76EFF0A480088B0F5167F03D113
:102D200000200749088000E09EE700BF08BD0000C2
:102D3000000800400800002094590008945B000837
:102D40000400002040000020420000200004004059
:102D500042F228310C4A116009210C4A116000210D
:102D60004FF0E02211615161916104280AD11146AE
:102D7000096941F0040111610549034A11604821C4
:102D8000024A1160704700005C00002060000020D3
:102D900040190100000000000000000000000000D9
:102DA0000000000000000000000000000000000023
:102DB0000000000000000000000000000000000013
:102DC0000000000000000000000000000000000003
:102DD00000000000000000000000000000000000F3
:102DE00000000000000000000000000000000000E3
:102DF00000000000000000000000000000000000D3
:102E000000000000000000000000000000000000C2
:102E100000000000000000000000000000000000B2
:102E200000000000000000000000000000000000A2
:102E30000000808080000000000000000000000012
:102E40000000000000000000000000000000000082
:102E50000000000000000000000000000000000072
:102E60000000000000000000000000000000000062
:102E700000000000808080000000000000000000D2
:102E80000000000000000000000000000000000042
:102E90000000000000000000000000000000000032
:102EA00000000000000000000000000000F0F8FE3C
:102EB000FFFFFFFFFFFFFFFEF8F000000000000033
:102EC0000000000000000000000000000000000002
:102ED00000000000000000000000000000000000F2
:102EE000000000000000000000000000000000F0F2
:102EF000F8FEFFFFFFFFFFFFFFFEF8F000000000FD
:102F000000000000000000000000000000000000C1
:102F100000000000000000000000000000000000B1
:102F200000000000000000000000000000FFFFFFA4
:102F3000FFFFFFFFFFFFFFFFFFFF0000000000009B
:102F40000000000000000000000000000000000081
:102F50000000000000000000000000000000000071
:102F6000000000000000000000000000000000FF62
:102F7000FFFFFFFFFFFFFFFFFFFFFFFF000000005D
:102F80000000000000000000000000000000000041
:102F90000000000000000000000000000000000031
:102FA00000000000000000000000000000FFFFFF24
:102FB000FFFFFFFFFFFFFFFFFFFF0000000000001B
:102FC0000000000000000000000000000000000001
:102FD00000000000000000000000000000000000F1
:102FE000000000000000000000000000000000FFE2
:102FF000FFFFFFFFFFFFFFFFFFFFFFFF00000000DD
:1030000000000000000000000000000000000000C0
:1030100000000000000000000000000000000000B0
:10302000000000000000000000000000001F3FFF43
:10303000FFFFFFFFFFFFFFFF3F1F0000000000003A
:103040000000000000000000000000000000000080
:103050000000000000000000000000000000000070
:103060000000000000000000000000000000001F41
:103070003FFFFFFFFFFFFFFFFFFF3F1F00000000BC
:103080000000000000000000000000000000000040
:103090000000000000000000000000000000000030
:1030A0000000000000000000000000000000000020
:1030B0000101030303010100000000000000000003
:1030C0000000000000000000000000000000000000
:1030D00000000000000000000000000000000000F0
:1030E00000000000000000000000000000000000E0
:1030F00000000101030303010100000000000000C3
:1031000000000000000000000000000000000000BF
:1031100000000000000000000000000000000000AF
:10312000000000000000000000000000000000009F
:10313000000000000000000000000000000000008F
:10314000000000000000000000000000000000007F
:10315000000000000000000000000000000000006F
:10316000000000000000000000000000000000005F
:10317000000000000000000000000000000000004F
:10318000000000000000000000000000000000003F
:10319000000000000000000000000000000000002F
:1031A000000000000000000000000000000000001F
:1031B000000000000000000000000000000000000F
:1031C00000000000000000000000000000000000FF
:1031D00000000000000000000000000000000000EF
:1031E00000000000000000000000000000000000DF
:1031F00000000000000000000000000000000000CF
:1032000000000000000000000000000000000000BE
:1032100000000000000000000000000000000000AE
:10322000000000000000000000000000000000009E
:10323000000000000000000000000000000000008E
:10324000000000000000000000000000000000007E
:10325000000000000000000000000000000000006E
:10326000000000000000000000000000000000005E
:10327000000000000000000000000000000000004E
:10328000000000000000000000000000000000003E
:10329000000000000000000000000000000000002E
:1032A000000000000000FFFFFEFEFCFCF8F8F0F05C
:1032B000E0E0C0C0808000000000000000000000CE
:1032C00000000000000000000000000000000000FE
:1032D00000000000000000000000000000000000EE
:1032E00000000000000000000000000000000000DE
:1032F000000000008080C0C0E0E0F0F0F8F8FCFCC6
:10330000FEFEFF00000000000000000000000000C2
:1033100000000000000000000000000000000000AD
:103320000000000000000000010101030307070F77
:103330000F1F1F1F3F3F7F7FFEFEFEFCFCF8F8F0D3
:10334000F0E0E0C00000000000000000000000000D
:10335000000000000000000000000000000000006D
:10336000000000000000C0C0E0E0F0F0F8F8FCFC55
:10337000FEFE7F7F3F3F3F1F1F0F0F070703030323
:10338000010100000000000000000000000000003B
:10339000000000000000000000000000000000002D
:1033A00000000000000000000000808080C0C0E03D
:1033B000E0F0F0F0F8F8FCFCFCFEFF7F7F3F3F1FE1
:1033C0001F0F0F07000000000000000000000000B9
:1033D00000000000000000000000000000000000ED
:1033E0000000000000000F0F1F1F3F3F7F7FFFFF07
:1033F000FCFCFCF8F8F0F0E0E0E0C0C08080800069
:1034000000000000000000000000000000000000BC
:1034100000000000000000000000000000000000AC
:10342000000000000000FEFEFF7F7F7F3F3F1F1F68
:103430000F0F070703030101010000000000000057
:10344000000000000000000000000000000000007C
:10345000000000000000000000000000000000006C
:10346000000000000000000000000000000000005C
:10347000010103030307070F0F1F1F3F3F7F7FFF5C
:10348000FFFEFE0000000000000000000000000041
:10349000000000000000000000000000000000002C
:1034A000000000000000010000000000000000001B
:1034B000000000000000000000000000000000000C
:1034C00000000000000000000000000000000000FC
:1034D00000000000000000000000000000000000EC
:1034E00000000000000000000000000000000000DC
:1034F00000000000000000000000000000000000CC
:1035000000000100000000000000000000000000BA
:1035100000000000000000000000000000000000AB
:10352000000000000000000000000000000000009B
:10353000000000000000000000000000000000008B
:10354000000000000000000000000000000000007B
:10355000000000000000000000000000000000006B
:10356000000000000000000000000000000000005B
:10357000000000000000000000000000000000004B
:10358000000000000000000000000000000000003B
:10359000000000000000000000000000000000002B
:1035A000000000000000000000000000000000001B
:1035B000000000000000000000000000000000000B
:1035C00000000000000000000000000000000000FB
:1035D00000000000000000000000000000000000EB
:1035E00000000000000000000000000000000000DB
:1035F00000000000000000000000000000000000CB
:1036000000000000000000000000000000000000BA
:1036100000000000000000000000000000000000AA
:10362000000000008080C0C0C080000000000000DA
:10363000000000000000000000000000000000008A
:10364000000000000000000000000000000000007A
:10365000000000000000000000000000000000006A
:10366000000000008080C0C0C0800000000000009A
:10367000000000000000000000000000000000004A
:10368000000000000000000000000000000000003A
:10369000000000000000000000000000000000002A
:1036A00000E0FFFFFFFFFFFFFFFFFE000000000044
:1036B000000000000000000000000000000000000A
:1036C00000000000000000000000000000000000FA
:1036D00000000000000000000000000000000000EA
:1036E00000E0FFFFFFFFFFFFFFFFFE000000000004
:1036F00000000000000000000000000000000000CA
:1037000000000000000000000000000000000000B9
:1037100000000000000000000000000000000000A9
:10372000FFFFFFFFFFFFFFFFFFFFFF0000000000A4
:103730000000000000000000000000000000000089
:103740000000000000000000000000000000000079
:103750000000000000000000000000000000000069
:10376000FFFFFFFFFFFFFFFFFFFFFF000000000064
:103770000000000000000000000000000000000049
:103780000000000000000000000000000000000039
:103790000000000000000000000000000000000029
:1037A000FFFFFFFFFFFFFFFFFFFFFF000000000024
:1037B0000000000000000000000000000000000009
:1037C00000000000000000000000000000000000F9
:1037D00000000000000000000000000000000000E9
:1037E000FFFFFFFFFFFFFFFFFFFFFF0000000000E4
:1037F00000000000000000000000000000000000C9
:1038000000000000000000000000000000000000B8
:1038100000000000000000000000000000000000A8
:103820000007FFFFFFFFFFFFFFFF7F00000000001A
:103830000000000000000000000000000000000088
:103840000000000000000000000000000000000078
:103850000000000000000000000000000000000068
:103860000007FFFFFFFFFFFFFFFF7F0000000000DA
:103870000000000000000000000000000000000048
:103880000000000000000000000000000000000038
:103890000000000000000000000000000000000028
:1038A000000000000101030303010000000000000C
:1038B0000000000000000000000000000000000008
:1038C00000000000000000000000000000000000F8
:1038D00000000000000000000000000000000000E8
:1038E00000000000010103030301000000000000CC
:1038F00000000000000000000000000000000000C8
:1039000000000000000000000000000000000000B7
:1039100000000000000000000000000000000000A7
:103920000000000000000000000000000000000097
:103930000000000000000000000000000000000087
:103940000000000000000000000000000000000077
:103950000000000000000000000000000000000067
:103960000000000000000000000000000000000057
:103970000000000000000000000000000000000047
:103980000000000000000000000000000000000037
:103990000000000000000000000000000000000027
:1039A0000000000000000000000000000000000017
:1039B0000000000000000000000000000000000007
:1039C00000000000000000000000000000000000F7
:1039D00000000000000000000000000000000000E7
:1039E00000000000000000000000000000000000D7
:1039F00000000000000000000000000000000000C7
:103A000000000000000000000000000000000000B6
:103A100000000000000000000000000000000000A6
:103A20000000000000000000000000000000000096
:103A3000000000000000000000000000000080C046
:103A4000C0C08080000000000000000000000000F6
:103A50000000000000000000000000000000000066
:103A60000000000000000000000000000000000056
:103A7000000000000000000000000000000080C006
:103A8000C0C08080000000000000000000000000B6
:103A90000000000000000000000000000000000026
:103AA0000000000000000000000000000000000016
:103AB00000000000000000000000000000FEFFFF0A
:103AC000FFFFFFFFFFFFE00000000000000000001C
:103AD00000000000000000000000000000000000E6
:103AE00000000000000000000000000000000000D6
:103AF00000000000000000000000000000FEFFFFCA
:103B0000FFFFFFFFFFFFE0000000000000000000DB
:103B100000000000000000000000000000000000A5
:103B20000000000000000000000000000000000095
:103B300000000000000000000000000000FFFFFF88
:103B4000FFFFFFFFFFFFFFFF00000000000000007D
:103B50000000000000000000000000000000000065
:103B60000000000000000000000000000000000055
:103B700000000000000000000000000000FFFFFF48
:103B8000FFFFFFFFFFFFFFFF00000000000000003D
:103B90000000000000000000000000000000000025
:103BA0000000000000000000000000000000000015
:103BB00000000000000000000000000000FFFFFF08
:103BC000FFFFFFFFFFFFFFFF0000000000000000FD
:103BD00000000000000000000000000000000000E5
:103BE00000000000000000000000000000000000D5
:103BF00000000000000000000000000000FFFFFFC8
:103C0000FFFFFFFFFFFFFFFF0000000000000000BC
:103C100000000000000000000000000000000000A4
:103C20000000000000000000000000000000000094
:103C3000000000000000000000000000007FFFFF07
:103C4000FFFFFFFFFFFF0700000000000000000073
:103C50000000000000000000000000000000000064
:103C60000000000000000000000000000000000054
:103C7000000000000000000000000000007FFFFFC7
:103C8000FFFFFFFFFFFF0700000000000000000033
:103C90000000000000000000000000000000000024
:103CA0000000000000000000000000000000000014
:103CB0000000000000000000000000000000010300
:103CC00003030101000000000000000000000000EC
:103CD00000000000000000000000000000000000E4
:103CE00000000000000000000000000000000000D4
:103CF00000000000000000000000000000000103C0
:103D000003030101000000000000000000000000AB
:103D100000000000000000000000000000000000A3
:103D20000000000000000000000000000000000093
:103D30000000000000000000000000000000000083
:103D40000000000000000000000000000000000073
:103D50000000000000000000000000000000000063
:103D60000000000000000000000000000000000053
:103D70000000000000000000000000000000000043
:103D80000000000000000000000000000000000033
:103D90000000000000000000000000000000000023
:103DA0000000000000000000000000000000000013
:103DB0000000000000000000000000000000000003
:103DC00000000000000000000000000000000000F3
:103DD00000000000000000000000000000000000E3
:103DE00000000000000000000000000000000000D3
:103DF00000000000000000000000000000000000C3
:103E000000000000000000000000000000000000B2
:103E100000000000000000000000000000000000A2
:103E20000000000000000000000000000000000092
:103E30000000000000000000000000000000000082
:103E400000000000008080800000000000000000F2
:103E50000000000000000000000000000000000062
:103E60008080000000000000000000000000000052
:103E70000000000000000000000000000000000042
:103E80000000000000000000000000000000000032
:103E90000000000000000000000000000000000022
:103EA0000000000000000000000000C0C080800092
:103EB0000000000000000000000000000000000002
:103EC00000000000000F7FFFFEF8E0C0800000004F
:103ED0000000000000000000000000C0E0F8FEFF4D
:103EE0007F1F0E0000000000000000000000000026
:103EF00000000000000000000000000000000000C2
:103F000000000000000000000000000000000000B1
:103F100000000000000000000000000000000000A1
:103F200000000000000000000000000303070F0F66
:103F30003F7F7EFCF0F0E0E0C000000000000000E9
:103F400000000000000000000303070F0F1F3E3CAD
:103F50007C7870F0F0F078787C3C3F1F0F0703010D
:103F60000000000000000000000000000080C0C051
:103F7000E0F078381C1F0F0F060000000000000062
:103F80000000000000000000000000000000000031
:103F90000000000000000000000000000000000021
:103FA0000000000000000080808080808080C0C011
:103FB000C0C0E0E0E1E3E7EFEFFFFEFCFCF8F8E073
:103FC000C000000000000000000000000000000031
:103FD00000000000000000000000000000000000E1
:103FE0000000000040C0E0F0F8FCFEDECFCFC7C309
:103FF000C1C0C08080808080808080000000000080
:1040000000000000000000000000000000000000B0
:1040100000000000000000000000000000000000A0
:1040200000000000060F0707070707070303030147
:104030000101018180C0E0F0F87C7F1F1F0F07079E
:104040000000000000000000000000000000000070
:104050000000000000000000000000000000000060
:1040600000000000000103070F1F1F7D79F9F3F323
:10407000E3C3838303030307070707070707070350
:104080000000000000000000000000000000000030
:104090000000000000000000000000000000000020
:1040A00000000000000000000080E0E0F078783CB4
:1040B0003E1E1F0F07030301000000000000000068
:1040C00000000000000000000000000000000000F0
:1040D00000000000000000000000000000000000E0
:1040E00000000000000000000000000000000101CE
:1040F000030307070F3F3E3C7870000000000000FC
:1041000000000000000000000000000000000000AF
:10411000000000000000000000000000000000009F
:10412000000000000000000000010101000000008C
:10413000000000000000000000000000000000007F
:10414000000000000000000000000000000000006F
:10415000000000000000000000000000000000005F
:10416000000000000000000000000000000000004F
:1044200000000000000000003E3E3C3838383838BC
:1044300038383838383838383838383838383838FC
:1044400038383838383C3C3C0000000000000000A0
:10445000003C3C3C38383838383838383838383808
:104460003838383838383838383838383838383CC8
:104470003E3E0000000000000000000000000000C0
:10448000000000000000000000000000000000002C
:10449000000000000000000000000000000000001C
:1044A000000000000000000000000000000000000C
:1044B00000000000000000000000000000000000FC
:1044C00000000000000000000000000000000000EC
:1044D00000000000000000000000000000000000DC
:1044E00000000000000000000000000000000000CC
:1044F00000000000000000000000000000000000BC
:1045000000000000000000000000000000000000AB
:10451000000000000000000000000000000000009B
:10452000000000000000000000000000000000008B
:10453000000000000000000000000000000000007B
:10454000000000000000000000000000000000006B
:10455000000000000000000000000000000000005B
:10456000000000000000000000000000000000004B
:10457000000000000000000000000000000000003B
:10458000000000000000000000000000000000002B
:10459000000000000000000000000000000000001B
:1045A000000000000000000000000000000000000B
:1045B00000000000000000000000000000000000FB
:1045C00000000000000000000000000000000000EB
:1045D00000000000000000000000000000000000DB
:1045E00000000000000000000000000000000000CB
:1045F00000000000000000000000000000000000BB
:1046000000000000000000000000000000000000AA
:10461000000000000000000000000000000000009A
:10462000000000000000000000000000000000008A
:10463000000000000000000000000000000000007A
:1046400000000000000000000000000000E0F8FC96
:10465000FEFEFFFFFFFFFFFFFEFEF8F00000000080
:10466000000000000000000000000000000000004A
:10467000000000000000000000000000000000003A
:10468000000000000000000000000000000000002A
:10469000000000000000000000000000000000001A
:1046A000000000000000000000000000000000000A
:1046B00000000000000000000000000000000000FA
:1046C0000000000000000000000000000001071FC3
:1046D0001F3F3F7F7F7F3F3F1F0F0703000000000A
:1046E00000000000000000000000000000000000CA
:1046F00000000000000000000000000000000000BA
:1047000000000000000000000000000000000000A9
:104710000000000000000000000000000000000099
:104720000000000000000000000000008080C0E0E9
:10473000E06070707070707070E0E0000000000069
:104740000000000000000000000000000000000069
:104750000000000000000000000000000000000059
:104760000000000000000000008080C0E0E0F07069
:10477000707070707060E0E0800000000000000069
:104780000000000000000000000000000000000029
:104790000000000000000000000000000000000019
:1047A000000000000000000000F8FCFF3F030100D3
:1047B000F0F8181C0C8C8C8C0C1C3870E0C00000BD
:1047C00000000000000000000000000000000000E9
:1047D00000000000000000000000000000000000D9
:1047E00000000000C0F8FCFE0F030381E1F0783800
:1047F0001C1C9C8C8C0C1C1C3870E0C00000000041
:1048000000000000000000000000000000000000A8
:104810000000000000000000000000000000000098
:104820000000000000000000000F3FFFE0C080809B
:10483000878F1E1818191F0F0080E0F87F3F0000B7
:104840000000000000000000000000000000000068
:104850000000000000000000000000000000000058
:10486000000000003FFF7FE0C08000031F3F38785A
:10487000707079793F1F00000080F9FF0E00000082
:104880000000000000000000000000000000000028
:104890000000000000000000000000000000000018
:1048A0000000000000000000000000000101010302
:1048B00003070707070707070303010000000000BD
:1048C00000000000000000000000000000000000E8
:1048D00000000000000000000000000000000000D8
:1048E000000000000000000303070E0E0C0C1C1853
:1048F0001818181C0C0C0E0E070301000000000015
:1049000000000000000000000000000000000000A7
:104910000000000000000000000000000000000097
:104920000000000000000000000000000000000087
:104930000000000000000000000000000000000077
:104B20000000000000808080808000000000000005
:104B300000000000808080000000000000000000F5
:104B40000000000000000000000000000000000065
:104B50000000000000000000000000000000000055
:104B60000000000000000000000000000000000045
:104B700000000000000000808080808000000000B5
:104B800000000000000080808000000000000000A5
:104B90000000000000000000000000000000000015
:104BA000183C3E3F1F0F070707070F1F1F1E3C3C07
:104BB0003C3C3E3F1F0F07030000000000000000C8
:104BC0000000FCFCFC8C8C8C8C8C8C8C8C8C8C8CED
:104BD0008C8C8C8C8C8C8C8C8C8C8C8C8C8C8C8C15
:104BE0008C8C0C0C0CFCFC00000000000000000091
:104BF0000000183C3E3F1F0F070707070F1F1F1E2F
:104C00003C3C3C3C3E3F1F0F0703000000000000FF
:104C10000000000000000000000000000000000094
:104C20000000000000000000000000000000000084
:104C30000000000000000000000000000000000074
:104C40000000010101010101010101010101010156
:104C50000101010101010101010101010101017FC6
:104C60007F7F7070707F7F000000000000000000F8
:104C70000000000000000000000000000000000034
:104C80000000000000000000000000000000000024
:104C90000000000000000000000000000000000014
:104CA0000000000000000000000000000000000004
:104CB00000000000000000000000000000000000F4
:104CC00000000000000000000000000000000000E4
:104CD00000000000000000000000000000000000D4
:104CE00000000000000000000000000000000000C4
:104CF00000000000000000000000000000000000B4
:104D000000000000000000000000000000000000A3
:104D10000000000000000000000000000000000093
:104D20000000000000000000000000000000000083
:104D30000000000000000000000000000000000073
:104D40000000000000000000000000000000000063
:104D50000000000000000000000000000000000053
:104D60000000000000000000000000000000000043
:104D70000000000000000000000000000000000033
:104D80000000000000000000000000000000000023
:104D90000000000000000000000000000000000013
:104DA0000000000000000000000000000000000003
:104DB00000000000000000000000000000000000F3
:104DC00000000000000000000000000000000000E3
:104DD00000000000000000000000000000000000D3
:104DE00000000000000000000000000000000000C3
:104DF00000000000000000000000000000000000B3
:104E000000000000000000000000000000000000A2
:104E10000000000000000000000000000000000092
:104E20000000000000000000000000000000000082
:104E30000000000000000000000000000000000072
:104E4000000000000080C0C0E0E0E0E0E0E0E0C082
:104E500080000000000080C0E0E0E0E0E0E0C0C0D2
:104E600080000000000000000000000000000000C2
:104E70000000000000000000000000000000000032
:104E80000000000000000000000000000000000022
:104E90000000000000000000000000000000000012
:104EA0000000000000000000000000000000000002
:104EB00000000000000000000000000000000000F2
:104EC0000000007EFFFF83010000000000010103DD
:104ED0000F7FFEF8FE7F0F03010100000000018339
:104EE000FFFF7E0000000000000000000000000046
:104EF00000000000000000000000000000000000B2
:104F000000000000000000000000000000000000A1
:104F10000000000000000000000000000000000091
:104F2000000000000000207070F0E0E0C080000091
:104F30000000000000000000000000000000000071
:104F4000000000000107070300000000000000004F
:104F50000000000000000000000000000000030747
:104F60000701000000000000000000000000000039
:104F7000000000000000008080C0E0E0F8783830D9
:104F80000000000000000000000000000000000021
:104F90000000000000000000000000000000000011
:104FA00000000000000000000000000103030707EC
:104FB0000F0E1C1C3870F0E0C0C080000000000024
:104FC00000000000000000000000000000000000E1
:104FD00000000000000000000000000000000000D1
:104FE000000000000000000000008080C0C0E0F071
:104FF000F8F87C7C3E1F1F0F070301000000000033
:1050000000000000000000000000000000000000A0
:105010000000000000000000000000000000000090
:1050200000001C1C1C1C1E1E1E0E0E0E0E0E0E0F53
:105030008F8FC7E7F7777F3F1F0F07030000000040
:105040000000000000000000000000000000000060
:105050000000000000000000000000000000000050
:10506000000000000000000002070F1F3F3F7FFF0D
:10507000FEEECECE8E8E0E0E0E1C1C1C1C1C1C1C9E
:105080001C1C3C3C38200000000000000000000018
:105090000000000000000000000000000000000010
:1050A000000000000000C0C0E0F0F8383C1E0E0711
:1050B00007030301000000000000000000000000E2
:1050C00000000000000000000000000000000000E0
:1050D00000000000000000000000000000000000D0
:1050E00000000000000000000000000000000000C0
:1050F0000001010307070F1E3E3C78F8F0E0E0C016
:10510000800000000000000000000000000000001F
:10511000000000000000000000000000000000008F
:10512000000000000000000101000000000000007D
:10513000000000000000000000000000000000006F
:10514000000000000000000000000000000000005F
:10515000000000000000000000000000000000004F
:10516000000000000000000000000000000000003F
:10517000000000000000000000000000010101012B
:10518000000000000000000000000000000000001F
:10519000000000000000000000000000000000000F
:1051A00000000000000000000000000000000000FF
:1051B00000000000000000000000000000000000EF
:1051C00000000000000000000000000000000000DF
:1051D00000000000000000000000000000000000CF
:1051E00000000000000000000000000000000000BF
:1051F00000000000000000000000000000000000AF
:10520000000000000000000000000000000000009E
:10521000000000000000000000000000000000008E
:1052200000000000000000000000000000000080FE
:105230008080808000000080C0C0E0E0C08000C0AE
:10524000C060606060E0C0C08080C0E0E0E0E0C0BE
:10525000800080C0E0606060C0C080C0E06020204E
:1052600060E0E080C0C0606060E0C0800080C0C0DE
:1052700040C0C0C08000000000000000000000002E
:10528000000000000000000000000000000000001E
:10529000000000000000000000000000000000000E
:1052A000000000000000000000000000FCFEC783BA
:1052B00081C1C1C1C3FFFFE141606060607F7F7F4A
:1052C000717070707030313B3F3F31303030313170
:1052D0003F3F3F3F3130303030313F3F3030303072
:1052E00030317F7F7F7070707070633F7E7F616050
:1052F000606060616F7FF8C0C0C0C0C0C0C0C080C7
:10530000000000000000000000000000000000009D
:10531000000000000000000000000000000000008D
:10532000000000060E060606060707030303010138
:105330000101010100000000000000000000000069
:10534000000000000000000000000000000000005D
:10535000000000000000000000000000000000004D
:10536000000000000000000000000000000000003D
:10537000000000000000000000000000000001012B
:10538000000000000000000000000000000000001D
:10539000000000000000000000000000000000000D
:1053A00000000000000000000000000000000000FD
:1053B000000000000080F0F0F8FCFCFEFEFCFCF8B1
:1053C000F0C000000000000000000000000000002D
:1053D00000000000000000000000000000000000CD
:1053E00000000000000000000080800000000000BD
:1053F00000000000E0F8F8FCFCFCFCF8F0C0000045
:10540000000000000000000000000000000000009C
:10541000000000000000000000000000000000008C
:10542000000000000000000000007FFEE08000009F
:105430000000000000071F7FFFFFFFFFFFFFFFFFCF
:10544000FF1F00000000000000000000000000003E
:10545000000000000000000000000000000000004C
:10546000000000000000000000071F7CE08000003A
:10547000000000020F1F3F7F7F7FFFFFFF1F000024
:10548000000000000000000000000000000000001C
:10549000000000000000000000000000000000000C
:1054A000000000000000000000000001070F0E1CBB
:1054B0003C7870E0E0E0E0703038393D1F0F0703C2
:1054C00000000000000000000000000000000000DC
:1054D00000000000000000000000000000000000CC
:1054E0000000000000000000000000000003030EA8
:1054F0000C1C181818181C1C0E06030100000000D4
:10550000000000000000000000000000000000009B
:10551000000000000000000000000000000000008B
:10552000000000000000000000000000000000007B
:10553000000000000000000000000000000000006B
:10554000000000000000000000000000000000005B
:10555000000000000000000000000000000000004B
:10556000000000000000000000000000000000003B
:10557000000000000000000000000000000000002B
:10558000000000000000000000000000000000001B
:10559000000000000000000000000000000000000B
:1055A00000000000000000000000000000000000FB
:1055B00000000000000000000000000000000000EB
:1055C00000000000000000000000000000000000DB
:1055D00000000000000000000000000000000000CB
:1055E00000000000000000000000000000000000BB
:1055F00000000000000000000000000000000000AB
:10560000000000000000000000000000000000009A
:10561000000000000000000000000000000000008A
:10562000000000000000000000000000000000007A
:10563000000000000000000000000000000000006A
:105640000000000000000080C060703838181C1C8A
:105650000C0E0E0E0E0E0E0C1C1838387070E0C0BA
:1056600080000000000000000000000000000000BA
:10567000000000000000000000000000000000002A
:10568000000000000000000000000000000000001A
:10569000000000000000000000000000000000000A
:1056A00000000000000000000000000000000000FA
:1056B00000000000000000000000000000000000EA
:1056C000000000E0F83E0F030000000000000000B2
:1056D00000000000000000000000000000000001C9
:1056E00003070E3CF8E0000000000000000000008E
:1056F00000000000000000000000000000000000AA
:105700000000000000000000000000000000000099
:105710000000000000000000000000000000000089
:105720000000000000000000000000000000000079
:105730000000000000000000000000000000000069
:105740000000000707060606060606060606060609
:1057500006060606060606060606060606060606E9
:105760000606060607070000000000000000000013
:105770000000000000000000000000000000000029
:105780000000000000000000000000000000000019
:105790000000000000000000000000000000000009
:1057A000000048D8F8F8F8F8F8F8F8F0F0F0F0F061
:1057B000F0F0F0F0F0F0E0E0E0E0E0E0E0E0E0E089
:1057C000E0E0E0E0E0E0E0C00000000000000000F9
:1057D00000000000000000000000000000000000C9
:1057E0000080808080808080C0C0C0C0C0C0C0C039
:1057F000C0C0C0C0E0E0E0E0E0E0E0E0E0E0E0E029
:10580000E0E0E0E0E08000000000000000000000B8
:105810000000000000000000000000000000000088
:10582000069F9F9FDFDFDFFFFFFFFFFFFFFFFFFF01
:10583000FFFFFFDFDFDFDFDFDFDFDD9D9D9D9D9968
:1058400099B9B9B9B9B9B9B93938303000000000DF
:105850000000000000000000000000000000004CFC
:105860004EDFDFDFFFFFFFFFFFFFFFFFFFFFFFFF59
:10587000FFFFFFFFFFFFF7F7F7F7F7F7F7F3F3F394
:10588000E3E3E3E3E3E3E0C0000000000000000026
:105890000000000000000000000000000000000008
:1058A00000000101010101010101010101010303E6
:1058B00003030303030303030303030303030303B8
:1058C0000307070707070707070700000000000096
:1058D00000000000000000000000000000000406BE
:1058E0000606060606060606070707070303030360
:1058F000030303030303030303030303030101017E
:10590000010101010101010100000000000000008F
:105910000000000000000000000000000000000087
:105920000000000000000000000000000000000077
:105930000000000000000000000000000000000067
:105940000000000000000000000000000000000057
:105950000000000000000000000000000000000047
:105960000000000000000000000000000000000037
:105970000000000000000000000000000000000027
:105980000000000000000000000000000000000017
:105990000000000000000000000000000000000007
:1059A00000000000000000000000000000000000F7
:1059B00000000000000000000000000000000000E7
:1059C00000000000000000000000000000000000D7
:1059D000000000000000000000000000000000C007
:1059E000E03F080000000000FC9F000000000000F5
:1059F000000000000000000000000000000000FFA8
:105A00000000000000003F61C00000000000000036
:105A10000000000000000000000000000000000086
:105A200001FE000000000000FEC3000000000000B6
:105A3000000000000000000000000000000000FF67
:105A4000000000000000EE3B00000000000000002D
:105A50000000000000000000000000000000000046
:105A60000E13E0400000001CFF800000000000005A
:105A7000001C604040603E0000000000000000E3A9
:105A80003E00000000E0311E0000000000000000A9
:105A9000000000000000000000000000000070F0A6
:105AA000FEF1F0F0F0F0F0F0FEE1C00000000000C8
:105AB0000000000000000000000000000080E0E79F
:105AC000F8E0F0F0F0F0F1FEF0F03000000000003F
:105AD0000000000000000000000000000000202086
:105AE0003030606060E0C0C0800000000000000056
:105AF0000000000000000000000000000000008026
:105B000080C0C0E060606020202000000000000035
:105B10000000000000000000000000000000000085
:105B20000000000000000101071F1E00000000002F
:105B3000000000000000000000000000001C1F0F1B
:105B40000301000000000000000000000000000051
:105B50000000000000000000000000000000000045
:105B60000000000000000000000000000000000035
:105B70000000000000000000000000000000000025
:105B80000000000000000000000000000000000015
:105B90000000000000000000000000000000000005
:105BA00000000000000000000000000000000000F5
:105BB00000000000000000000000000000000000E5
:105BC00000000000000000000000000000000000D5
:105BD00000000000000000000000000000000003C2
:105BE000FF0000000000003F60C000000000000057
:105BF000000000000000000000000000000000C0E5
:105C00003718000000000068FF00000000000000DE
:105C10000000000000000000000000000000000183
:105C2000FF000000000000EE130000000000000074
:105C30000000000000000000000000000000000163
:105C4000FE8400000000003CE300000000000000B3
:105C50000000000000000000000000000000000044
:105C6000E31C00000000E0331E0000000000000004
:105C70000038C08080C07C00000000000000000CE4
:105C80001360C0000000087F8100000000000000D9
:105C9000000000000000000000000000000070F0A4
:105CA000FFF0F0F0F0F0F1E3FCE0C00000000000D5
:105CB0000000000000000000000000000080E0E89C
:105CC000F6E1E0F0F0F0F0FCF3F03000000000004E
:105CD0000000000000000000000000000000004084
:105CE00060606060E0C0C0C0800000000000000094
:105CF0000000000000000000000000000000008024
:105D000080C0C0C0E0606060600000000000000073
:105D10000000000000000000000000000000000083
:105D2000000000000000010103071F3C000000000C
:105D3000000000000000000000000000183E1F07E7
:105D4000030100000000000000000000000000004F
:105D50000000000000000000000000000000000043
:105D60000000000000000000000000000000000033
:105D70000000000000000000000000000000000023
:105D80000000000000000000000000000000000013
:105D90000000000000000000000000000000000003
:105DA0000000000000000000000000000000806013
:105DB000D0E8341A8ACA8A1A34E810600000000059
:105DC00000000000000000000000000000000000D3
:105DD00000000000000000000000000000000000C3
:105DE00000008040A0D050682820202020282F28A4
:105DF0006F7F0000FFFF0700F85FE08C00000000ED
:105E00000000000000000000000000000000000092
:105E10000000000000000000000000000000007012
:105E200006F3FE0301F8FCFEFFFFFFFFFFFFFFFE8E
:105E3000FEFEFEFFFFFFFEF8F9F3E2E68D1A34E8FE
:105E400010600000000000000000000000000000E2
:105E50000000000000000080808080808080800042
:105E60000608374CB06147CF9F1F3F3F7F7F7F7F42
:105E7000FFFFFFFFFF7F7F7F7F3F1F9FC760B05FF8
:105E8000301C0000000000000000000000000000C6
:105E90000000000044B87DFEFEFEFEFEFEFEFEFD9C
:105EA000FDFAF4887001010205050B0A0A021614B6
:105EB00014141414141416020A0B0105E231E8F448
:105EC000F4FAFAFAFAFAFAF4F4F4E8D020C000008E
:105ED0000000000060D0E92A369989C94D65652522
:105EE000A5A4A5A5A5252565656DBA003800000007
:105EF00000F098F49A8ACD4D6525A5A5A525654D98
:105F0000CB9B97B7E737F7171717170B0603000058
:105F10000000000002050B0A0B050202010101004E
:105F2000000000000000000101010000000000006E
:105F300000000002020202010100386CBA6DC58542
:105F4000040CCDC9487BC0E034343428286840D0E4
:105F500040C0000000000000000000000000000041
:105F60000000000000000000000000000000000031
